{"contracts/PrivateCollectionsFactory.sol":{"CollectionFactory":{"abi":[{"inputs":[{"internalType":"address","name":"collectionRegistry","type":"address"}],"stateMutability":"nonpayable","type":"constructor"},{"anonymous":false,"inputs":[{"indexed":false,"internalType":"address","name":"newCollectionAddress","type":"address"}],"name":"CollectionCreated","type":"event"},{"anonymous":false,"inputs":[{"indexed":true,"internalType":"address","name":"previousOwner","type":"address"},{"indexed":true,"internalType":"address","name":"newOwner","type":"address"}],"name":"OwnershipTransferred","type":"event"},{"inputs":[],"name":"_collectionRegistryAddress","outputs":[{"internalType":"address","name":"","type":"address"}],"stateMutability":"view","type":"function"},{"inputs":[{"internalType":"string","name":"collectionMetadataURI","type":"string"},{"internalType":"uint256","name":"_price","type":"uint256"}],"name":"createCollection","outputs":[{"internalType":"address","name":"","type":"address"}],"stateMutability":"nonpayable","type":"function"},{"inputs":[],"name":"owner","outputs":[{"internalType":"address","name":"","type":"address"}],"stateMutability":"view","type":"function"},{"inputs":[],"name":"renounceOwnership","outputs":[],"stateMutability":"nonpayable","type":"function"},{"inputs":[{"internalType":"address","name":"newOwner","type":"address"}],"name":"transferOwnership","outputs":[],"stateMutability":"nonpayable","type":"function"}],"evm":{"bytecode":{"linkReferences":{},"object":"608060405234801561001057600080fd5b506040516200428e3803806200428e833981810160405281019061003491906101c6565b61005061004561009760201b60201c565b61009f60201b60201c565b80600160006101000a81548173ffffffffffffffffffffffffffffffffffffffff021916908373ffffffffffffffffffffffffffffffffffffffff160217905550506101f3565b600033905090565b60008060009054906101000a900473ffffffffffffffffffffffffffffffffffffffff169050816000806101000a81548173ffffffffffffffffffffffffffffffffffffffff021916908373ffffffffffffffffffffffffffffffffffffffff1602179055508173ffffffffffffffffffffffffffffffffffffffff168173ffffffffffffffffffffffffffffffffffffffff167f8be0079c531659141344cd1fd0a4f28419497f9722a3daafe3b4186f6b6457e060405160405180910390a35050565b600080fd5b600073ffffffffffffffffffffffffffffffffffffffff82169050919050565b600061019382610168565b9050919050565b6101a381610188565b81146101ae57600080fd5b50565b6000815190506101c08161019a565b92915050565b6000602082840312156101dc576101db610163565b5b60006101ea848285016101b1565b91505092915050565b61408b80620002036000396000f3fe608060405234801561001057600080fd5b50600436106100575760003560e01c806364d541511461005c578063715018a61461008c5780638da5cb5b14610096578063e064e2d9146100b4578063f2fde38b146100d2575b600080fd5b61007660048036038101906100719190610694565b6100ee565b6040516100839190610731565b60405180910390f35b61009461025d565b005b61009e6102e5565b6040516100ab9190610731565b60405180910390f35b6100bc61030e565b6040516100c99190610731565b60405180910390f35b6100ec60048036038101906100e79190610778565b610334565b005b6000806040516100fd906104f7565b604051809103906000f080158015610119573d6000803e3d6000fd5b5090508073ffffffffffffffffffffffffffffffffffffffff16637ab4339d85336040518363ffffffff1660e01b8152600401610157929190610824565b600060405180830381600087803b15801561017157600080fd5b505af1158015610185573d6000803e3d6000fd5b50505050600160009054906101000a900473ffffffffffffffffffffffffffffffffffffffff1673ffffffffffffffffffffffffffffffffffffffff1663240bc112858386336040518563ffffffff1660e01b81526004016101ea94939291906108c0565b600060405180830381600087803b15801561020457600080fd5b505af1158015610218573d6000803e3d6000fd5b505050507f75432e2e509efcaf947efcc7a5a6b6b3562425b29e9725c7a4a5c652291ac35d8160405161024b9190610731565b60405180910390a18091505092915050565b61026561042b565b73ffffffffffffffffffffffffffffffffffffffff166102836102e5565b73ffffffffffffffffffffffffffffffffffffffff16146102d9576040517f08c379a00000000000000000000000000000000000000000000000000000000081526004016102d09061096b565b60405180910390fd5b6102e36000610433565b565b60008060009054906101000a900473ffffffffffffffffffffffffffffffffffffffff16905090565b600160009054906101000a900473ffffffffffffffffffffffffffffffffffffffff1681565b61033c61042b565b73ffffffffffffffffffffffffffffffffffffffff1661035a6102e5565b73ffffffffffffffffffffffffffffffffffffffff16146103b0576040517f08c379a00000000000000000000000000000000000000000000000000000000081526004016103a79061096b565b60405180910390fd5b600073ffffffffffffffffffffffffffffffffffffffff168173ffffffffffffffffffffffffffffffffffffffff160361041f576040517f08c379a0000000000000000000000000000000000000000000000000000000008152600401610416906109fd565b60405180910390fd5b61042881610433565b50565b600033905090565b60008060009054906101000a900473ffffffffffffffffffffffffffffffffffffffff169050816000806101000a81548173ffffffffffffffffffffffffffffffffffffffff021916908373ffffffffffffffffffffffffffffffffffffffff1602179055508173ffffffffffffffffffffffffffffffffffffffff168173ffffffffffffffffffffffffffffffffffffffff167f8be0079c531659141344cd1fd0a4f28419497f9722a3daafe3b4186f6b6457e060405160405180910390a35050565b61363880610a1e83390190565b6000604051905090565b600080fd5b600080fd5b600080fd5b600080fd5b6000601f19601f8301169050919050565b7f4e487b7100000000000000000000000000000000000000000000000000000000600052604160045260246000fd5b61056b82610522565b810181811067ffffffffffffffff8211171561058a57610589610533565b5b80604052505050565b600061059d610504565b90506105a98282610562565b919050565b600067ffffffffffffffff8211156105c9576105c8610533565b5b6105d282610522565b9050602081019050919050565b82818337600083830152505050565b60006106016105fc846105ae565b610593565b90508281526020810184848401111561061d5761061c61051d565b5b6106288482856105df565b509392505050565b600082601f83011261064557610644610518565b5b81356106558482602086016105ee565b91505092915050565b6000819050919050565b6106718161065e565b811461067c57600080fd5b50565b60008135905061068e81610668565b92915050565b600080604083850312156106ab576106aa61050e565b5b600083013567ffffffffffffffff8111156106c9576106c8610513565b5b6106d585828601610630565b92505060206106e68582860161067f565b9150509250929050565b600073ffffffffffffffffffffffffffffffffffffffff82169050919050565b600061071b826106f0565b9050919050565b61072b81610710565b82525050565b60006020820190506107466000830184610722565b92915050565b61075581610710565b811461076057600080fd5b50565b6000813590506107728161074c565b92915050565b60006020828403121561078e5761078d61050e565b5b600061079c84828501610763565b91505092915050565b600081519050919050565b600082825260208201905092915050565b60005b838110156107df5780820151818401526020810190506107c4565b60008484015250505050565b60006107f6826107a5565b61080081856107b0565b93506108108185602086016107c1565b61081981610522565b840191505092915050565b6000604082019050818103600083015261083e81856107eb565b905061084d6020830184610722565b9392505050565b600082825260208201905092915050565b7f3078000000000000000000000000000000000000000000000000000000000000600082015250565b600061089b600283610854565b91506108a682610865565b602082019050919050565b6108ba8161065e565b82525050565b600060a08201905081810360008301526108d98161088e565b905081810360208301526108ed81876107eb565b90506108fc6040830186610722565b61090960608301856108b1565b6109166080830184610722565b95945050505050565b7f4f776e61626c653a2063616c6c6572206973206e6f7420746865206f776e6572600082015250565b60006109556020836107b0565b91506109608261091f565b602082019050919050565b6000602082019050818103600083015261098481610948565b9050919050565b7f4f776e61626c653a206e6577206f776e657220697320746865207a65726f206160008201527f6464726573730000000000000000000000000000000000000000000000000000602082015250565b60006109e76026836107b0565b91506109f28261098b565b604082019050919050565b60006020820190508181036000830152610a16816109da565b905091905056fe608060405234801561001057600080fd5b50613618806100206000396000f3fe608060405234801561001057600080fd5b50600436106100f45760003560e01c80637ab4339d11610097578063e985e9c511610066578063e985e9c51461026f578063ebc349ee1461029f578063f242432a146102bb578063f2fde38b146102d7576100f4565b80637ab4339d146101fb5780638da5cb5b146102175780639051306814610235578063a22cb46514610253576100f4565b80632eb2c2d6116100d35780632eb2c2d6146101895780634e1273f4146101a557806351cff8d9146101d5578063715018a6146101f1576100f4565b8062fdd58e146100f957806301ffc9a7146101295780630e89341c14610159575b600080fd5b610113600480360381019061010e9190611bb8565b6102f3565b6040516101209190611c07565b60405180910390f35b610143600480360381019061013e9190611c7a565b6103bc565b6040516101509190611cc2565b60405180910390f35b610173600480360381019061016e9190611cdd565b6103ce565b6040516101809190611d9a565b60405180910390f35b6101a3600480360381019061019e9190611fb9565b6104b3565b005b6101bf60048036038101906101ba919061214b565b610554565b6040516101cc9190612281565b60405180910390f35b6101ef60048036038101906101ea91906122e1565b61066d565b005b6101f96106b7565b005b610215600480360381019061021091906123af565b6106cb565b005b61021f61083c565b60405161022c919061241a565b60405180910390f35b61023d610866565b60405161024a9190611d9a565b60405180910390f35b61026d60048036038101906102689190612461565b6108f4565b005b610289600480360381019061028491906124a1565b61090a565b6040516102969190611cc2565b60405180910390f35b6102b960048036038101906102b4919061253c565b61099e565b005b6102d560048036038101906102d09190612589565b6109b4565b005b6102f160048036038101906102ec9190612620565b610a55565b005b60008073ffffffffffffffffffffffffffffffffffffffff168373ffffffffffffffffffffffffffffffffffffffff1603610363576040517f08c379a000000000000000000000000000000000000000000000000000000000815260040161035a906126bf565b60405180910390fd5b6065600083815260200190815260200160002060008473ffffffffffffffffffffffffffffffffffffffff1673ffffffffffffffffffffffffffffffffffffffff16815260200190815260200160002054905092915050565b60006103c782610ad8565b9050919050565b606060006098600084815260200190815260200160002080546103f09061270e565b80601f016020809104026020016040519081016040528092919081815260200182805461041c9061270e565b80156104695780601f1061043e57610100808354040283529160200191610469565b820191906000526020600020905b81548152906001019060200180831161044c57829003601f168201915b5050505050905060008151116104875761048283610bba565b6104ab565b60978160405160200161049b929190612813565b6040516020818303038152906040525b915050919050565b6104bb610c4e565b73ffffffffffffffffffffffffffffffffffffffff168573ffffffffffffffffffffffffffffffffffffffff1614806105015750610500856104fb610c4e565b61090a565b5b610540576040517f08c379a0000000000000000000000000000000000000000000000000000000008152600401610537906128a9565b60405180910390fd5b61054d8585858585610c56565b5050505050565b6060815183511461059a576040517f08c379a00000000000000000000000000000000000000000000000000000000081526004016105919061293b565b60405180910390fd5b6000835167ffffffffffffffff8111156105b7576105b6611dc1565b5b6040519080825280602002602001820160405280156105e55781602001602082028036833780820191505090505b50905060005b84518110156106625761063285828151811061060a5761060961295b565b5b60200260200101518583815181106106255761062461295b565b5b60200260200101516102f3565b8282815181106106455761064461295b565b5b6020026020010181815250508061065b906129b9565b90506105eb565b508091505092915050565b8073ffffffffffffffffffffffffffffffffffffffff166108fc479081150290604051600060405180830381858888f193505050501580156106b3573d6000803e3d6000fd5b5050565b6106bf610f7a565b6106c96000610ff8565b565b60008060019054906101000a900460ff161590508080156106fc5750600160008054906101000a900460ff1660ff16105b80610729575061070b306110be565b1580156107285750600160008054906101000a900460ff1660ff16145b5b610768576040517f08c379a000000000000000000000000000000000000000000000000000000000815260040161075f90612a73565b60405180910390fd5b60016000806101000a81548160ff021916908360ff16021790555080156107a5576001600060016101000a81548160ff0219169083151502179055505b8260fc90816107b49190612c2a565b506107cd604051806020016040528060008152506110e1565b6107d561113c565b6107de82610a55565b80156108375760008060016101000a81548160ff0219169083151502179055507f7f26b83ff96e1f2b6a682f133852f6798a09c465da95921460cefb3847402498600160405161082e9190612d44565b60405180910390a15b505050565b600060c960009054906101000a900473ffffffffffffffffffffffffffffffffffffffff16905090565b60fc80546108739061270e565b80601f016020809104026020016040519081016040528092919081815260200182805461089f9061270e565b80156108ec5780601f106108c1576101008083540402835291602001916108ec565b820191906000526020600020905b8154815290600101906020018083116108cf57829003601f168201915b505050505081565b6109066108ff610c4e565b8383611195565b5050565b6000606660008473ffffffffffffffffffffffffffffffffffffffff1673ffffffffffffffffffffffffffffffffffffffff16815260200190815260200160002060008373ffffffffffffffffffffffffffffffffffffffff1673ffffffffffffffffffffffffffffffffffffffff16815260200190815260200160002060009054906101000a900460ff16905092915050565b818160fc91826109af929190612d6a565b505050565b6109bc610c4e565b73ffffffffffffffffffffffffffffffffffffffff168573ffffffffffffffffffffffffffffffffffffffff161480610a025750610a01856109fc610c4e565b61090a565b5b610a41576040517f08c379a0000000000000000000000000000000000000000000000000000000008152600401610a38906128a9565b60405180910390fd5b610a4e8585858585611301565b5050505050565b610a5d610f7a565b600073ffffffffffffffffffffffffffffffffffffffff168173ffffffffffffffffffffffffffffffffffffffff1603610acc576040517f08c379a0000000000000000000000000000000000000000000000000000000008152600401610ac390612eac565b60405180910390fd5b610ad581610ff8565b50565b60007fd9b67a26000000000000000000000000000000000000000000000000000000007bffffffffffffffffffffffffffffffffffffffffffffffffffffffff1916827bffffffffffffffffffffffffffffffffffffffffffffffffffffffff19161480610ba357507f0e89341c000000000000000000000000000000000000000000000000000000007bffffffffffffffffffffffffffffffffffffffffffffffffffffffff1916827bffffffffffffffffffffffffffffffffffffffffffffffffffffffff1916145b80610bb35750610bb28261159f565b5b9050919050565b606060678054610bc99061270e565b80601f0160208091040260200160405190810160405280929190818152602001828054610bf59061270e565b8015610c425780601f10610c1757610100808354040283529160200191610c42565b820191906000526020600020905b815481529060010190602001808311610c2557829003601f168201915b50505050509050919050565b600033905090565b8151835114610c9a576040517f08c379a0000000000000000000000000000000000000000000000000000000008152600401610c9190612f3e565b60405180910390fd5b600073ffffffffffffffffffffffffffffffffffffffff168473ffffffffffffffffffffffffffffffffffffffff1603610d09576040517f08c379a0000000000000000000000000000000000000000000000000000000008152600401610d0090612fd0565b60405180910390fd5b6000610d13610c4e565b9050610d23818787878787611609565b60005b8451811015610ed7576000858281518110610d4457610d4361295b565b5b602002602001015190506000858381518110610d6357610d6261295b565b5b6020026020010151905060006065600084815260200190815260200160002060008b73ffffffffffffffffffffffffffffffffffffffff1673ffffffffffffffffffffffffffffffffffffffff16815260200190815260200160002054905081811015610e05576040517f08c379a0000000000000000000000000000000000000000000000000000000008152600401610dfc90613062565b60405180910390fd5b8181036065600085815260200190815260200160002060008c73ffffffffffffffffffffffffffffffffffffffff1673ffffffffffffffffffffffffffffffffffffffff16815260200190815260200160002081905550816065600085815260200190815260200160002060008b73ffffffffffffffffffffffffffffffffffffffff1673ffffffffffffffffffffffffffffffffffffffff1681526020019081526020016000206000828254610ebc9190613082565b9250508190555050505080610ed0906129b9565b9050610d26565b508473ffffffffffffffffffffffffffffffffffffffff168673ffffffffffffffffffffffffffffffffffffffff168273ffffffffffffffffffffffffffffffffffffffff167f4a39dc06d4c0dbc64b70af90fd698a233a518aa5d07e595d983b8c0526c8f7fb8787604051610f4e9291906130b6565b60405180910390a4610f64818787878787611611565b610f72818787878787611619565b505050505050565b610f82610c4e565b73ffffffffffffffffffffffffffffffffffffffff16610fa061083c565b73ffffffffffffffffffffffffffffffffffffffff1614610ff6576040517f08c379a0000000000000000000000000000000000000000000000000000000008152600401610fed90613139565b60405180910390fd5b565b600060c960009054906101000a900473ffffffffffffffffffffffffffffffffffffffff1690508160c960006101000a81548173ffffffffffffffffffffffffffffffffffffffff021916908373ffffffffffffffffffffffffffffffffffffffff1602179055508173ffffffffffffffffffffffffffffffffffffffff168173ffffffffffffffffffffffffffffffffffffffff167f8be0079c531659141344cd1fd0a4f28419497f9722a3daafe3b4186f6b6457e060405160405180910390a35050565b6000808273ffffffffffffffffffffffffffffffffffffffff163b119050919050565b600060019054906101000a900460ff16611130576040517f08c379a0000000000000000000000000000000000000000000000000000000008152600401611127906131cb565b60405180910390fd5b611139816117f0565b50565b600060019054906101000a900460ff1661118b576040517f08c379a0000000000000000000000000000000000000000000000000000000008152600401611182906131cb565b60405180910390fd5b61119361184b565b565b8173ffffffffffffffffffffffffffffffffffffffff168373ffffffffffffffffffffffffffffffffffffffff1603611203576040517f08c379a00000000000000000000000000000000000000000000000000000000081526004016111fa9061325d565b60405180910390fd5b80606660008573ffffffffffffffffffffffffffffffffffffffff1673ffffffffffffffffffffffffffffffffffffffff16815260200190815260200160002060008473ffffffffffffffffffffffffffffffffffffffff1673ffffffffffffffffffffffffffffffffffffffff16815260200190815260200160002060006101000a81548160ff0219169083151502179055508173ffffffffffffffffffffffffffffffffffffffff168373ffffffffffffffffffffffffffffffffffffffff167f17307eab39ab6107e8899845ad3d59bd9653f200f220920489ca2b5937696c31836040516112f49190611cc2565b60405180910390a3505050565b600073ffffffffffffffffffffffffffffffffffffffff168473ffffffffffffffffffffffffffffffffffffffff1603611370576040517f08c379a000000000000000000000000000000000000000000000000000000000815260040161136790612fd0565b60405180910390fd5b600061137a610c4e565b90506000611387856118ac565b90506000611394856118ac565b90506113a4838989858589611609565b60006065600088815260200190815260200160002060008a73ffffffffffffffffffffffffffffffffffffffff1673ffffffffffffffffffffffffffffffffffffffff1681526020019081526020016000205490508581101561143c576040517f08c379a000000000000000000000000000000000000000000000000000000000815260040161143390613062565b60405180910390fd5b8581036065600089815260200190815260200160002060008b73ffffffffffffffffffffffffffffffffffffffff1673ffffffffffffffffffffffffffffffffffffffff16815260200190815260200160002081905550856065600089815260200190815260200160002060008a73ffffffffffffffffffffffffffffffffffffffff1673ffffffffffffffffffffffffffffffffffffffff16815260200190815260200160002060008282546114f39190613082565b925050819055508773ffffffffffffffffffffffffffffffffffffffff168973ffffffffffffffffffffffffffffffffffffffff168573ffffffffffffffffffffffffffffffffffffffff167fc3d58168c5ae7397731d063d5bbf3d657854427343f4c083240f7aacaa2d0f628a8a60405161157092919061327d565b60405180910390a4611586848a8a86868a611611565b611594848a8a8a8a8a611926565b505050505050505050565b60007f01ffc9a7000000000000000000000000000000000000000000000000000000007bffffffffffffffffffffffffffffffffffffffffffffffffffffffff1916827bffffffffffffffffffffffffffffffffffffffffffffffffffffffff1916149050919050565b505050505050565b505050505050565b6116388473ffffffffffffffffffffffffffffffffffffffff166110be565b156117e8578373ffffffffffffffffffffffffffffffffffffffff1663bc197c8187878686866040518663ffffffff1660e01b815260040161167e9594939291906132fb565b6020604051808303816000875af19250505080156116ba57506040513d601f19601f820116820180604052508101906116b79190613378565b60015b61175f576116c66133b2565b806308c379a00361172257506116da6133d4565b806116e55750611724565b806040517f08c379a00000000000000000000000000000000000000000000000000000000081526004016117199190611d9a565b60405180910390fd5b505b6040517f08c379a0000000000000000000000000000000000000000000000000000000008152600401611756906134d6565b60405180910390fd5b63bc197c8160e01b7bffffffffffffffffffffffffffffffffffffffffffffffffffffffff1916817bffffffffffffffffffffffffffffffffffffffffffffffffffffffff1916146117e6576040517f08c379a00000000000000000000000000000000000000000000000000000000081526004016117dd90613568565b60405180910390fd5b505b505050505050565b600060019054906101000a900460ff1661183f576040517f08c379a0000000000000000000000000000000000000000000000000000000008152600401611836906131cb565b60405180910390fd5b61184881611afd565b50565b600060019054906101000a900460ff1661189a576040517f08c379a0000000000000000000000000000000000000000000000000000000008152600401611891906131cb565b60405180910390fd5b6118aa6118a5610c4e565b610ff8565b565b60606000600167ffffffffffffffff8111156118cb576118ca611dc1565b5b6040519080825280602002602001820160405280156118f95781602001602082028036833780820191505090505b50905082816000815181106119115761191061295b565b5b60200260200101818152505080915050919050565b6119458473ffffffffffffffffffffffffffffffffffffffff166110be565b15611af5578373ffffffffffffffffffffffffffffffffffffffff1663f23a6e6187878686866040518663ffffffff1660e01b815260040161198b959493929190613588565b6020604051808303816000875af19250505080156119c757506040513d601f19601f820116820180604052508101906119c49190613378565b60015b611a6c576119d36133b2565b806308c379a003611a2f57506119e76133d4565b806119f25750611a31565b806040517f08c379a0000000000000000000000000000000000000000000000000000000008152600401611a269190611d9a565b60405180910390fd5b505b6040517f08c379a0000000000000000000000000000000000000000000000000000000008152600401611a63906134d6565b60405180910390fd5b63f23a6e6160e01b7bffffffffffffffffffffffffffffffffffffffffffffffffffffffff1916817bffffffffffffffffffffffffffffffffffffffffffffffffffffffff191614611af3576040517f08c379a0000000000000000000000000000000000000000000000000000000008152600401611aea90613568565b60405180910390fd5b505b505050505050565b8060679081611b0c9190612c2a565b5050565b6000604051905090565b600080fd5b600080fd5b600073ffffffffffffffffffffffffffffffffffffffff82169050919050565b6000611b4f82611b24565b9050919050565b611b5f81611b44565b8114611b6a57600080fd5b50565b600081359050611b7c81611b56565b92915050565b6000819050919050565b611b9581611b82565b8114611ba057600080fd5b50565b600081359050611bb281611b8c565b92915050565b60008060408385031215611bcf57611bce611b1a565b5b6000611bdd85828601611b6d565b9250506020611bee85828601611ba3565b9150509250929050565b611c0181611b82565b82525050565b6000602082019050611c1c6000830184611bf8565b92915050565b60007fffffffff0000000000000000000000000000000000000000000000000000000082169050919050565b611c5781611c22565b8114611c6257600080fd5b50565b600081359050611c7481611c4e565b92915050565b600060208284031215611c9057611c8f611b1a565b5b6000611c9e84828501611c65565b91505092915050565b60008115159050919050565b611cbc81611ca7565b82525050565b6000602082019050611cd76000830184611cb3565b92915050565b600060208284031215611cf357611cf2611b1a565b5b6000611d0184828501611ba3565b91505092915050565b600081519050919050565b600082825260208201905092915050565b60005b83811015611d44578082015181840152602081019050611d29565b60008484015250505050565b6000601f19601f8301169050919050565b6000611d6c82611d0a565b611d768185611d15565b9350611d86818560208601611d26565b611d8f81611d50565b840191505092915050565b60006020820190508181036000830152611db48184611d61565b905092915050565b600080fd5b7f4e487b7100000000000000000000000000000000000000000000000000000000600052604160045260246000fd5b611df982611d50565b810181811067ffffffffffffffff82111715611e1857611e17611dc1565b5b80604052505050565b6000611e2b611b10565b9050611e378282611df0565b919050565b600067ffffffffffffffff821115611e5757611e56611dc1565b5b602082029050602081019050919050565b600080fd5b6000611e80611e7b84611e3c565b611e21565b90508083825260208201905060208402830185811115611ea357611ea2611e68565b5b835b81811015611ecc5780611eb88882611ba3565b845260208401935050602081019050611ea5565b5050509392505050565b600082601f830112611eeb57611eea611dbc565b5b8135611efb848260208601611e6d565b91505092915050565b600080fd5b600067ffffffffffffffff821115611f2457611f23611dc1565b5b611f2d82611d50565b9050602081019050919050565b82818337600083830152505050565b6000611f5c611f5784611f09565b611e21565b905082815260208101848484011115611f7857611f77611f04565b5b611f83848285611f3a565b509392505050565b600082601f830112611fa057611f9f611dbc565b5b8135611fb0848260208601611f49565b91505092915050565b600080600080600060a08688031215611fd557611fd4611b1a565b5b6000611fe388828901611b6d565b9550506020611ff488828901611b6d565b945050604086013567ffffffffffffffff81111561201557612014611b1f565b5b61202188828901611ed6565b935050606086013567ffffffffffffffff81111561204257612041611b1f565b5b61204e88828901611ed6565b925050608086013567ffffffffffffffff81111561206f5761206e611b1f565b5b61207b88828901611f8b565b9150509295509295909350565b600067ffffffffffffffff8211156120a3576120a2611dc1565b5b602082029050602081019050919050565b60006120c76120c284612088565b611e21565b905080838252602082019050602084028301858111156120ea576120e9611e68565b5b835b8181101561211357806120ff8882611b6d565b8452602084019350506020810190506120ec565b5050509392505050565b600082601f83011261213257612131611dbc565b5b81356121428482602086016120b4565b91505092915050565b6000806040838503121561216257612161611b1a565b5b600083013567ffffffffffffffff8111156121805761217f611b1f565b5b61218c8582860161211d565b925050602083013567ffffffffffffffff8111156121ad576121ac611b1f565b5b6121b985828601611ed6565b9150509250929050565b600081519050919050565b600082825260208201905092915050565b6000819050602082019050919050565b6121f881611b82565b82525050565b600061220a83836121ef565b60208301905092915050565b6000602082019050919050565b600061222e826121c3565b61223881856121ce565b9350612243836121df565b8060005b8381101561227457815161225b88826121fe565b975061226683612216565b925050600181019050612247565b5085935050505092915050565b6000602082019050818103600083015261229b8184612223565b905092915050565b60006122ae82611b24565b9050919050565b6122be816122a3565b81146122c957600080fd5b50565b6000813590506122db816122b5565b92915050565b6000602082840312156122f7576122f6611b1a565b5b6000612305848285016122cc565b91505092915050565b600067ffffffffffffffff82111561232957612328611dc1565b5b61233282611d50565b9050602081019050919050565b600061235261234d8461230e565b611e21565b90508281526020810184848401111561236e5761236d611f04565b5b612379848285611f3a565b509392505050565b600082601f83011261239657612395611dbc565b5b81356123a684826020860161233f565b91505092915050565b600080604083850312156123c6576123c5611b1a565b5b600083013567ffffffffffffffff8111156123e4576123e3611b1f565b5b6123f085828601612381565b925050602061240185828601611b6d565b9150509250929050565b61241481611b44565b82525050565b600060208201905061242f600083018461240b565b92915050565b61243e81611ca7565b811461244957600080fd5b50565b60008135905061245b81612435565b92915050565b6000806040838503121561247857612477611b1a565b5b600061248685828601611b6d565b92505060206124978582860161244c565b9150509250929050565b600080604083850312156124b8576124b7611b1a565b5b60006124c685828601611b6d565b92505060206124d785828601611b6d565b9150509250929050565b600080fd5b60008083601f8401126124fc576124fb611dbc565b5b8235905067ffffffffffffffff811115612519576125186124e1565b5b60208301915083600182028301111561253557612534611e68565b5b9250929050565b6000806020838503121561255357612552611b1a565b5b600083013567ffffffffffffffff81111561257157612570611b1f565b5b61257d858286016124e6565b92509250509250929050565b600080600080600060a086880312156125a5576125a4611b1a565b5b60006125b388828901611b6d565b95505060206125c488828901611b6d565b94505060406125d588828901611ba3565b93505060606125e688828901611ba3565b925050608086013567ffffffffffffffff81111561260757612606611b1f565b5b61261388828901611f8b565b9150509295509295909350565b60006020828403121561263657612635611b1a565b5b600061264484828501611b6d565b91505092915050565b7f455243313135353a2061646472657373207a65726f206973206e6f742061207660008201527f616c6964206f776e657200000000000000000000000000000000000000000000602082015250565b60006126a9602a83611d15565b91506126b48261264d565b604082019050919050565b600060208201905081810360008301526126d88161269c565b9050919050565b7f4e487b7100000000000000000000000000000000000000000000000000000000600052602260045260246000fd5b6000600282049050600182168061272657607f821691505b602082108103612739576127386126df565b5b50919050565b600081905092915050565b60008190508160005260206000209050919050565b6000815461276c8161270e565b612776818661273f565b9450600182166000811461279157600181146127a6576127d9565b60ff19831686528115158202860193506127d9565b6127af8561274a565b60005b838110156127d1578154818901526001820191506020810190506127b2565b838801955050505b50505092915050565b60006127ed82611d0a565b6127f7818561273f565b9350612807818560208601611d26565b80840191505092915050565b600061281f828561275f565b915061282b82846127e2565b91508190509392505050565b7f455243313135353a2063616c6c6572206973206e6f7420746f6b656e206f776e60008201527f6572206f7220617070726f766564000000000000000000000000000000000000602082015250565b6000612893602e83611d15565b915061289e82612837565b604082019050919050565b600060208201905081810360008301526128c281612886565b9050919050565b7f455243313135353a206163636f756e747320616e6420696473206c656e67746860008201527f206d69736d617463680000000000000000000000000000000000000000000000602082015250565b6000612925602983611d15565b9150612930826128c9565b604082019050919050565b6000602082019050818103600083015261295481612918565b9050919050565b7f4e487b7100000000000000000000000000000000000000000000000000000000600052603260045260246000fd5b7f4e487b7100000000000000000000000000000000000000000000000000000000600052601160045260246000fd5b60006129c482611b82565b91507fffffffffffffffffffffffffffffffffffffffffffffffffffffffffffffffff82036129f6576129f561298a565b5b600182019050919050565b7f496e697469616c697a61626c653a20636f6e747261637420697320616c72656160008201527f647920696e697469616c697a6564000000000000000000000000000000000000602082015250565b6000612a5d602e83611d15565b9150612a6882612a01565b604082019050919050565b60006020820190508181036000830152612a8c81612a50565b9050919050565b60006020601f8301049050919050565b600082821b905092915050565b600060088302612ae07fffffffffffffffffffffffffffffffffffffffffffffffffffffffffffffffff82612aa3565b612aea8683612aa3565b95508019841693508086168417925050509392505050565b6000819050919050565b6000612b27612b22612b1d84611b82565b612b02565b611b82565b9050919050565b6000819050919050565b612b4183612b0c565b612b55612b4d82612b2e565b848454612ab0565b825550505050565b600090565b612b6a612b5d565b612b75818484612b38565b505050565b5b81811015612b9957612b8e600082612b62565b600181019050612b7b565b5050565b601f821115612bde57612baf8161274a565b612bb884612a93565b81016020851015612bc7578190505b612bdb612bd385612a93565b830182612b7a565b50505b505050565b600082821c905092915050565b6000612c0160001984600802612be3565b1980831691505092915050565b6000612c1a8383612bf0565b9150826002028217905092915050565b612c3382611d0a565b67ffffffffffffffff811115612c4c57612c4b611dc1565b5b612c56825461270e565b612c61828285612b9d565b600060209050601f831160018114612c945760008415612c82578287015190505b612c8c8582612c0e565b865550612cf4565b601f198416612ca28661274a565b60005b82811015612cca57848901518255600182019150602085019450602081019050612ca5565b86831015612ce75784890151612ce3601f891682612bf0565b8355505b6001600288020188555050505b505050505050565b6000819050919050565b600060ff82169050919050565b6000612d2e612d29612d2484612cfc565b612b02565b612d06565b9050919050565b612d3e81612d13565b82525050565b6000602082019050612d596000830184612d35565b92915050565b600082905092915050565b612d748383612d5f565b67ffffffffffffffff811115612d8d57612d8c611dc1565b5b612d97825461270e565b612da2828285612b9d565b6000601f831160018114612dd15760008415612dbf578287013590505b612dc98582612c0e565b865550612e31565b601f198416612ddf8661274a565b60005b82811015612e0757848901358255600182019150602085019450602081019050612de2565b86831015612e245784890135612e20601f891682612bf0565b8355505b6001600288020188555050505b50505050505050565b7f4f776e61626c653a206e6577206f776e657220697320746865207a65726f206160008201527f6464726573730000000000000000000000000000000000000000000000000000602082015250565b6000612e96602683611d15565b9150612ea182612e3a565b604082019050919050565b60006020820190508181036000830152612ec581612e89565b9050919050565b7f455243313135353a2069647320616e6420616d6f756e7473206c656e6774682060008201527f6d69736d61746368000000000000000000000000000000000000000000000000602082015250565b6000612f28602883611d15565b9150612f3382612ecc565b604082019050919050565b60006020820190508181036000830152612f5781612f1b565b9050919050565b7f455243313135353a207472616e7366657220746f20746865207a65726f20616460008201527f6472657373000000000000000000000000000000000000000000000000000000602082015250565b6000612fba602583611d15565b9150612fc582612f5e565b604082019050919050565b60006020820190508181036000830152612fe981612fad565b9050919050565b7f455243313135353a20696e73756666696369656e742062616c616e636520666f60008201527f72207472616e7366657200000000000000000000000000000000000000000000602082015250565b600061304c602a83611d15565b915061305782612ff0565b604082019050919050565b6000602082019050818103600083015261307b8161303f565b9050919050565b600061308d82611b82565b915061309883611b82565b92508282019050808211156130b0576130af61298a565b5b92915050565b600060408201905081810360008301526130d08185612223565b905081810360208301526130e48184612223565b90509392505050565b7f4f776e61626c653a2063616c6c6572206973206e6f7420746865206f776e6572600082015250565b6000613123602083611d15565b915061312e826130ed565b602082019050919050565b6000602082019050818103600083015261315281613116565b9050919050565b7f496e697469616c697a61626c653a20636f6e7472616374206973206e6f74206960008201527f6e697469616c697a696e67000000000000000000000000000000000000000000602082015250565b60006131b5602b83611d15565b91506131c082613159565b604082019050919050565b600060208201905081810360008301526131e4816131a8565b9050919050565b7f455243313135353a2073657474696e6720617070726f76616c2073746174757360008201527f20666f722073656c660000000000000000000000000000000000000000000000602082015250565b6000613247602983611d15565b9150613252826131eb565b604082019050919050565b600060208201905081810360008301526132768161323a565b9050919050565b60006040820190506132926000830185611bf8565b61329f6020830184611bf8565b9392505050565b600081519050919050565b600082825260208201905092915050565b60006132cd826132a6565b6132d781856132b1565b93506132e7818560208601611d26565b6132f081611d50565b840191505092915050565b600060a082019050613310600083018861240b565b61331d602083018761240b565b818103604083015261332f8186612223565b905081810360608301526133438185612223565b9050818103608083015261335781846132c2565b90509695505050505050565b60008151905061337281611c4e565b92915050565b60006020828403121561338e5761338d611b1a565b5b600061339c84828501613363565b91505092915050565b60008160e01c9050919050565b600060033d11156133d15760046000803e6133ce6000516133a5565b90505b90565b600060443d10613461576133e6611b10565b60043d036004823e80513d602482011167ffffffffffffffff8211171561340e575050613461565b808201805167ffffffffffffffff81111561342c5750505050613461565b80602083010160043d038501811115613449575050505050613461565b61345882602001850186611df0565b82955050505050505b90565b7f455243313135353a207472616e7366657220746f206e6f6e2d4552433131353560008201527f526563656976657220696d706c656d656e746572000000000000000000000000602082015250565b60006134c0603483611d15565b91506134cb82613464565b604082019050919050565b600060208201905081810360008301526134ef816134b3565b9050919050565b7f455243313135353a204552433131353552656365697665722072656a6563746560008201527f6420746f6b656e73000000000000000000000000000000000000000000000000602082015250565b6000613552602883611d15565b915061355d826134f6565b604082019050919050565b6000602082019050818103600083015261358181613545565b9050919050565b600060a08201905061359d600083018861240b565b6135aa602083018761240b565b6135b76040830186611bf8565b6135c46060830185611bf8565b81810360808301526135d681846132c2565b9050969550505050505056fea264697066735822122035869bd14860d9ec105af19856c5c89ffde2ceea4ffa4d0290a9f4a8438690ff64736f6c63430008130033a2646970667358221220381a3a969fc6b805e2e680f762687db525fea234d8797186737ed3a09e901b5364736f6c63430008130033","opcodes":"PUSH1 0x80 PUSH1 0x40 MSTORE CALLVALUE DUP1 ISZERO PUSH2 0x10 JUMPI PUSH1 0x0 DUP1 REVERT JUMPDEST POP PUSH1 0x40 MLOAD PUSH3 0x428E CODESIZE SUB DUP1 PUSH3 0x428E DUP4 CODECOPY DUP2 DUP2 ADD PUSH1 0x40 MSTORE DUP2 ADD SWAP1 PUSH2 0x34 SWAP2 SWAP1 PUSH2 0x1C6 JUMP JUMPDEST PUSH2 0x50 PUSH2 0x45 PUSH2 0x97 PUSH1 0x20 SHL PUSH1 0x20 SHR JUMP JUMPDEST PUSH2 0x9F PUSH1 0x20 SHL PUSH1 0x20 SHR JUMP JUMPDEST DUP1 PUSH1 0x1 PUSH1 0x0 PUSH2 0x100 EXP DUP2 SLOAD DUP2 PUSH20 0xFFFFFFFFFFFFFFFFFFFFFFFFFFFFFFFFFFFFFFFF MUL NOT AND SWAP1 DUP4 PUSH20 0xFFFFFFFFFFFFFFFFFFFFFFFFFFFFFFFFFFFFFFFF AND MUL OR SWAP1 SSTORE POP POP PUSH2 0x1F3 JUMP JUMPDEST PUSH1 0x0 CALLER SWAP1 POP SWAP1 JUMP JUMPDEST PUSH1 0x0 DUP1 PUSH1 0x0 SWAP1 SLOAD SWAP1 PUSH2 0x100 EXP SWAP1 DIV PUSH20 0xFFFFFFFFFFFFFFFFFFFFFFFFFFFFFFFFFFFFFFFF AND SWAP1 POP DUP2 PUSH1 0x0 DUP1 PUSH2 0x100 EXP DUP2 SLOAD DUP2 PUSH20 0xFFFFFFFFFFFFFFFFFFFFFFFFFFFFFFFFFFFFFFFF MUL NOT AND SWAP1 DUP4 PUSH20 0xFFFFFFFFFFFFFFFFFFFFFFFFFFFFFFFFFFFFFFFF AND MUL OR SWAP1 SSTORE POP DUP2 PUSH20 0xFFFFFFFFFFFFFFFFFFFFFFFFFFFFFFFFFFFFFFFF AND DUP2 PUSH20 0xFFFFFFFFFFFFFFFFFFFFFFFFFFFFFFFFFFFFFFFF AND PUSH32 0x8BE0079C531659141344CD1FD0A4F28419497F9722A3DAAFE3B4186F6B6457E0 PUSH1 0x40 MLOAD PUSH1 0x40 MLOAD DUP1 SWAP2 SUB SWAP1 LOG3 POP POP JUMP JUMPDEST PUSH1 0x0 DUP1 REVERT JUMPDEST PUSH1 0x0 PUSH20 0xFFFFFFFFFFFFFFFFFFFFFFFFFFFFFFFFFFFFFFFF DUP3 AND SWAP1 POP SWAP2 SWAP1 POP JUMP JUMPDEST PUSH1 0x0 PUSH2 0x193 DUP3 PUSH2 0x168 JUMP JUMPDEST SWAP1 POP SWAP2 SWAP1 POP JUMP JUMPDEST PUSH2 0x1A3 DUP2 PUSH2 0x188 JUMP JUMPDEST DUP2 EQ PUSH2 0x1AE JUMPI PUSH1 0x0 DUP1 REVERT JUMPDEST POP JUMP JUMPDEST PUSH1 0x0 DUP2 MLOAD SWAP1 POP PUSH2 0x1C0 DUP2 PUSH2 0x19A JUMP JUMPDEST SWAP3 SWAP2 POP POP JUMP JUMPDEST PUSH1 0x0 PUSH1 0x20 DUP3 DUP5 SUB SLT ISZERO PUSH2 0x1DC JUMPI PUSH2 0x1DB PUSH2 0x163 JUMP JUMPDEST JUMPDEST PUSH1 0x0 PUSH2 0x1EA DUP5 DUP3 DUP6 ADD PUSH2 0x1B1 JUMP JUMPDEST SWAP2 POP POP SWAP3 SWAP2 POP POP JUMP JUMPDEST PUSH2 0x408B DUP1 PUSH3 0x203 PUSH1 0x0 CODECOPY PUSH1 0x0 RETURN INVALID PUSH1 0x80 PUSH1 0x40 MSTORE CALLVALUE DUP1 ISZERO PUSH2 0x10 JUMPI PUSH1 0x0 DUP1 REVERT JUMPDEST POP PUSH1 0x4 CALLDATASIZE LT PUSH2 0x57 JUMPI PUSH1 0x0 CALLDATALOAD PUSH1 0xE0 SHR DUP1 PUSH4 0x64D54151 EQ PUSH2 0x5C JUMPI DUP1 PUSH4 0x715018A6 EQ PUSH2 0x8C JUMPI DUP1 PUSH4 0x8DA5CB5B EQ PUSH2 0x96 JUMPI DUP1 PUSH4 0xE064E2D9 EQ PUSH2 0xB4 JUMPI DUP1 PUSH4 0xF2FDE38B EQ PUSH2 0xD2 JUMPI JUMPDEST PUSH1 0x0 DUP1 REVERT JUMPDEST PUSH2 0x76 PUSH1 0x4 DUP1 CALLDATASIZE SUB DUP2 ADD SWAP1 PUSH2 0x71 SWAP2 SWAP1 PUSH2 0x694 JUMP JUMPDEST PUSH2 0xEE JUMP JUMPDEST PUSH1 0x40 MLOAD PUSH2 0x83 SWAP2 SWAP1 PUSH2 0x731 JUMP JUMPDEST PUSH1 0x40 MLOAD DUP1 SWAP2 SUB SWAP1 RETURN JUMPDEST PUSH2 0x94 PUSH2 0x25D JUMP JUMPDEST STOP JUMPDEST PUSH2 0x9E PUSH2 0x2E5 JUMP JUMPDEST PUSH1 0x40 MLOAD PUSH2 0xAB SWAP2 SWAP1 PUSH2 0x731 JUMP JUMPDEST PUSH1 0x40 MLOAD DUP1 SWAP2 SUB SWAP1 RETURN JUMPDEST PUSH2 0xBC PUSH2 0x30E JUMP JUMPDEST PUSH1 0x40 MLOAD PUSH2 0xC9 SWAP2 SWAP1 PUSH2 0x731 JUMP JUMPDEST PUSH1 0x40 MLOAD DUP1 SWAP2 SUB SWAP1 RETURN JUMPDEST PUSH2 0xEC PUSH1 0x4 DUP1 CALLDATASIZE SUB DUP2 ADD SWAP1 PUSH2 0xE7 SWAP2 SWAP1 PUSH2 0x778 JUMP JUMPDEST PUSH2 0x334 JUMP JUMPDEST STOP JUMPDEST PUSH1 0x0 DUP1 PUSH1 0x40 MLOAD PUSH2 0xFD SWAP1 PUSH2 0x4F7 JUMP JUMPDEST PUSH1 0x40 MLOAD DUP1 SWAP2 SUB SWAP1 PUSH1 0x0 CREATE DUP1 ISZERO DUP1 ISZERO PUSH2 0x119 JUMPI RETURNDATASIZE PUSH1 0x0 DUP1 RETURNDATACOPY RETURNDATASIZE PUSH1 0x0 REVERT JUMPDEST POP SWAP1 POP DUP1 PUSH20 0xFFFFFFFFFFFFFFFFFFFFFFFFFFFFFFFFFFFFFFFF AND PUSH4 0x7AB4339D DUP6 CALLER PUSH1 0x40 MLOAD DUP4 PUSH4 0xFFFFFFFF AND PUSH1 0xE0 SHL DUP2 MSTORE PUSH1 0x4 ADD PUSH2 0x157 SWAP3 SWAP2 SWAP1 PUSH2 0x824 JUMP JUMPDEST PUSH1 0x0 PUSH1 0x40 MLOAD DUP1 DUP4 SUB DUP2 PUSH1 0x0 DUP8 DUP1 EXTCODESIZE ISZERO DUP1 ISZERO PUSH2 0x171 JUMPI PUSH1 0x0 DUP1 REVERT JUMPDEST POP GAS CALL ISZERO DUP1 ISZERO PUSH2 0x185 JUMPI RETURNDATASIZE PUSH1 0x0 DUP1 RETURNDATACOPY RETURNDATASIZE PUSH1 0x0 REVERT JUMPDEST POP POP POP POP PUSH1 0x1 PUSH1 0x0 SWAP1 SLOAD SWAP1 PUSH2 0x100 EXP SWAP1 DIV PUSH20 0xFFFFFFFFFFFFFFFFFFFFFFFFFFFFFFFFFFFFFFFF AND PUSH20 0xFFFFFFFFFFFFFFFFFFFFFFFFFFFFFFFFFFFFFFFF AND PUSH4 0x240BC112 DUP6 DUP4 DUP7 CALLER PUSH1 0x40 MLOAD DUP6 PUSH4 0xFFFFFFFF AND PUSH1 0xE0 SHL DUP2 MSTORE PUSH1 0x4 ADD PUSH2 0x1EA SWAP5 SWAP4 SWAP3 SWAP2 SWAP1 PUSH2 0x8C0 JUMP JUMPDEST PUSH1 0x0 PUSH1 0x40 MLOAD DUP1 DUP4 SUB DUP2 PUSH1 0x0 DUP8 DUP1 EXTCODESIZE ISZERO DUP1 ISZERO PUSH2 0x204 JUMPI PUSH1 0x0 DUP1 REVERT JUMPDEST POP GAS CALL ISZERO DUP1 ISZERO PUSH2 0x218 JUMPI RETURNDATASIZE PUSH1 0x0 DUP1 RETURNDATACOPY RETURNDATASIZE PUSH1 0x0 REVERT JUMPDEST POP POP POP POP PUSH32 0x75432E2E509EFCAF947EFCC7A5A6B6B3562425B29E9725C7A4A5C652291AC35D DUP2 PUSH1 0x40 MLOAD PUSH2 0x24B SWAP2 SWAP1 PUSH2 0x731 JUMP JUMPDEST PUSH1 0x40 MLOAD DUP1 SWAP2 SUB SWAP1 LOG1 DUP1 SWAP2 POP POP SWAP3 SWAP2 POP POP JUMP JUMPDEST PUSH2 0x265 PUSH2 0x42B JUMP JUMPDEST PUSH20 0xFFFFFFFFFFFFFFFFFFFFFFFFFFFFFFFFFFFFFFFF AND PUSH2 0x283 PUSH2 0x2E5 JUMP JUMPDEST PUSH20 0xFFFFFFFFFFFFFFFFFFFFFFFFFFFFFFFFFFFFFFFF AND EQ PUSH2 0x2D9 JUMPI PUSH1 0x40 MLOAD PUSH32 0x8C379A000000000000000000000000000000000000000000000000000000000 DUP2 MSTORE PUSH1 0x4 ADD PUSH2 0x2D0 SWAP1 PUSH2 0x96B JUMP JUMPDEST PUSH1 0x40 MLOAD DUP1 SWAP2 SUB SWAP1 REVERT JUMPDEST PUSH2 0x2E3 PUSH1 0x0 PUSH2 0x433 JUMP JUMPDEST JUMP JUMPDEST PUSH1 0x0 DUP1 PUSH1 0x0 SWAP1 SLOAD SWAP1 PUSH2 0x100 EXP SWAP1 DIV PUSH20 0xFFFFFFFFFFFFFFFFFFFFFFFFFFFFFFFFFFFFFFFF AND SWAP1 POP SWAP1 JUMP JUMPDEST PUSH1 0x1 PUSH1 0x0 SWAP1 SLOAD SWAP1 PUSH2 0x100 EXP SWAP1 DIV PUSH20 0xFFFFFFFFFFFFFFFFFFFFFFFFFFFFFFFFFFFFFFFF AND DUP2 JUMP JUMPDEST PUSH2 0x33C PUSH2 0x42B JUMP JUMPDEST PUSH20 0xFFFFFFFFFFFFFFFFFFFFFFFFFFFFFFFFFFFFFFFF AND PUSH2 0x35A PUSH2 0x2E5 JUMP JUMPDEST PUSH20 0xFFFFFFFFFFFFFFFFFFFFFFFFFFFFFFFFFFFFFFFF AND EQ PUSH2 0x3B0 JUMPI PUSH1 0x40 MLOAD PUSH32 0x8C379A000000000000000000000000000000000000000000000000000000000 DUP2 MSTORE PUSH1 0x4 ADD PUSH2 0x3A7 SWAP1 PUSH2 0x96B JUMP JUMPDEST PUSH1 0x40 MLOAD DUP1 SWAP2 SUB SWAP1 REVERT JUMPDEST PUSH1 0x0 PUSH20 0xFFFFFFFFFFFFFFFFFFFFFFFFFFFFFFFFFFFFFFFF AND DUP2 PUSH20 0xFFFFFFFFFFFFFFFFFFFFFFFFFFFFFFFFFFFFFFFF AND SUB PUSH2 0x41F JUMPI PUSH1 0x40 MLOAD PUSH32 0x8C379A000000000000000000000000000000000000000000000000000000000 DUP2 MSTORE PUSH1 0x4 ADD PUSH2 0x416 SWAP1 PUSH2 0x9FD JUMP JUMPDEST PUSH1 0x40 MLOAD DUP1 SWAP2 SUB SWAP1 REVERT JUMPDEST PUSH2 0x428 DUP2 PUSH2 0x433 JUMP JUMPDEST POP JUMP JUMPDEST PUSH1 0x0 CALLER SWAP1 POP SWAP1 JUMP JUMPDEST PUSH1 0x0 DUP1 PUSH1 0x0 SWAP1 SLOAD SWAP1 PUSH2 0x100 EXP SWAP1 DIV PUSH20 0xFFFFFFFFFFFFFFFFFFFFFFFFFFFFFFFFFFFFFFFF AND SWAP1 POP DUP2 PUSH1 0x0 DUP1 PUSH2 0x100 EXP DUP2 SLOAD DUP2 PUSH20 0xFFFFFFFFFFFFFFFFFFFFFFFFFFFFFFFFFFFFFFFF MUL NOT AND SWAP1 DUP4 PUSH20 0xFFFFFFFFFFFFFFFFFFFFFFFFFFFFFFFFFFFFFFFF AND MUL OR SWAP1 SSTORE POP DUP2 PUSH20 0xFFFFFFFFFFFFFFFFFFFFFFFFFFFFFFFFFFFFFFFF AND DUP2 PUSH20 0xFFFFFFFFFFFFFFFFFFFFFFFFFFFFFFFFFFFFFFFF AND PUSH32 0x8BE0079C531659141344CD1FD0A4F28419497F9722A3DAAFE3B4186F6B6457E0 PUSH1 0x40 MLOAD PUSH1 0x40 MLOAD DUP1 SWAP2 SUB SWAP1 LOG3 POP POP JUMP JUMPDEST PUSH2 0x3638 DUP1 PUSH2 0xA1E DUP4 CODECOPY ADD SWAP1 JUMP JUMPDEST PUSH1 0x0 PUSH1 0x40 MLOAD SWAP1 POP SWAP1 JUMP JUMPDEST PUSH1 0x0 DUP1 REVERT JUMPDEST PUSH1 0x0 DUP1 REVERT JUMPDEST PUSH1 0x0 DUP1 REVERT JUMPDEST PUSH1 0x0 DUP1 REVERT JUMPDEST PUSH1 0x0 PUSH1 0x1F NOT PUSH1 0x1F DUP4 ADD AND SWAP1 POP SWAP2 SWAP1 POP JUMP JUMPDEST PUSH32 0x4E487B7100000000000000000000000000000000000000000000000000000000 PUSH1 0x0 MSTORE PUSH1 0x41 PUSH1 0x4 MSTORE PUSH1 0x24 PUSH1 0x0 REVERT JUMPDEST PUSH2 0x56B DUP3 PUSH2 0x522 JUMP JUMPDEST DUP2 ADD DUP2 DUP2 LT PUSH8 0xFFFFFFFFFFFFFFFF DUP3 GT OR ISZERO PUSH2 0x58A JUMPI PUSH2 0x589 PUSH2 0x533 JUMP JUMPDEST JUMPDEST DUP1 PUSH1 0x40 MSTORE POP POP POP JUMP JUMPDEST PUSH1 0x0 PUSH2 0x59D PUSH2 0x504 JUMP JUMPDEST SWAP1 POP PUSH2 0x5A9 DUP3 DUP3 PUSH2 0x562 JUMP JUMPDEST SWAP2 SWAP1 POP JUMP JUMPDEST PUSH1 0x0 PUSH8 0xFFFFFFFFFFFFFFFF DUP3 GT ISZERO PUSH2 0x5C9 JUMPI PUSH2 0x5C8 PUSH2 0x533 JUMP JUMPDEST JUMPDEST PUSH2 0x5D2 DUP3 PUSH2 0x522 JUMP JUMPDEST SWAP1 POP PUSH1 0x20 DUP2 ADD SWAP1 POP SWAP2 SWAP1 POP JUMP JUMPDEST DUP3 DUP2 DUP4 CALLDATACOPY PUSH1 0x0 DUP4 DUP4 ADD MSTORE POP POP POP JUMP JUMPDEST PUSH1 0x0 PUSH2 0x601 PUSH2 0x5FC DUP5 PUSH2 0x5AE JUMP JUMPDEST PUSH2 0x593 JUMP JUMPDEST SWAP1 POP DUP3 DUP2 MSTORE PUSH1 0x20 DUP2 ADD DUP5 DUP5 DUP5 ADD GT ISZERO PUSH2 0x61D JUMPI PUSH2 0x61C PUSH2 0x51D JUMP JUMPDEST JUMPDEST PUSH2 0x628 DUP5 DUP3 DUP6 PUSH2 0x5DF JUMP JUMPDEST POP SWAP4 SWAP3 POP POP POP JUMP JUMPDEST PUSH1 0x0 DUP3 PUSH1 0x1F DUP4 ADD SLT PUSH2 0x645 JUMPI PUSH2 0x644 PUSH2 0x518 JUMP JUMPDEST JUMPDEST DUP2 CALLDATALOAD PUSH2 0x655 DUP5 DUP3 PUSH1 0x20 DUP7 ADD PUSH2 0x5EE JUMP JUMPDEST SWAP2 POP POP SWAP3 SWAP2 POP POP JUMP JUMPDEST PUSH1 0x0 DUP2 SWAP1 POP SWAP2 SWAP1 POP JUMP JUMPDEST PUSH2 0x671 DUP2 PUSH2 0x65E JUMP JUMPDEST DUP2 EQ PUSH2 0x67C JUMPI PUSH1 0x0 DUP1 REVERT JUMPDEST POP JUMP JUMPDEST PUSH1 0x0 DUP2 CALLDATALOAD SWAP1 POP PUSH2 0x68E DUP2 PUSH2 0x668 JUMP JUMPDEST SWAP3 SWAP2 POP POP JUMP JUMPDEST PUSH1 0x0 DUP1 PUSH1 0x40 DUP4 DUP6 SUB SLT ISZERO PUSH2 0x6AB JUMPI PUSH2 0x6AA PUSH2 0x50E JUMP JUMPDEST JUMPDEST PUSH1 0x0 DUP4 ADD CALLDATALOAD PUSH8 0xFFFFFFFFFFFFFFFF DUP2 GT ISZERO PUSH2 0x6C9 JUMPI PUSH2 0x6C8 PUSH2 0x513 JUMP JUMPDEST JUMPDEST PUSH2 0x6D5 DUP6 DUP3 DUP7 ADD PUSH2 0x630 JUMP JUMPDEST SWAP3 POP POP PUSH1 0x20 PUSH2 0x6E6 DUP6 DUP3 DUP7 ADD PUSH2 0x67F JUMP JUMPDEST SWAP2 POP POP SWAP3 POP SWAP3 SWAP1 POP JUMP JUMPDEST PUSH1 0x0 PUSH20 0xFFFFFFFFFFFFFFFFFFFFFFFFFFFFFFFFFFFFFFFF DUP3 AND SWAP1 POP SWAP2 SWAP1 POP JUMP JUMPDEST PUSH1 0x0 PUSH2 0x71B DUP3 PUSH2 0x6F0 JUMP JUMPDEST SWAP1 POP SWAP2 SWAP1 POP JUMP JUMPDEST PUSH2 0x72B DUP2 PUSH2 0x710 JUMP JUMPDEST DUP3 MSTORE POP POP JUMP JUMPDEST PUSH1 0x0 PUSH1 0x20 DUP3 ADD SWAP1 POP PUSH2 0x746 PUSH1 0x0 DUP4 ADD DUP5 PUSH2 0x722 JUMP JUMPDEST SWAP3 SWAP2 POP POP JUMP JUMPDEST PUSH2 0x755 DUP2 PUSH2 0x710 JUMP JUMPDEST DUP2 EQ PUSH2 0x760 JUMPI PUSH1 0x0 DUP1 REVERT JUMPDEST POP JUMP JUMPDEST PUSH1 0x0 DUP2 CALLDATALOAD SWAP1 POP PUSH2 0x772 DUP2 PUSH2 0x74C JUMP JUMPDEST SWAP3 SWAP2 POP POP JUMP JUMPDEST PUSH1 0x0 PUSH1 0x20 DUP3 DUP5 SUB SLT ISZERO PUSH2 0x78E JUMPI PUSH2 0x78D PUSH2 0x50E JUMP JUMPDEST JUMPDEST PUSH1 0x0 PUSH2 0x79C DUP5 DUP3 DUP6 ADD PUSH2 0x763 JUMP JUMPDEST SWAP2 POP POP SWAP3 SWAP2 POP POP JUMP JUMPDEST PUSH1 0x0 DUP2 MLOAD SWAP1 POP SWAP2 SWAP1 POP JUMP JUMPDEST PUSH1 0x0 DUP3 DUP3 MSTORE PUSH1 0x20 DUP3 ADD SWAP1 POP SWAP3 SWAP2 POP POP JUMP JUMPDEST PUSH1 0x0 JUMPDEST DUP4 DUP2 LT ISZERO PUSH2 0x7DF JUMPI DUP1 DUP3 ADD MLOAD DUP2 DUP5 ADD MSTORE PUSH1 0x20 DUP2 ADD SWAP1 POP PUSH2 0x7C4 JUMP JUMPDEST PUSH1 0x0 DUP5 DUP5 ADD MSTORE POP POP POP POP JUMP JUMPDEST PUSH1 0x0 PUSH2 0x7F6 DUP3 PUSH2 0x7A5 JUMP JUMPDEST PUSH2 0x800 DUP2 DUP6 PUSH2 0x7B0 JUMP JUMPDEST SWAP4 POP PUSH2 0x810 DUP2 DUP6 PUSH1 0x20 DUP7 ADD PUSH2 0x7C1 JUMP JUMPDEST PUSH2 0x819 DUP2 PUSH2 0x522 JUMP JUMPDEST DUP5 ADD SWAP2 POP POP SWAP3 SWAP2 POP POP JUMP JUMPDEST PUSH1 0x0 PUSH1 0x40 DUP3 ADD SWAP1 POP DUP2 DUP2 SUB PUSH1 0x0 DUP4 ADD MSTORE PUSH2 0x83E DUP2 DUP6 PUSH2 0x7EB JUMP JUMPDEST SWAP1 POP PUSH2 0x84D PUSH1 0x20 DUP4 ADD DUP5 PUSH2 0x722 JUMP JUMPDEST SWAP4 SWAP3 POP POP POP JUMP JUMPDEST PUSH1 0x0 DUP3 DUP3 MSTORE PUSH1 0x20 DUP3 ADD SWAP1 POP SWAP3 SWAP2 POP POP JUMP JUMPDEST PUSH32 0x3078000000000000000000000000000000000000000000000000000000000000 PUSH1 0x0 DUP3 ADD MSTORE POP JUMP JUMPDEST PUSH1 0x0 PUSH2 0x89B PUSH1 0x2 DUP4 PUSH2 0x854 JUMP JUMPDEST SWAP2 POP PUSH2 0x8A6 DUP3 PUSH2 0x865 JUMP JUMPDEST PUSH1 0x20 DUP3 ADD SWAP1 POP SWAP2 SWAP1 POP JUMP JUMPDEST PUSH2 0x8BA DUP2 PUSH2 0x65E JUMP JUMPDEST DUP3 MSTORE POP POP JUMP JUMPDEST PUSH1 0x0 PUSH1 0xA0 DUP3 ADD SWAP1 POP DUP2 DUP2 SUB PUSH1 0x0 DUP4 ADD MSTORE PUSH2 0x8D9 DUP2 PUSH2 0x88E JUMP JUMPDEST SWAP1 POP DUP2 DUP2 SUB PUSH1 0x20 DUP4 ADD MSTORE PUSH2 0x8ED DUP2 DUP8 PUSH2 0x7EB JUMP JUMPDEST SWAP1 POP PUSH2 0x8FC PUSH1 0x40 DUP4 ADD DUP7 PUSH2 0x722 JUMP JUMPDEST PUSH2 0x909 PUSH1 0x60 DUP4 ADD DUP6 PUSH2 0x8B1 JUMP JUMPDEST PUSH2 0x916 PUSH1 0x80 DUP4 ADD DUP5 PUSH2 0x722 JUMP JUMPDEST SWAP6 SWAP5 POP POP POP POP POP JUMP JUMPDEST PUSH32 0x4F776E61626C653A2063616C6C6572206973206E6F7420746865206F776E6572 PUSH1 0x0 DUP3 ADD MSTORE POP JUMP JUMPDEST PUSH1 0x0 PUSH2 0x955 PUSH1 0x20 DUP4 PUSH2 0x7B0 JUMP JUMPDEST SWAP2 POP PUSH2 0x960 DUP3 PUSH2 0x91F JUMP JUMPDEST PUSH1 0x20 DUP3 ADD SWAP1 POP SWAP2 SWAP1 POP JUMP JUMPDEST PUSH1 0x0 PUSH1 0x20 DUP3 ADD SWAP1 POP DUP2 DUP2 SUB PUSH1 0x0 DUP4 ADD MSTORE PUSH2 0x984 DUP2 PUSH2 0x948 JUMP JUMPDEST SWAP1 POP SWAP2 SWAP1 POP JUMP JUMPDEST PUSH32 0x4F776E61626C653A206E6577206F776E657220697320746865207A65726F2061 PUSH1 0x0 DUP3 ADD MSTORE PUSH32 0x6464726573730000000000000000000000000000000000000000000000000000 PUSH1 0x20 DUP3 ADD MSTORE POP JUMP JUMPDEST PUSH1 0x0 PUSH2 0x9E7 PUSH1 0x26 DUP4 PUSH2 0x7B0 JUMP JUMPDEST SWAP2 POP PUSH2 0x9F2 DUP3 PUSH2 0x98B JUMP JUMPDEST PUSH1 0x40 DUP3 ADD SWAP1 POP SWAP2 SWAP1 POP JUMP JUMPDEST PUSH1 0x0 PUSH1 0x20 DUP3 ADD SWAP1 POP DUP2 DUP2 SUB PUSH1 0x0 DUP4 ADD MSTORE PUSH2 0xA16 DUP2 PUSH2 0x9DA JUMP JUMPDEST SWAP1 POP SWAP2 SWAP1 POP JUMP INVALID PUSH1 0x80 PUSH1 0x40 MSTORE CALLVALUE DUP1 ISZERO PUSH2 0x10 JUMPI PUSH1 0x0 DUP1 REVERT JUMPDEST POP PUSH2 0x3618 DUP1 PUSH2 0x20 PUSH1 0x0 CODECOPY PUSH1 0x0 RETURN INVALID PUSH1 0x80 PUSH1 0x40 MSTORE CALLVALUE DUP1 ISZERO PUSH2 0x10 JUMPI PUSH1 0x0 DUP1 REVERT JUMPDEST POP PUSH1 0x4 CALLDATASIZE LT PUSH2 0xF4 JUMPI PUSH1 0x0 CALLDATALOAD PUSH1 0xE0 SHR DUP1 PUSH4 0x7AB4339D GT PUSH2 0x97 JUMPI DUP1 PUSH4 0xE985E9C5 GT PUSH2 0x66 JUMPI DUP1 PUSH4 0xE985E9C5 EQ PUSH2 0x26F JUMPI DUP1 PUSH4 0xEBC349EE EQ PUSH2 0x29F JUMPI DUP1 PUSH4 0xF242432A EQ PUSH2 0x2BB JUMPI DUP1 PUSH4 0xF2FDE38B EQ PUSH2 0x2D7 JUMPI PUSH2 0xF4 JUMP JUMPDEST DUP1 PUSH4 0x7AB4339D EQ PUSH2 0x1FB JUMPI DUP1 PUSH4 0x8DA5CB5B EQ PUSH2 0x217 JUMPI DUP1 PUSH4 0x90513068 EQ PUSH2 0x235 JUMPI DUP1 PUSH4 0xA22CB465 EQ PUSH2 0x253 JUMPI PUSH2 0xF4 JUMP JUMPDEST DUP1 PUSH4 0x2EB2C2D6 GT PUSH2 0xD3 JUMPI DUP1 PUSH4 0x2EB2C2D6 EQ PUSH2 0x189 JUMPI DUP1 PUSH4 0x4E1273F4 EQ PUSH2 0x1A5 JUMPI DUP1 PUSH4 0x51CFF8D9 EQ PUSH2 0x1D5 JUMPI DUP1 PUSH4 0x715018A6 EQ PUSH2 0x1F1 JUMPI PUSH2 0xF4 JUMP JUMPDEST DUP1 PUSH3 0xFDD58E EQ PUSH2 0xF9 JUMPI DUP1 PUSH4 0x1FFC9A7 EQ PUSH2 0x129 JUMPI DUP1 PUSH4 0xE89341C EQ PUSH2 0x159 JUMPI JUMPDEST PUSH1 0x0 DUP1 REVERT JUMPDEST PUSH2 0x113 PUSH1 0x4 DUP1 CALLDATASIZE SUB DUP2 ADD SWAP1 PUSH2 0x10E SWAP2 SWAP1 PUSH2 0x1BB8 JUMP JUMPDEST PUSH2 0x2F3 JUMP JUMPDEST PUSH1 0x40 MLOAD PUSH2 0x120 SWAP2 SWAP1 PUSH2 0x1C07 JUMP JUMPDEST PUSH1 0x40 MLOAD DUP1 SWAP2 SUB SWAP1 RETURN JUMPDEST PUSH2 0x143 PUSH1 0x4 DUP1 CALLDATASIZE SUB DUP2 ADD SWAP1 PUSH2 0x13E SWAP2 SWAP1 PUSH2 0x1C7A JUMP JUMPDEST PUSH2 0x3BC JUMP JUMPDEST PUSH1 0x40 MLOAD PUSH2 0x150 SWAP2 SWAP1 PUSH2 0x1CC2 JUMP JUMPDEST PUSH1 0x40 MLOAD DUP1 SWAP2 SUB SWAP1 RETURN JUMPDEST PUSH2 0x173 PUSH1 0x4 DUP1 CALLDATASIZE SUB DUP2 ADD SWAP1 PUSH2 0x16E SWAP2 SWAP1 PUSH2 0x1CDD JUMP JUMPDEST PUSH2 0x3CE JUMP JUMPDEST PUSH1 0x40 MLOAD PUSH2 0x180 SWAP2 SWAP1 PUSH2 0x1D9A JUMP JUMPDEST PUSH1 0x40 MLOAD DUP1 SWAP2 SUB SWAP1 RETURN JUMPDEST PUSH2 0x1A3 PUSH1 0x4 DUP1 CALLDATASIZE SUB DUP2 ADD SWAP1 PUSH2 0x19E SWAP2 SWAP1 PUSH2 0x1FB9 JUMP JUMPDEST PUSH2 0x4B3 JUMP JUMPDEST STOP JUMPDEST PUSH2 0x1BF PUSH1 0x4 DUP1 CALLDATASIZE SUB DUP2 ADD SWAP1 PUSH2 0x1BA SWAP2 SWAP1 PUSH2 0x214B JUMP JUMPDEST PUSH2 0x554 JUMP JUMPDEST PUSH1 0x40 MLOAD PUSH2 0x1CC SWAP2 SWAP1 PUSH2 0x2281 JUMP JUMPDEST PUSH1 0x40 MLOAD DUP1 SWAP2 SUB SWAP1 RETURN JUMPDEST PUSH2 0x1EF PUSH1 0x4 DUP1 CALLDATASIZE SUB DUP2 ADD SWAP1 PUSH2 0x1EA SWAP2 SWAP1 PUSH2 0x22E1 JUMP JUMPDEST PUSH2 0x66D JUMP JUMPDEST STOP JUMPDEST PUSH2 0x1F9 PUSH2 0x6B7 JUMP JUMPDEST STOP JUMPDEST PUSH2 0x215 PUSH1 0x4 DUP1 CALLDATASIZE SUB DUP2 ADD SWAP1 PUSH2 0x210 SWAP2 SWAP1 PUSH2 0x23AF JUMP JUMPDEST PUSH2 0x6CB JUMP JUMPDEST STOP JUMPDEST PUSH2 0x21F PUSH2 0x83C JUMP JUMPDEST PUSH1 0x40 MLOAD PUSH2 0x22C SWAP2 SWAP1 PUSH2 0x241A JUMP JUMPDEST PUSH1 0x40 MLOAD DUP1 SWAP2 SUB SWAP1 RETURN JUMPDEST PUSH2 0x23D PUSH2 0x866 JUMP JUMPDEST PUSH1 0x40 MLOAD PUSH2 0x24A SWAP2 SWAP1 PUSH2 0x1D9A JUMP JUMPDEST PUSH1 0x40 MLOAD DUP1 SWAP2 SUB SWAP1 RETURN JUMPDEST PUSH2 0x26D PUSH1 0x4 DUP1 CALLDATASIZE SUB DUP2 ADD SWAP1 PUSH2 0x268 SWAP2 SWAP1 PUSH2 0x2461 JUMP JUMPDEST PUSH2 0x8F4 JUMP JUMPDEST STOP JUMPDEST PUSH2 0x289 PUSH1 0x4 DUP1 CALLDATASIZE SUB DUP2 ADD SWAP1 PUSH2 0x284 SWAP2 SWAP1 PUSH2 0x24A1 JUMP JUMPDEST PUSH2 0x90A JUMP JUMPDEST PUSH1 0x40 MLOAD PUSH2 0x296 SWAP2 SWAP1 PUSH2 0x1CC2 JUMP JUMPDEST PUSH1 0x40 MLOAD DUP1 SWAP2 SUB SWAP1 RETURN JUMPDEST PUSH2 0x2B9 PUSH1 0x4 DUP1 CALLDATASIZE SUB DUP2 ADD SWAP1 PUSH2 0x2B4 SWAP2 SWAP1 PUSH2 0x253C JUMP JUMPDEST PUSH2 0x99E JUMP JUMPDEST STOP JUMPDEST PUSH2 0x2D5 PUSH1 0x4 DUP1 CALLDATASIZE SUB DUP2 ADD SWAP1 PUSH2 0x2D0 SWAP2 SWAP1 PUSH2 0x2589 JUMP JUMPDEST PUSH2 0x9B4 JUMP JUMPDEST STOP JUMPDEST PUSH2 0x2F1 PUSH1 0x4 DUP1 CALLDATASIZE SUB DUP2 ADD SWAP1 PUSH2 0x2EC SWAP2 SWAP1 PUSH2 0x2620 JUMP JUMPDEST PUSH2 0xA55 JUMP JUMPDEST STOP JUMPDEST PUSH1 0x0 DUP1 PUSH20 0xFFFFFFFFFFFFFFFFFFFFFFFFFFFFFFFFFFFFFFFF AND DUP4 PUSH20 0xFFFFFFFFFFFFFFFFFFFFFFFFFFFFFFFFFFFFFFFF AND SUB PUSH2 0x363 JUMPI PUSH1 0x40 MLOAD PUSH32 0x8C379A000000000000000000000000000000000000000000000000000000000 DUP2 MSTORE PUSH1 0x4 ADD PUSH2 0x35A SWAP1 PUSH2 0x26BF JUMP JUMPDEST PUSH1 0x40 MLOAD DUP1 SWAP2 SUB SWAP1 REVERT JUMPDEST PUSH1 0x65 PUSH1 0x0 DUP4 DUP2 MSTORE PUSH1 0x20 ADD SWAP1 DUP2 MSTORE PUSH1 0x20 ADD PUSH1 0x0 KECCAK256 PUSH1 0x0 DUP5 PUSH20 0xFFFFFFFFFFFFFFFFFFFFFFFFFFFFFFFFFFFFFFFF AND PUSH20 0xFFFFFFFFFFFFFFFFFFFFFFFFFFFFFFFFFFFFFFFF AND DUP2 MSTORE PUSH1 0x20 ADD SWAP1 DUP2 MSTORE PUSH1 0x20 ADD PUSH1 0x0 KECCAK256 SLOAD SWAP1 POP SWAP3 SWAP2 POP POP JUMP JUMPDEST PUSH1 0x0 PUSH2 0x3C7 DUP3 PUSH2 0xAD8 JUMP JUMPDEST SWAP1 POP SWAP2 SWAP1 POP JUMP JUMPDEST PUSH1 0x60 PUSH1 0x0 PUSH1 0x98 PUSH1 0x0 DUP5 DUP2 MSTORE PUSH1 0x20 ADD SWAP1 DUP2 MSTORE PUSH1 0x20 ADD PUSH1 0x0 KECCAK256 DUP1 SLOAD PUSH2 0x3F0 SWAP1 PUSH2 0x270E JUMP JUMPDEST DUP1 PUSH1 0x1F ADD PUSH1 0x20 DUP1 SWAP2 DIV MUL PUSH1 0x20 ADD PUSH1 0x40 MLOAD SWAP1 DUP2 ADD PUSH1 0x40 MSTORE DUP1 SWAP3 SWAP2 SWAP1 DUP2 DUP2 MSTORE PUSH1 0x20 ADD DUP3 DUP1 SLOAD PUSH2 0x41C SWAP1 PUSH2 0x270E JUMP JUMPDEST DUP1 ISZERO PUSH2 0x469 JUMPI DUP1 PUSH1 0x1F LT PUSH2 0x43E JUMPI PUSH2 0x100 DUP1 DUP4 SLOAD DIV MUL DUP4 MSTORE SWAP2 PUSH1 0x20 ADD SWAP2 PUSH2 0x469 JUMP JUMPDEST DUP3 ADD SWAP2 SWAP1 PUSH1 0x0 MSTORE PUSH1 0x20 PUSH1 0x0 KECCAK256 SWAP1 JUMPDEST DUP2 SLOAD DUP2 MSTORE SWAP1 PUSH1 0x1 ADD SWAP1 PUSH1 0x20 ADD DUP1 DUP4 GT PUSH2 0x44C JUMPI DUP3 SWAP1 SUB PUSH1 0x1F AND DUP3 ADD SWAP2 JUMPDEST POP POP POP POP POP SWAP1 POP PUSH1 0x0 DUP2 MLOAD GT PUSH2 0x487 JUMPI PUSH2 0x482 DUP4 PUSH2 0xBBA JUMP JUMPDEST PUSH2 0x4AB JUMP JUMPDEST PUSH1 0x97 DUP2 PUSH1 0x40 MLOAD PUSH1 0x20 ADD PUSH2 0x49B SWAP3 SWAP2 SWAP1 PUSH2 0x2813 JUMP JUMPDEST PUSH1 0x40 MLOAD PUSH1 0x20 DUP2 DUP4 SUB SUB DUP2 MSTORE SWAP1 PUSH1 0x40 MSTORE JUMPDEST SWAP2 POP POP SWAP2 SWAP1 POP JUMP JUMPDEST PUSH2 0x4BB PUSH2 0xC4E JUMP JUMPDEST PUSH20 0xFFFFFFFFFFFFFFFFFFFFFFFFFFFFFFFFFFFFFFFF AND DUP6 PUSH20 0xFFFFFFFFFFFFFFFFFFFFFFFFFFFFFFFFFFFFFFFF AND EQ DUP1 PUSH2 0x501 JUMPI POP PUSH2 0x500 DUP6 PUSH2 0x4FB PUSH2 0xC4E JUMP JUMPDEST PUSH2 0x90A JUMP JUMPDEST JUMPDEST PUSH2 0x540 JUMPI PUSH1 0x40 MLOAD PUSH32 0x8C379A000000000000000000000000000000000000000000000000000000000 DUP2 MSTORE PUSH1 0x4 ADD PUSH2 0x537 SWAP1 PUSH2 0x28A9 JUMP JUMPDEST PUSH1 0x40 MLOAD DUP1 SWAP2 SUB SWAP1 REVERT JUMPDEST PUSH2 0x54D DUP6 DUP6 DUP6 DUP6 DUP6 PUSH2 0xC56 JUMP JUMPDEST POP POP POP POP POP JUMP JUMPDEST PUSH1 0x60 DUP2 MLOAD DUP4 MLOAD EQ PUSH2 0x59A JUMPI PUSH1 0x40 MLOAD PUSH32 0x8C379A000000000000000000000000000000000000000000000000000000000 DUP2 MSTORE PUSH1 0x4 ADD PUSH2 0x591 SWAP1 PUSH2 0x293B JUMP JUMPDEST PUSH1 0x40 MLOAD DUP1 SWAP2 SUB SWAP1 REVERT JUMPDEST PUSH1 0x0 DUP4 MLOAD PUSH8 0xFFFFFFFFFFFFFFFF DUP2 GT ISZERO PUSH2 0x5B7 JUMPI PUSH2 0x5B6 PUSH2 0x1DC1 JUMP JUMPDEST JUMPDEST PUSH1 0x40 MLOAD SWAP1 DUP1 DUP3 MSTORE DUP1 PUSH1 0x20 MUL PUSH1 0x20 ADD DUP3 ADD PUSH1 0x40 MSTORE DUP1 ISZERO PUSH2 0x5E5 JUMPI DUP2 PUSH1 0x20 ADD PUSH1 0x20 DUP3 MUL DUP1 CALLDATASIZE DUP4 CALLDATACOPY DUP1 DUP3 ADD SWAP2 POP POP SWAP1 POP JUMPDEST POP SWAP1 POP PUSH1 0x0 JUMPDEST DUP5 MLOAD DUP2 LT ISZERO PUSH2 0x662 JUMPI PUSH2 0x632 DUP6 DUP3 DUP2 MLOAD DUP2 LT PUSH2 0x60A JUMPI PUSH2 0x609 PUSH2 0x295B JUMP JUMPDEST JUMPDEST PUSH1 0x20 MUL PUSH1 0x20 ADD ADD MLOAD DUP6 DUP4 DUP2 MLOAD DUP2 LT PUSH2 0x625 JUMPI PUSH2 0x624 PUSH2 0x295B JUMP JUMPDEST JUMPDEST PUSH1 0x20 MUL PUSH1 0x20 ADD ADD MLOAD PUSH2 0x2F3 JUMP JUMPDEST DUP3 DUP3 DUP2 MLOAD DUP2 LT PUSH2 0x645 JUMPI PUSH2 0x644 PUSH2 0x295B JUMP JUMPDEST JUMPDEST PUSH1 0x20 MUL PUSH1 0x20 ADD ADD DUP2 DUP2 MSTORE POP POP DUP1 PUSH2 0x65B SWAP1 PUSH2 0x29B9 JUMP JUMPDEST SWAP1 POP PUSH2 0x5EB JUMP JUMPDEST POP DUP1 SWAP2 POP POP SWAP3 SWAP2 POP POP JUMP JUMPDEST DUP1 PUSH20 0xFFFFFFFFFFFFFFFFFFFFFFFFFFFFFFFFFFFFFFFF AND PUSH2 0x8FC SELFBALANCE SWAP1 DUP2 ISZERO MUL SWAP1 PUSH1 0x40 MLOAD PUSH1 0x0 PUSH1 0x40 MLOAD DUP1 DUP4 SUB DUP2 DUP6 DUP9 DUP9 CALL SWAP4 POP POP POP POP ISZERO DUP1 ISZERO PUSH2 0x6B3 JUMPI RETURNDATASIZE PUSH1 0x0 DUP1 RETURNDATACOPY RETURNDATASIZE PUSH1 0x0 REVERT JUMPDEST POP POP JUMP JUMPDEST PUSH2 0x6BF PUSH2 0xF7A JUMP JUMPDEST PUSH2 0x6C9 PUSH1 0x0 PUSH2 0xFF8 JUMP JUMPDEST JUMP JUMPDEST PUSH1 0x0 DUP1 PUSH1 0x1 SWAP1 SLOAD SWAP1 PUSH2 0x100 EXP SWAP1 DIV PUSH1 0xFF AND ISZERO SWAP1 POP DUP1 DUP1 ISZERO PUSH2 0x6FC JUMPI POP PUSH1 0x1 PUSH1 0x0 DUP1 SLOAD SWAP1 PUSH2 0x100 EXP SWAP1 DIV PUSH1 0xFF AND PUSH1 0xFF AND LT JUMPDEST DUP1 PUSH2 0x729 JUMPI POP PUSH2 0x70B ADDRESS PUSH2 0x10BE JUMP JUMPDEST ISZERO DUP1 ISZERO PUSH2 0x728 JUMPI POP PUSH1 0x1 PUSH1 0x0 DUP1 SLOAD SWAP1 PUSH2 0x100 EXP SWAP1 DIV PUSH1 0xFF AND PUSH1 0xFF AND EQ JUMPDEST JUMPDEST PUSH2 0x768 JUMPI PUSH1 0x40 MLOAD PUSH32 0x8C379A000000000000000000000000000000000000000000000000000000000 DUP2 MSTORE PUSH1 0x4 ADD PUSH2 0x75F SWAP1 PUSH2 0x2A73 JUMP JUMPDEST PUSH1 0x40 MLOAD DUP1 SWAP2 SUB SWAP1 REVERT JUMPDEST PUSH1 0x1 PUSH1 0x0 DUP1 PUSH2 0x100 EXP DUP2 SLOAD DUP2 PUSH1 0xFF MUL NOT AND SWAP1 DUP4 PUSH1 0xFF AND MUL OR SWAP1 SSTORE POP DUP1 ISZERO PUSH2 0x7A5 JUMPI PUSH1 0x1 PUSH1 0x0 PUSH1 0x1 PUSH2 0x100 EXP DUP2 SLOAD DUP2 PUSH1 0xFF MUL NOT AND SWAP1 DUP4 ISZERO ISZERO MUL OR SWAP1 SSTORE POP JUMPDEST DUP3 PUSH1 0xFC SWAP1 DUP2 PUSH2 0x7B4 SWAP2 SWAP1 PUSH2 0x2C2A JUMP JUMPDEST POP PUSH2 0x7CD PUSH1 0x40 MLOAD DUP1 PUSH1 0x20 ADD PUSH1 0x40 MSTORE DUP1 PUSH1 0x0 DUP2 MSTORE POP PUSH2 0x10E1 JUMP JUMPDEST PUSH2 0x7D5 PUSH2 0x113C JUMP JUMPDEST PUSH2 0x7DE DUP3 PUSH2 0xA55 JUMP JUMPDEST DUP1 ISZERO PUSH2 0x837 JUMPI PUSH1 0x0 DUP1 PUSH1 0x1 PUSH2 0x100 EXP DUP2 SLOAD DUP2 PUSH1 0xFF MUL NOT AND SWAP1 DUP4 ISZERO ISZERO MUL OR SWAP1 SSTORE POP PUSH32 0x7F26B83FF96E1F2B6A682F133852F6798A09C465DA95921460CEFB3847402498 PUSH1 0x1 PUSH1 0x40 MLOAD PUSH2 0x82E SWAP2 SWAP1 PUSH2 0x2D44 JUMP JUMPDEST PUSH1 0x40 MLOAD DUP1 SWAP2 SUB SWAP1 LOG1 JUMPDEST POP POP POP JUMP JUMPDEST PUSH1 0x0 PUSH1 0xC9 PUSH1 0x0 SWAP1 SLOAD SWAP1 PUSH2 0x100 EXP SWAP1 DIV PUSH20 0xFFFFFFFFFFFFFFFFFFFFFFFFFFFFFFFFFFFFFFFF AND SWAP1 POP SWAP1 JUMP JUMPDEST PUSH1 0xFC DUP1 SLOAD PUSH2 0x873 SWAP1 PUSH2 0x270E JUMP JUMPDEST DUP1 PUSH1 0x1F ADD PUSH1 0x20 DUP1 SWAP2 DIV MUL PUSH1 0x20 ADD PUSH1 0x40 MLOAD SWAP1 DUP2 ADD PUSH1 0x40 MSTORE DUP1 SWAP3 SWAP2 SWAP1 DUP2 DUP2 MSTORE PUSH1 0x20 ADD DUP3 DUP1 SLOAD PUSH2 0x89F SWAP1 PUSH2 0x270E JUMP JUMPDEST DUP1 ISZERO PUSH2 0x8EC JUMPI DUP1 PUSH1 0x1F LT PUSH2 0x8C1 JUMPI PUSH2 0x100 DUP1 DUP4 SLOAD DIV MUL DUP4 MSTORE SWAP2 PUSH1 0x20 ADD SWAP2 PUSH2 0x8EC JUMP JUMPDEST DUP3 ADD SWAP2 SWAP1 PUSH1 0x0 MSTORE PUSH1 0x20 PUSH1 0x0 KECCAK256 SWAP1 JUMPDEST DUP2 SLOAD DUP2 MSTORE SWAP1 PUSH1 0x1 ADD SWAP1 PUSH1 0x20 ADD DUP1 DUP4 GT PUSH2 0x8CF JUMPI DUP3 SWAP1 SUB PUSH1 0x1F AND DUP3 ADD SWAP2 JUMPDEST POP POP POP POP POP DUP2 JUMP JUMPDEST PUSH2 0x906 PUSH2 0x8FF PUSH2 0xC4E JUMP JUMPDEST DUP4 DUP4 PUSH2 0x1195 JUMP JUMPDEST POP POP JUMP JUMPDEST PUSH1 0x0 PUSH1 0x66 PUSH1 0x0 DUP5 PUSH20 0xFFFFFFFFFFFFFFFFFFFFFFFFFFFFFFFFFFFFFFFF AND PUSH20 0xFFFFFFFFFFFFFFFFFFFFFFFFFFFFFFFFFFFFFFFF AND DUP2 MSTORE PUSH1 0x20 ADD SWAP1 DUP2 MSTORE PUSH1 0x20 ADD PUSH1 0x0 KECCAK256 PUSH1 0x0 DUP4 PUSH20 0xFFFFFFFFFFFFFFFFFFFFFFFFFFFFFFFFFFFFFFFF AND PUSH20 0xFFFFFFFFFFFFFFFFFFFFFFFFFFFFFFFFFFFFFFFF AND DUP2 MSTORE PUSH1 0x20 ADD SWAP1 DUP2 MSTORE PUSH1 0x20 ADD PUSH1 0x0 KECCAK256 PUSH1 0x0 SWAP1 SLOAD SWAP1 PUSH2 0x100 EXP SWAP1 DIV PUSH1 0xFF AND SWAP1 POP SWAP3 SWAP2 POP POP JUMP JUMPDEST DUP2 DUP2 PUSH1 0xFC SWAP2 DUP3 PUSH2 0x9AF SWAP3 SWAP2 SWAP1 PUSH2 0x2D6A JUMP JUMPDEST POP POP POP JUMP JUMPDEST PUSH2 0x9BC PUSH2 0xC4E JUMP JUMPDEST PUSH20 0xFFFFFFFFFFFFFFFFFFFFFFFFFFFFFFFFFFFFFFFF AND DUP6 PUSH20 0xFFFFFFFFFFFFFFFFFFFFFFFFFFFFFFFFFFFFFFFF AND EQ DUP1 PUSH2 0xA02 JUMPI POP PUSH2 0xA01 DUP6 PUSH2 0x9FC PUSH2 0xC4E JUMP JUMPDEST PUSH2 0x90A JUMP JUMPDEST JUMPDEST PUSH2 0xA41 JUMPI PUSH1 0x40 MLOAD PUSH32 0x8C379A000000000000000000000000000000000000000000000000000000000 DUP2 MSTORE PUSH1 0x4 ADD PUSH2 0xA38 SWAP1 PUSH2 0x28A9 JUMP JUMPDEST PUSH1 0x40 MLOAD DUP1 SWAP2 SUB SWAP1 REVERT JUMPDEST PUSH2 0xA4E DUP6 DUP6 DUP6 DUP6 DUP6 PUSH2 0x1301 JUMP JUMPDEST POP POP POP POP POP JUMP JUMPDEST PUSH2 0xA5D PUSH2 0xF7A JUMP JUMPDEST PUSH1 0x0 PUSH20 0xFFFFFFFFFFFFFFFFFFFFFFFFFFFFFFFFFFFFFFFF AND DUP2 PUSH20 0xFFFFFFFFFFFFFFFFFFFFFFFFFFFFFFFFFFFFFFFF AND SUB PUSH2 0xACC JUMPI PUSH1 0x40 MLOAD PUSH32 0x8C379A000000000000000000000000000000000000000000000000000000000 DUP2 MSTORE PUSH1 0x4 ADD PUSH2 0xAC3 SWAP1 PUSH2 0x2EAC JUMP JUMPDEST PUSH1 0x40 MLOAD DUP1 SWAP2 SUB SWAP1 REVERT JUMPDEST PUSH2 0xAD5 DUP2 PUSH2 0xFF8 JUMP JUMPDEST POP JUMP JUMPDEST PUSH1 0x0 PUSH32 0xD9B67A2600000000000000000000000000000000000000000000000000000000 PUSH28 0xFFFFFFFFFFFFFFFFFFFFFFFFFFFFFFFFFFFFFFFFFFFFFFFFFFFFFFFF NOT AND DUP3 PUSH28 0xFFFFFFFFFFFFFFFFFFFFFFFFFFFFFFFFFFFFFFFFFFFFFFFFFFFFFFFF NOT AND EQ DUP1 PUSH2 0xBA3 JUMPI POP PUSH32 0xE89341C00000000000000000000000000000000000000000000000000000000 PUSH28 0xFFFFFFFFFFFFFFFFFFFFFFFFFFFFFFFFFFFFFFFFFFFFFFFFFFFFFFFF NOT AND DUP3 PUSH28 0xFFFFFFFFFFFFFFFFFFFFFFFFFFFFFFFFFFFFFFFFFFFFFFFFFFFFFFFF NOT AND EQ JUMPDEST DUP1 PUSH2 0xBB3 JUMPI POP PUSH2 0xBB2 DUP3 PUSH2 0x159F JUMP JUMPDEST JUMPDEST SWAP1 POP SWAP2 SWAP1 POP JUMP JUMPDEST PUSH1 0x60 PUSH1 0x67 DUP1 SLOAD PUSH2 0xBC9 SWAP1 PUSH2 0x270E JUMP JUMPDEST DUP1 PUSH1 0x1F ADD PUSH1 0x20 DUP1 SWAP2 DIV MUL PUSH1 0x20 ADD PUSH1 0x40 MLOAD SWAP1 DUP2 ADD PUSH1 0x40 MSTORE DUP1 SWAP3 SWAP2 SWAP1 DUP2 DUP2 MSTORE PUSH1 0x20 ADD DUP3 DUP1 SLOAD PUSH2 0xBF5 SWAP1 PUSH2 0x270E JUMP JUMPDEST DUP1 ISZERO PUSH2 0xC42 JUMPI DUP1 PUSH1 0x1F LT PUSH2 0xC17 JUMPI PUSH2 0x100 DUP1 DUP4 SLOAD DIV MUL DUP4 MSTORE SWAP2 PUSH1 0x20 ADD SWAP2 PUSH2 0xC42 JUMP JUMPDEST DUP3 ADD SWAP2 SWAP1 PUSH1 0x0 MSTORE PUSH1 0x20 PUSH1 0x0 KECCAK256 SWAP1 JUMPDEST DUP2 SLOAD DUP2 MSTORE SWAP1 PUSH1 0x1 ADD SWAP1 PUSH1 0x20 ADD DUP1 DUP4 GT PUSH2 0xC25 JUMPI DUP3 SWAP1 SUB PUSH1 0x1F AND DUP3 ADD SWAP2 JUMPDEST POP POP POP POP POP SWAP1 POP SWAP2 SWAP1 POP JUMP JUMPDEST PUSH1 0x0 CALLER SWAP1 POP SWAP1 JUMP JUMPDEST DUP2 MLOAD DUP4 MLOAD EQ PUSH2 0xC9A JUMPI PUSH1 0x40 MLOAD PUSH32 0x8C379A000000000000000000000000000000000000000000000000000000000 DUP2 MSTORE PUSH1 0x4 ADD PUSH2 0xC91 SWAP1 PUSH2 0x2F3E JUMP JUMPDEST PUSH1 0x40 MLOAD DUP1 SWAP2 SUB SWAP1 REVERT JUMPDEST PUSH1 0x0 PUSH20 0xFFFFFFFFFFFFFFFFFFFFFFFFFFFFFFFFFFFFFFFF AND DUP5 PUSH20 0xFFFFFFFFFFFFFFFFFFFFFFFFFFFFFFFFFFFFFFFF AND SUB PUSH2 0xD09 JUMPI PUSH1 0x40 MLOAD PUSH32 0x8C379A000000000000000000000000000000000000000000000000000000000 DUP2 MSTORE PUSH1 0x4 ADD PUSH2 0xD00 SWAP1 PUSH2 0x2FD0 JUMP JUMPDEST PUSH1 0x40 MLOAD DUP1 SWAP2 SUB SWAP1 REVERT JUMPDEST PUSH1 0x0 PUSH2 0xD13 PUSH2 0xC4E JUMP JUMPDEST SWAP1 POP PUSH2 0xD23 DUP2 DUP8 DUP8 DUP8 DUP8 DUP8 PUSH2 0x1609 JUMP JUMPDEST PUSH1 0x0 JUMPDEST DUP5 MLOAD DUP2 LT ISZERO PUSH2 0xED7 JUMPI PUSH1 0x0 DUP6 DUP3 DUP2 MLOAD DUP2 LT PUSH2 0xD44 JUMPI PUSH2 0xD43 PUSH2 0x295B JUMP JUMPDEST JUMPDEST PUSH1 0x20 MUL PUSH1 0x20 ADD ADD MLOAD SWAP1 POP PUSH1 0x0 DUP6 DUP4 DUP2 MLOAD DUP2 LT PUSH2 0xD63 JUMPI PUSH2 0xD62 PUSH2 0x295B JUMP JUMPDEST JUMPDEST PUSH1 0x20 MUL PUSH1 0x20 ADD ADD MLOAD SWAP1 POP PUSH1 0x0 PUSH1 0x65 PUSH1 0x0 DUP5 DUP2 MSTORE PUSH1 0x20 ADD SWAP1 DUP2 MSTORE PUSH1 0x20 ADD PUSH1 0x0 KECCAK256 PUSH1 0x0 DUP12 PUSH20 0xFFFFFFFFFFFFFFFFFFFFFFFFFFFFFFFFFFFFFFFF AND PUSH20 0xFFFFFFFFFFFFFFFFFFFFFFFFFFFFFFFFFFFFFFFF AND DUP2 MSTORE PUSH1 0x20 ADD SWAP1 DUP2 MSTORE PUSH1 0x20 ADD PUSH1 0x0 KECCAK256 SLOAD SWAP1 POP DUP2 DUP2 LT ISZERO PUSH2 0xE05 JUMPI PUSH1 0x40 MLOAD PUSH32 0x8C379A000000000000000000000000000000000000000000000000000000000 DUP2 MSTORE PUSH1 0x4 ADD PUSH2 0xDFC SWAP1 PUSH2 0x3062 JUMP JUMPDEST PUSH1 0x40 MLOAD DUP1 SWAP2 SUB SWAP1 REVERT JUMPDEST DUP2 DUP2 SUB PUSH1 0x65 PUSH1 0x0 DUP6 DUP2 MSTORE PUSH1 0x20 ADD SWAP1 DUP2 MSTORE PUSH1 0x20 ADD PUSH1 0x0 KECCAK256 PUSH1 0x0 DUP13 PUSH20 0xFFFFFFFFFFFFFFFFFFFFFFFFFFFFFFFFFFFFFFFF AND PUSH20 0xFFFFFFFFFFFFFFFFFFFFFFFFFFFFFFFFFFFFFFFF AND DUP2 MSTORE PUSH1 0x20 ADD SWAP1 DUP2 MSTORE PUSH1 0x20 ADD PUSH1 0x0 KECCAK256 DUP2 SWAP1 SSTORE POP DUP2 PUSH1 0x65 PUSH1 0x0 DUP6 DUP2 MSTORE PUSH1 0x20 ADD SWAP1 DUP2 MSTORE PUSH1 0x20 ADD PUSH1 0x0 KECCAK256 PUSH1 0x0 DUP12 PUSH20 0xFFFFFFFFFFFFFFFFFFFFFFFFFFFFFFFFFFFFFFFF AND PUSH20 0xFFFFFFFFFFFFFFFFFFFFFFFFFFFFFFFFFFFFFFFF AND DUP2 MSTORE PUSH1 0x20 ADD SWAP1 DUP2 MSTORE PUSH1 0x20 ADD PUSH1 0x0 KECCAK256 PUSH1 0x0 DUP3 DUP3 SLOAD PUSH2 0xEBC SWAP2 SWAP1 PUSH2 0x3082 JUMP JUMPDEST SWAP3 POP POP DUP2 SWAP1 SSTORE POP POP POP POP DUP1 PUSH2 0xED0 SWAP1 PUSH2 0x29B9 JUMP JUMPDEST SWAP1 POP PUSH2 0xD26 JUMP JUMPDEST POP DUP5 PUSH20 0xFFFFFFFFFFFFFFFFFFFFFFFFFFFFFFFFFFFFFFFF AND DUP7 PUSH20 0xFFFFFFFFFFFFFFFFFFFFFFFFFFFFFFFFFFFFFFFF AND DUP3 PUSH20 0xFFFFFFFFFFFFFFFFFFFFFFFFFFFFFFFFFFFFFFFF AND PUSH32 0x4A39DC06D4C0DBC64B70AF90FD698A233A518AA5D07E595D983B8C0526C8F7FB DUP8 DUP8 PUSH1 0x40 MLOAD PUSH2 0xF4E SWAP3 SWAP2 SWAP1 PUSH2 0x30B6 JUMP JUMPDEST PUSH1 0x40 MLOAD DUP1 SWAP2 SUB SWAP1 LOG4 PUSH2 0xF64 DUP2 DUP8 DUP8 DUP8 DUP8 DUP8 PUSH2 0x1611 JUMP JUMPDEST PUSH2 0xF72 DUP2 DUP8 DUP8 DUP8 DUP8 DUP8 PUSH2 0x1619 JUMP JUMPDEST POP POP POP POP POP POP JUMP JUMPDEST PUSH2 0xF82 PUSH2 0xC4E JUMP JUMPDEST PUSH20 0xFFFFFFFFFFFFFFFFFFFFFFFFFFFFFFFFFFFFFFFF AND PUSH2 0xFA0 PUSH2 0x83C JUMP JUMPDEST PUSH20 0xFFFFFFFFFFFFFFFFFFFFFFFFFFFFFFFFFFFFFFFF AND EQ PUSH2 0xFF6 JUMPI PUSH1 0x40 MLOAD PUSH32 0x8C379A000000000000000000000000000000000000000000000000000000000 DUP2 MSTORE PUSH1 0x4 ADD PUSH2 0xFED SWAP1 PUSH2 0x3139 JUMP JUMPDEST PUSH1 0x40 MLOAD DUP1 SWAP2 SUB SWAP1 REVERT JUMPDEST JUMP JUMPDEST PUSH1 0x0 PUSH1 0xC9 PUSH1 0x0 SWAP1 SLOAD SWAP1 PUSH2 0x100 EXP SWAP1 DIV PUSH20 0xFFFFFFFFFFFFFFFFFFFFFFFFFFFFFFFFFFFFFFFF AND SWAP1 POP DUP2 PUSH1 0xC9 PUSH1 0x0 PUSH2 0x100 EXP DUP2 SLOAD DUP2 PUSH20 0xFFFFFFFFFFFFFFFFFFFFFFFFFFFFFFFFFFFFFFFF MUL NOT AND SWAP1 DUP4 PUSH20 0xFFFFFFFFFFFFFFFFFFFFFFFFFFFFFFFFFFFFFFFF AND MUL OR SWAP1 SSTORE POP DUP2 PUSH20 0xFFFFFFFFFFFFFFFFFFFFFFFFFFFFFFFFFFFFFFFF AND DUP2 PUSH20 0xFFFFFFFFFFFFFFFFFFFFFFFFFFFFFFFFFFFFFFFF AND PUSH32 0x8BE0079C531659141344CD1FD0A4F28419497F9722A3DAAFE3B4186F6B6457E0 PUSH1 0x40 MLOAD PUSH1 0x40 MLOAD DUP1 SWAP2 SUB SWAP1 LOG3 POP POP JUMP JUMPDEST PUSH1 0x0 DUP1 DUP3 PUSH20 0xFFFFFFFFFFFFFFFFFFFFFFFFFFFFFFFFFFFFFFFF AND EXTCODESIZE GT SWAP1 POP SWAP2 SWAP1 POP JUMP JUMPDEST PUSH1 0x0 PUSH1 0x1 SWAP1 SLOAD SWAP1 PUSH2 0x100 EXP SWAP1 DIV PUSH1 0xFF AND PUSH2 0x1130 JUMPI PUSH1 0x40 MLOAD PUSH32 0x8C379A000000000000000000000000000000000000000000000000000000000 DUP2 MSTORE PUSH1 0x4 ADD PUSH2 0x1127 SWAP1 PUSH2 0x31CB JUMP JUMPDEST PUSH1 0x40 MLOAD DUP1 SWAP2 SUB SWAP1 REVERT JUMPDEST PUSH2 0x1139 DUP2 PUSH2 0x17F0 JUMP JUMPDEST POP JUMP JUMPDEST PUSH1 0x0 PUSH1 0x1 SWAP1 SLOAD SWAP1 PUSH2 0x100 EXP SWAP1 DIV PUSH1 0xFF AND PUSH2 0x118B JUMPI PUSH1 0x40 MLOAD PUSH32 0x8C379A000000000000000000000000000000000000000000000000000000000 DUP2 MSTORE PUSH1 0x4 ADD PUSH2 0x1182 SWAP1 PUSH2 0x31CB JUMP JUMPDEST PUSH1 0x40 MLOAD DUP1 SWAP2 SUB SWAP1 REVERT JUMPDEST PUSH2 0x1193 PUSH2 0x184B JUMP JUMPDEST JUMP JUMPDEST DUP2 PUSH20 0xFFFFFFFFFFFFFFFFFFFFFFFFFFFFFFFFFFFFFFFF AND DUP4 PUSH20 0xFFFFFFFFFFFFFFFFFFFFFFFFFFFFFFFFFFFFFFFF AND SUB PUSH2 0x1203 JUMPI PUSH1 0x40 MLOAD PUSH32 0x8C379A000000000000000000000000000000000000000000000000000000000 DUP2 MSTORE PUSH1 0x4 ADD PUSH2 0x11FA SWAP1 PUSH2 0x325D JUMP JUMPDEST PUSH1 0x40 MLOAD DUP1 SWAP2 SUB SWAP1 REVERT JUMPDEST DUP1 PUSH1 0x66 PUSH1 0x0 DUP6 PUSH20 0xFFFFFFFFFFFFFFFFFFFFFFFFFFFFFFFFFFFFFFFF AND PUSH20 0xFFFFFFFFFFFFFFFFFFFFFFFFFFFFFFFFFFFFFFFF AND DUP2 MSTORE PUSH1 0x20 ADD SWAP1 DUP2 MSTORE PUSH1 0x20 ADD PUSH1 0x0 KECCAK256 PUSH1 0x0 DUP5 PUSH20 0xFFFFFFFFFFFFFFFFFFFFFFFFFFFFFFFFFFFFFFFF AND PUSH20 0xFFFFFFFFFFFFFFFFFFFFFFFFFFFFFFFFFFFFFFFF AND DUP2 MSTORE PUSH1 0x20 ADD SWAP1 DUP2 MSTORE PUSH1 0x20 ADD PUSH1 0x0 KECCAK256 PUSH1 0x0 PUSH2 0x100 EXP DUP2 SLOAD DUP2 PUSH1 0xFF MUL NOT AND SWAP1 DUP4 ISZERO ISZERO MUL OR SWAP1 SSTORE POP DUP2 PUSH20 0xFFFFFFFFFFFFFFFFFFFFFFFFFFFFFFFFFFFFFFFF AND DUP4 PUSH20 0xFFFFFFFFFFFFFFFFFFFFFFFFFFFFFFFFFFFFFFFF AND PUSH32 0x17307EAB39AB6107E8899845AD3D59BD9653F200F220920489CA2B5937696C31 DUP4 PUSH1 0x40 MLOAD PUSH2 0x12F4 SWAP2 SWAP1 PUSH2 0x1CC2 JUMP JUMPDEST PUSH1 0x40 MLOAD DUP1 SWAP2 SUB SWAP1 LOG3 POP POP POP JUMP JUMPDEST PUSH1 0x0 PUSH20 0xFFFFFFFFFFFFFFFFFFFFFFFFFFFFFFFFFFFFFFFF AND DUP5 PUSH20 0xFFFFFFFFFFFFFFFFFFFFFFFFFFFFFFFFFFFFFFFF AND SUB PUSH2 0x1370 JUMPI PUSH1 0x40 MLOAD PUSH32 0x8C379A000000000000000000000000000000000000000000000000000000000 DUP2 MSTORE PUSH1 0x4 ADD PUSH2 0x1367 SWAP1 PUSH2 0x2FD0 JUMP JUMPDEST PUSH1 0x40 MLOAD DUP1 SWAP2 SUB SWAP1 REVERT JUMPDEST PUSH1 0x0 PUSH2 0x137A PUSH2 0xC4E JUMP JUMPDEST SWAP1 POP PUSH1 0x0 PUSH2 0x1387 DUP6 PUSH2 0x18AC JUMP JUMPDEST SWAP1 POP PUSH1 0x0 PUSH2 0x1394 DUP6 PUSH2 0x18AC JUMP JUMPDEST SWAP1 POP PUSH2 0x13A4 DUP4 DUP10 DUP10 DUP6 DUP6 DUP10 PUSH2 0x1609 JUMP JUMPDEST PUSH1 0x0 PUSH1 0x65 PUSH1 0x0 DUP9 DUP2 MSTORE PUSH1 0x20 ADD SWAP1 DUP2 MSTORE PUSH1 0x20 ADD PUSH1 0x0 KECCAK256 PUSH1 0x0 DUP11 PUSH20 0xFFFFFFFFFFFFFFFFFFFFFFFFFFFFFFFFFFFFFFFF AND PUSH20 0xFFFFFFFFFFFFFFFFFFFFFFFFFFFFFFFFFFFFFFFF AND DUP2 MSTORE PUSH1 0x20 ADD SWAP1 DUP2 MSTORE PUSH1 0x20 ADD PUSH1 0x0 KECCAK256 SLOAD SWAP1 POP DUP6 DUP2 LT ISZERO PUSH2 0x143C JUMPI PUSH1 0x40 MLOAD PUSH32 0x8C379A000000000000000000000000000000000000000000000000000000000 DUP2 MSTORE PUSH1 0x4 ADD PUSH2 0x1433 SWAP1 PUSH2 0x3062 JUMP JUMPDEST PUSH1 0x40 MLOAD DUP1 SWAP2 SUB SWAP1 REVERT JUMPDEST DUP6 DUP2 SUB PUSH1 0x65 PUSH1 0x0 DUP10 DUP2 MSTORE PUSH1 0x20 ADD SWAP1 DUP2 MSTORE PUSH1 0x20 ADD PUSH1 0x0 KECCAK256 PUSH1 0x0 DUP12 PUSH20 0xFFFFFFFFFFFFFFFFFFFFFFFFFFFFFFFFFFFFFFFF AND PUSH20 0xFFFFFFFFFFFFFFFFFFFFFFFFFFFFFFFFFFFFFFFF AND DUP2 MSTORE PUSH1 0x20 ADD SWAP1 DUP2 MSTORE PUSH1 0x20 ADD PUSH1 0x0 KECCAK256 DUP2 SWAP1 SSTORE POP DUP6 PUSH1 0x65 PUSH1 0x0 DUP10 DUP2 MSTORE PUSH1 0x20 ADD SWAP1 DUP2 MSTORE PUSH1 0x20 ADD PUSH1 0x0 KECCAK256 PUSH1 0x0 DUP11 PUSH20 0xFFFFFFFFFFFFFFFFFFFFFFFFFFFFFFFFFFFFFFFF AND PUSH20 0xFFFFFFFFFFFFFFFFFFFFFFFFFFFFFFFFFFFFFFFF AND DUP2 MSTORE PUSH1 0x20 ADD SWAP1 DUP2 MSTORE PUSH1 0x20 ADD PUSH1 0x0 KECCAK256 PUSH1 0x0 DUP3 DUP3 SLOAD PUSH2 0x14F3 SWAP2 SWAP1 PUSH2 0x3082 JUMP JUMPDEST SWAP3 POP POP DUP2 SWAP1 SSTORE POP DUP8 PUSH20 0xFFFFFFFFFFFFFFFFFFFFFFFFFFFFFFFFFFFFFFFF AND DUP10 PUSH20 0xFFFFFFFFFFFFFFFFFFFFFFFFFFFFFFFFFFFFFFFF AND DUP6 PUSH20 0xFFFFFFFFFFFFFFFFFFFFFFFFFFFFFFFFFFFFFFFF AND PUSH32 0xC3D58168C5AE7397731D063D5BBF3D657854427343F4C083240F7AACAA2D0F62 DUP11 DUP11 PUSH1 0x40 MLOAD PUSH2 0x1570 SWAP3 SWAP2 SWAP1 PUSH2 0x327D JUMP JUMPDEST PUSH1 0x40 MLOAD DUP1 SWAP2 SUB SWAP1 LOG4 PUSH2 0x1586 DUP5 DUP11 DUP11 DUP7 DUP7 DUP11 PUSH2 0x1611 JUMP JUMPDEST PUSH2 0x1594 DUP5 DUP11 DUP11 DUP11 DUP11 DUP11 PUSH2 0x1926 JUMP JUMPDEST POP POP POP POP POP POP POP POP POP JUMP JUMPDEST PUSH1 0x0 PUSH32 0x1FFC9A700000000000000000000000000000000000000000000000000000000 PUSH28 0xFFFFFFFFFFFFFFFFFFFFFFFFFFFFFFFFFFFFFFFFFFFFFFFFFFFFFFFF NOT AND DUP3 PUSH28 0xFFFFFFFFFFFFFFFFFFFFFFFFFFFFFFFFFFFFFFFFFFFFFFFFFFFFFFFF NOT AND EQ SWAP1 POP SWAP2 SWAP1 POP JUMP JUMPDEST POP POP POP POP POP POP JUMP JUMPDEST POP POP POP POP POP POP JUMP JUMPDEST PUSH2 0x1638 DUP5 PUSH20 0xFFFFFFFFFFFFFFFFFFFFFFFFFFFFFFFFFFFFFFFF AND PUSH2 0x10BE JUMP JUMPDEST ISZERO PUSH2 0x17E8 JUMPI DUP4 PUSH20 0xFFFFFFFFFFFFFFFFFFFFFFFFFFFFFFFFFFFFFFFF AND PUSH4 0xBC197C81 DUP8 DUP8 DUP7 DUP7 DUP7 PUSH1 0x40 MLOAD DUP7 PUSH4 0xFFFFFFFF AND PUSH1 0xE0 SHL DUP2 MSTORE PUSH1 0x4 ADD PUSH2 0x167E SWAP6 SWAP5 SWAP4 SWAP3 SWAP2 SWAP1 PUSH2 0x32FB JUMP JUMPDEST PUSH1 0x20 PUSH1 0x40 MLOAD DUP1 DUP4 SUB DUP2 PUSH1 0x0 DUP8 GAS CALL SWAP3 POP POP POP DUP1 ISZERO PUSH2 0x16BA JUMPI POP PUSH1 0x40 MLOAD RETURNDATASIZE PUSH1 0x1F NOT PUSH1 0x1F DUP3 ADD AND DUP3 ADD DUP1 PUSH1 0x40 MSTORE POP DUP2 ADD SWAP1 PUSH2 0x16B7 SWAP2 SWAP1 PUSH2 0x3378 JUMP JUMPDEST PUSH1 0x1 JUMPDEST PUSH2 0x175F JUMPI PUSH2 0x16C6 PUSH2 0x33B2 JUMP JUMPDEST DUP1 PUSH4 0x8C379A0 SUB PUSH2 0x1722 JUMPI POP PUSH2 0x16DA PUSH2 0x33D4 JUMP JUMPDEST DUP1 PUSH2 0x16E5 JUMPI POP PUSH2 0x1724 JUMP JUMPDEST DUP1 PUSH1 0x40 MLOAD PUSH32 0x8C379A000000000000000000000000000000000000000000000000000000000 DUP2 MSTORE PUSH1 0x4 ADD PUSH2 0x1719 SWAP2 SWAP1 PUSH2 0x1D9A JUMP JUMPDEST PUSH1 0x40 MLOAD DUP1 SWAP2 SUB SWAP1 REVERT JUMPDEST POP JUMPDEST PUSH1 0x40 MLOAD PUSH32 0x8C379A000000000000000000000000000000000000000000000000000000000 DUP2 MSTORE PUSH1 0x4 ADD PUSH2 0x1756 SWAP1 PUSH2 0x34D6 JUMP JUMPDEST PUSH1 0x40 MLOAD DUP1 SWAP2 SUB SWAP1 REVERT JUMPDEST PUSH4 0xBC197C81 PUSH1 0xE0 SHL PUSH28 0xFFFFFFFFFFFFFFFFFFFFFFFFFFFFFFFFFFFFFFFFFFFFFFFFFFFFFFFF NOT AND DUP2 PUSH28 0xFFFFFFFFFFFFFFFFFFFFFFFFFFFFFFFFFFFFFFFFFFFFFFFFFFFFFFFF NOT AND EQ PUSH2 0x17E6 JUMPI PUSH1 0x40 MLOAD PUSH32 0x8C379A000000000000000000000000000000000000000000000000000000000 DUP2 MSTORE PUSH1 0x4 ADD PUSH2 0x17DD SWAP1 PUSH2 0x3568 JUMP JUMPDEST PUSH1 0x40 MLOAD DUP1 SWAP2 SUB SWAP1 REVERT JUMPDEST POP JUMPDEST POP POP POP POP POP POP JUMP JUMPDEST PUSH1 0x0 PUSH1 0x1 SWAP1 SLOAD SWAP1 PUSH2 0x100 EXP SWAP1 DIV PUSH1 0xFF AND PUSH2 0x183F JUMPI PUSH1 0x40 MLOAD PUSH32 0x8C379A000000000000000000000000000000000000000000000000000000000 DUP2 MSTORE PUSH1 0x4 ADD PUSH2 0x1836 SWAP1 PUSH2 0x31CB JUMP JUMPDEST PUSH1 0x40 MLOAD DUP1 SWAP2 SUB SWAP1 REVERT JUMPDEST PUSH2 0x1848 DUP2 PUSH2 0x1AFD JUMP JUMPDEST POP JUMP JUMPDEST PUSH1 0x0 PUSH1 0x1 SWAP1 SLOAD SWAP1 PUSH2 0x100 EXP SWAP1 DIV PUSH1 0xFF AND PUSH2 0x189A JUMPI PUSH1 0x40 MLOAD PUSH32 0x8C379A000000000000000000000000000000000000000000000000000000000 DUP2 MSTORE PUSH1 0x4 ADD PUSH2 0x1891 SWAP1 PUSH2 0x31CB JUMP JUMPDEST PUSH1 0x40 MLOAD DUP1 SWAP2 SUB SWAP1 REVERT JUMPDEST PUSH2 0x18AA PUSH2 0x18A5 PUSH2 0xC4E JUMP JUMPDEST PUSH2 0xFF8 JUMP JUMPDEST JUMP JUMPDEST PUSH1 0x60 PUSH1 0x0 PUSH1 0x1 PUSH8 0xFFFFFFFFFFFFFFFF DUP2 GT ISZERO PUSH2 0x18CB JUMPI PUSH2 0x18CA PUSH2 0x1DC1 JUMP JUMPDEST JUMPDEST PUSH1 0x40 MLOAD SWAP1 DUP1 DUP3 MSTORE DUP1 PUSH1 0x20 MUL PUSH1 0x20 ADD DUP3 ADD PUSH1 0x40 MSTORE DUP1 ISZERO PUSH2 0x18F9 JUMPI DUP2 PUSH1 0x20 ADD PUSH1 0x20 DUP3 MUL DUP1 CALLDATASIZE DUP4 CALLDATACOPY DUP1 DUP3 ADD SWAP2 POP POP SWAP1 POP JUMPDEST POP SWAP1 POP DUP3 DUP2 PUSH1 0x0 DUP2 MLOAD DUP2 LT PUSH2 0x1911 JUMPI PUSH2 0x1910 PUSH2 0x295B JUMP JUMPDEST JUMPDEST PUSH1 0x20 MUL PUSH1 0x20 ADD ADD DUP2 DUP2 MSTORE POP POP DUP1 SWAP2 POP POP SWAP2 SWAP1 POP JUMP JUMPDEST PUSH2 0x1945 DUP5 PUSH20 0xFFFFFFFFFFFFFFFFFFFFFFFFFFFFFFFFFFFFFFFF AND PUSH2 0x10BE JUMP JUMPDEST ISZERO PUSH2 0x1AF5 JUMPI DUP4 PUSH20 0xFFFFFFFFFFFFFFFFFFFFFFFFFFFFFFFFFFFFFFFF AND PUSH4 0xF23A6E61 DUP8 DUP8 DUP7 DUP7 DUP7 PUSH1 0x40 MLOAD DUP7 PUSH4 0xFFFFFFFF AND PUSH1 0xE0 SHL DUP2 MSTORE PUSH1 0x4 ADD PUSH2 0x198B SWAP6 SWAP5 SWAP4 SWAP3 SWAP2 SWAP1 PUSH2 0x3588 JUMP JUMPDEST PUSH1 0x20 PUSH1 0x40 MLOAD DUP1 DUP4 SUB DUP2 PUSH1 0x0 DUP8 GAS CALL SWAP3 POP POP POP DUP1 ISZERO PUSH2 0x19C7 JUMPI POP PUSH1 0x40 MLOAD RETURNDATASIZE PUSH1 0x1F NOT PUSH1 0x1F DUP3 ADD AND DUP3 ADD DUP1 PUSH1 0x40 MSTORE POP DUP2 ADD SWAP1 PUSH2 0x19C4 SWAP2 SWAP1 PUSH2 0x3378 JUMP JUMPDEST PUSH1 0x1 JUMPDEST PUSH2 0x1A6C JUMPI PUSH2 0x19D3 PUSH2 0x33B2 JUMP JUMPDEST DUP1 PUSH4 0x8C379A0 SUB PUSH2 0x1A2F JUMPI POP PUSH2 0x19E7 PUSH2 0x33D4 JUMP JUMPDEST DUP1 PUSH2 0x19F2 JUMPI POP PUSH2 0x1A31 JUMP JUMPDEST DUP1 PUSH1 0x40 MLOAD PUSH32 0x8C379A000000000000000000000000000000000000000000000000000000000 DUP2 MSTORE PUSH1 0x4 ADD PUSH2 0x1A26 SWAP2 SWAP1 PUSH2 0x1D9A JUMP JUMPDEST PUSH1 0x40 MLOAD DUP1 SWAP2 SUB SWAP1 REVERT JUMPDEST POP JUMPDEST PUSH1 0x40 MLOAD PUSH32 0x8C379A000000000000000000000000000000000000000000000000000000000 DUP2 MSTORE PUSH1 0x4 ADD PUSH2 0x1A63 SWAP1 PUSH2 0x34D6 JUMP JUMPDEST PUSH1 0x40 MLOAD DUP1 SWAP2 SUB SWAP1 REVERT JUMPDEST PUSH4 0xF23A6E61 PUSH1 0xE0 SHL PUSH28 0xFFFFFFFFFFFFFFFFFFFFFFFFFFFFFFFFFFFFFFFFFFFFFFFFFFFFFFFF NOT AND DUP2 PUSH28 0xFFFFFFFFFFFFFFFFFFFFFFFFFFFFFFFFFFFFFFFFFFFFFFFFFFFFFFFF NOT AND EQ PUSH2 0x1AF3 JUMPI PUSH1 0x40 MLOAD PUSH32 0x8C379A000000000000000000000000000000000000000000000000000000000 DUP2 MSTORE PUSH1 0x4 ADD PUSH2 0x1AEA SWAP1 PUSH2 0x3568 JUMP JUMPDEST PUSH1 0x40 MLOAD DUP1 SWAP2 SUB SWAP1 REVERT JUMPDEST POP JUMPDEST POP POP POP POP POP POP JUMP JUMPDEST DUP1 PUSH1 0x67 SWAP1 DUP2 PUSH2 0x1B0C SWAP2 SWAP1 PUSH2 0x2C2A JUMP JUMPDEST POP POP JUMP JUMPDEST PUSH1 0x0 PUSH1 0x40 MLOAD SWAP1 POP SWAP1 JUMP JUMPDEST PUSH1 0x0 DUP1 REVERT JUMPDEST PUSH1 0x0 DUP1 REVERT JUMPDEST PUSH1 0x0 PUSH20 0xFFFFFFFFFFFFFFFFFFFFFFFFFFFFFFFFFFFFFFFF DUP3 AND SWAP1 POP SWAP2 SWAP1 POP JUMP JUMPDEST PUSH1 0x0 PUSH2 0x1B4F DUP3 PUSH2 0x1B24 JUMP JUMPDEST SWAP1 POP SWAP2 SWAP1 POP JUMP JUMPDEST PUSH2 0x1B5F DUP2 PUSH2 0x1B44 JUMP JUMPDEST DUP2 EQ PUSH2 0x1B6A JUMPI PUSH1 0x0 DUP1 REVERT JUMPDEST POP JUMP JUMPDEST PUSH1 0x0 DUP2 CALLDATALOAD SWAP1 POP PUSH2 0x1B7C DUP2 PUSH2 0x1B56 JUMP JUMPDEST SWAP3 SWAP2 POP POP JUMP JUMPDEST PUSH1 0x0 DUP2 SWAP1 POP SWAP2 SWAP1 POP JUMP JUMPDEST PUSH2 0x1B95 DUP2 PUSH2 0x1B82 JUMP JUMPDEST DUP2 EQ PUSH2 0x1BA0 JUMPI PUSH1 0x0 DUP1 REVERT JUMPDEST POP JUMP JUMPDEST PUSH1 0x0 DUP2 CALLDATALOAD SWAP1 POP PUSH2 0x1BB2 DUP2 PUSH2 0x1B8C JUMP JUMPDEST SWAP3 SWAP2 POP POP JUMP JUMPDEST PUSH1 0x0 DUP1 PUSH1 0x40 DUP4 DUP6 SUB SLT ISZERO PUSH2 0x1BCF JUMPI PUSH2 0x1BCE PUSH2 0x1B1A JUMP JUMPDEST JUMPDEST PUSH1 0x0 PUSH2 0x1BDD DUP6 DUP3 DUP7 ADD PUSH2 0x1B6D JUMP JUMPDEST SWAP3 POP POP PUSH1 0x20 PUSH2 0x1BEE DUP6 DUP3 DUP7 ADD PUSH2 0x1BA3 JUMP JUMPDEST SWAP2 POP POP SWAP3 POP SWAP3 SWAP1 POP JUMP JUMPDEST PUSH2 0x1C01 DUP2 PUSH2 0x1B82 JUMP JUMPDEST DUP3 MSTORE POP POP JUMP JUMPDEST PUSH1 0x0 PUSH1 0x20 DUP3 ADD SWAP1 POP PUSH2 0x1C1C PUSH1 0x0 DUP4 ADD DUP5 PUSH2 0x1BF8 JUMP JUMPDEST SWAP3 SWAP2 POP POP JUMP JUMPDEST PUSH1 0x0 PUSH32 0xFFFFFFFF00000000000000000000000000000000000000000000000000000000 DUP3 AND SWAP1 POP SWAP2 SWAP1 POP JUMP JUMPDEST PUSH2 0x1C57 DUP2 PUSH2 0x1C22 JUMP JUMPDEST DUP2 EQ PUSH2 0x1C62 JUMPI PUSH1 0x0 DUP1 REVERT JUMPDEST POP JUMP JUMPDEST PUSH1 0x0 DUP2 CALLDATALOAD SWAP1 POP PUSH2 0x1C74 DUP2 PUSH2 0x1C4E JUMP JUMPDEST SWAP3 SWAP2 POP POP JUMP JUMPDEST PUSH1 0x0 PUSH1 0x20 DUP3 DUP5 SUB SLT ISZERO PUSH2 0x1C90 JUMPI PUSH2 0x1C8F PUSH2 0x1B1A JUMP JUMPDEST JUMPDEST PUSH1 0x0 PUSH2 0x1C9E DUP5 DUP3 DUP6 ADD PUSH2 0x1C65 JUMP JUMPDEST SWAP2 POP POP SWAP3 SWAP2 POP POP JUMP JUMPDEST PUSH1 0x0 DUP2 ISZERO ISZERO SWAP1 POP SWAP2 SWAP1 POP JUMP JUMPDEST PUSH2 0x1CBC DUP2 PUSH2 0x1CA7 JUMP JUMPDEST DUP3 MSTORE POP POP JUMP JUMPDEST PUSH1 0x0 PUSH1 0x20 DUP3 ADD SWAP1 POP PUSH2 0x1CD7 PUSH1 0x0 DUP4 ADD DUP5 PUSH2 0x1CB3 JUMP JUMPDEST SWAP3 SWAP2 POP POP JUMP JUMPDEST PUSH1 0x0 PUSH1 0x20 DUP3 DUP5 SUB SLT ISZERO PUSH2 0x1CF3 JUMPI PUSH2 0x1CF2 PUSH2 0x1B1A JUMP JUMPDEST JUMPDEST PUSH1 0x0 PUSH2 0x1D01 DUP5 DUP3 DUP6 ADD PUSH2 0x1BA3 JUMP JUMPDEST SWAP2 POP POP SWAP3 SWAP2 POP POP JUMP JUMPDEST PUSH1 0x0 DUP2 MLOAD SWAP1 POP SWAP2 SWAP1 POP JUMP JUMPDEST PUSH1 0x0 DUP3 DUP3 MSTORE PUSH1 0x20 DUP3 ADD SWAP1 POP SWAP3 SWAP2 POP POP JUMP JUMPDEST PUSH1 0x0 JUMPDEST DUP4 DUP2 LT ISZERO PUSH2 0x1D44 JUMPI DUP1 DUP3 ADD MLOAD DUP2 DUP5 ADD MSTORE PUSH1 0x20 DUP2 ADD SWAP1 POP PUSH2 0x1D29 JUMP JUMPDEST PUSH1 0x0 DUP5 DUP5 ADD MSTORE POP POP POP POP JUMP JUMPDEST PUSH1 0x0 PUSH1 0x1F NOT PUSH1 0x1F DUP4 ADD AND SWAP1 POP SWAP2 SWAP1 POP JUMP JUMPDEST PUSH1 0x0 PUSH2 0x1D6C DUP3 PUSH2 0x1D0A JUMP JUMPDEST PUSH2 0x1D76 DUP2 DUP6 PUSH2 0x1D15 JUMP JUMPDEST SWAP4 POP PUSH2 0x1D86 DUP2 DUP6 PUSH1 0x20 DUP7 ADD PUSH2 0x1D26 JUMP JUMPDEST PUSH2 0x1D8F DUP2 PUSH2 0x1D50 JUMP JUMPDEST DUP5 ADD SWAP2 POP POP SWAP3 SWAP2 POP POP JUMP JUMPDEST PUSH1 0x0 PUSH1 0x20 DUP3 ADD SWAP1 POP DUP2 DUP2 SUB PUSH1 0x0 DUP4 ADD MSTORE PUSH2 0x1DB4 DUP2 DUP5 PUSH2 0x1D61 JUMP JUMPDEST SWAP1 POP SWAP3 SWAP2 POP POP JUMP JUMPDEST PUSH1 0x0 DUP1 REVERT JUMPDEST PUSH32 0x4E487B7100000000000000000000000000000000000000000000000000000000 PUSH1 0x0 MSTORE PUSH1 0x41 PUSH1 0x4 MSTORE PUSH1 0x24 PUSH1 0x0 REVERT JUMPDEST PUSH2 0x1DF9 DUP3 PUSH2 0x1D50 JUMP JUMPDEST DUP2 ADD DUP2 DUP2 LT PUSH8 0xFFFFFFFFFFFFFFFF DUP3 GT OR ISZERO PUSH2 0x1E18 JUMPI PUSH2 0x1E17 PUSH2 0x1DC1 JUMP JUMPDEST JUMPDEST DUP1 PUSH1 0x40 MSTORE POP POP POP JUMP JUMPDEST PUSH1 0x0 PUSH2 0x1E2B PUSH2 0x1B10 JUMP JUMPDEST SWAP1 POP PUSH2 0x1E37 DUP3 DUP3 PUSH2 0x1DF0 JUMP JUMPDEST SWAP2 SWAP1 POP JUMP JUMPDEST PUSH1 0x0 PUSH8 0xFFFFFFFFFFFFFFFF DUP3 GT ISZERO PUSH2 0x1E57 JUMPI PUSH2 0x1E56 PUSH2 0x1DC1 JUMP JUMPDEST JUMPDEST PUSH1 0x20 DUP3 MUL SWAP1 POP PUSH1 0x20 DUP2 ADD SWAP1 POP SWAP2 SWAP1 POP JUMP JUMPDEST PUSH1 0x0 DUP1 REVERT JUMPDEST PUSH1 0x0 PUSH2 0x1E80 PUSH2 0x1E7B DUP5 PUSH2 0x1E3C JUMP JUMPDEST PUSH2 0x1E21 JUMP JUMPDEST SWAP1 POP DUP1 DUP4 DUP3 MSTORE PUSH1 0x20 DUP3 ADD SWAP1 POP PUSH1 0x20 DUP5 MUL DUP4 ADD DUP6 DUP2 GT ISZERO PUSH2 0x1EA3 JUMPI PUSH2 0x1EA2 PUSH2 0x1E68 JUMP JUMPDEST JUMPDEST DUP4 JUMPDEST DUP2 DUP2 LT ISZERO PUSH2 0x1ECC JUMPI DUP1 PUSH2 0x1EB8 DUP9 DUP3 PUSH2 0x1BA3 JUMP JUMPDEST DUP5 MSTORE PUSH1 0x20 DUP5 ADD SWAP4 POP POP PUSH1 0x20 DUP2 ADD SWAP1 POP PUSH2 0x1EA5 JUMP JUMPDEST POP POP POP SWAP4 SWAP3 POP POP POP JUMP JUMPDEST PUSH1 0x0 DUP3 PUSH1 0x1F DUP4 ADD SLT PUSH2 0x1EEB JUMPI PUSH2 0x1EEA PUSH2 0x1DBC JUMP JUMPDEST JUMPDEST DUP2 CALLDATALOAD PUSH2 0x1EFB DUP5 DUP3 PUSH1 0x20 DUP7 ADD PUSH2 0x1E6D JUMP JUMPDEST SWAP2 POP POP SWAP3 SWAP2 POP POP JUMP JUMPDEST PUSH1 0x0 DUP1 REVERT JUMPDEST PUSH1 0x0 PUSH8 0xFFFFFFFFFFFFFFFF DUP3 GT ISZERO PUSH2 0x1F24 JUMPI PUSH2 0x1F23 PUSH2 0x1DC1 JUMP JUMPDEST JUMPDEST PUSH2 0x1F2D DUP3 PUSH2 0x1D50 JUMP JUMPDEST SWAP1 POP PUSH1 0x20 DUP2 ADD SWAP1 POP SWAP2 SWAP1 POP JUMP JUMPDEST DUP3 DUP2 DUP4 CALLDATACOPY PUSH1 0x0 DUP4 DUP4 ADD MSTORE POP POP POP JUMP JUMPDEST PUSH1 0x0 PUSH2 0x1F5C PUSH2 0x1F57 DUP5 PUSH2 0x1F09 JUMP JUMPDEST PUSH2 0x1E21 JUMP JUMPDEST SWAP1 POP DUP3 DUP2 MSTORE PUSH1 0x20 DUP2 ADD DUP5 DUP5 DUP5 ADD GT ISZERO PUSH2 0x1F78 JUMPI PUSH2 0x1F77 PUSH2 0x1F04 JUMP JUMPDEST JUMPDEST PUSH2 0x1F83 DUP5 DUP3 DUP6 PUSH2 0x1F3A JUMP JUMPDEST POP SWAP4 SWAP3 POP POP POP JUMP JUMPDEST PUSH1 0x0 DUP3 PUSH1 0x1F DUP4 ADD SLT PUSH2 0x1FA0 JUMPI PUSH2 0x1F9F PUSH2 0x1DBC JUMP JUMPDEST JUMPDEST DUP2 CALLDATALOAD PUSH2 0x1FB0 DUP5 DUP3 PUSH1 0x20 DUP7 ADD PUSH2 0x1F49 JUMP JUMPDEST SWAP2 POP POP SWAP3 SWAP2 POP POP JUMP JUMPDEST PUSH1 0x0 DUP1 PUSH1 0x0 DUP1 PUSH1 0x0 PUSH1 0xA0 DUP7 DUP9 SUB SLT ISZERO PUSH2 0x1FD5 JUMPI PUSH2 0x1FD4 PUSH2 0x1B1A JUMP JUMPDEST JUMPDEST PUSH1 0x0 PUSH2 0x1FE3 DUP9 DUP3 DUP10 ADD PUSH2 0x1B6D JUMP JUMPDEST SWAP6 POP POP PUSH1 0x20 PUSH2 0x1FF4 DUP9 DUP3 DUP10 ADD PUSH2 0x1B6D JUMP JUMPDEST SWAP5 POP POP PUSH1 0x40 DUP7 ADD CALLDATALOAD PUSH8 0xFFFFFFFFFFFFFFFF DUP2 GT ISZERO PUSH2 0x2015 JUMPI PUSH2 0x2014 PUSH2 0x1B1F JUMP JUMPDEST JUMPDEST PUSH2 0x2021 DUP9 DUP3 DUP10 ADD PUSH2 0x1ED6 JUMP JUMPDEST SWAP4 POP POP PUSH1 0x60 DUP7 ADD CALLDATALOAD PUSH8 0xFFFFFFFFFFFFFFFF DUP2 GT ISZERO PUSH2 0x2042 JUMPI PUSH2 0x2041 PUSH2 0x1B1F JUMP JUMPDEST JUMPDEST PUSH2 0x204E DUP9 DUP3 DUP10 ADD PUSH2 0x1ED6 JUMP JUMPDEST SWAP3 POP POP PUSH1 0x80 DUP7 ADD CALLDATALOAD PUSH8 0xFFFFFFFFFFFFFFFF DUP2 GT ISZERO PUSH2 0x206F JUMPI PUSH2 0x206E PUSH2 0x1B1F JUMP JUMPDEST JUMPDEST PUSH2 0x207B DUP9 DUP3 DUP10 ADD PUSH2 0x1F8B JUMP JUMPDEST SWAP2 POP POP SWAP3 SWAP6 POP SWAP3 SWAP6 SWAP1 SWAP4 POP JUMP JUMPDEST PUSH1 0x0 PUSH8 0xFFFFFFFFFFFFFFFF DUP3 GT ISZERO PUSH2 0x20A3 JUMPI PUSH2 0x20A2 PUSH2 0x1DC1 JUMP JUMPDEST JUMPDEST PUSH1 0x20 DUP3 MUL SWAP1 POP PUSH1 0x20 DUP2 ADD SWAP1 POP SWAP2 SWAP1 POP JUMP JUMPDEST PUSH1 0x0 PUSH2 0x20C7 PUSH2 0x20C2 DUP5 PUSH2 0x2088 JUMP JUMPDEST PUSH2 0x1E21 JUMP JUMPDEST SWAP1 POP DUP1 DUP4 DUP3 MSTORE PUSH1 0x20 DUP3 ADD SWAP1 POP PUSH1 0x20 DUP5 MUL DUP4 ADD DUP6 DUP2 GT ISZERO PUSH2 0x20EA JUMPI PUSH2 0x20E9 PUSH2 0x1E68 JUMP JUMPDEST JUMPDEST DUP4 JUMPDEST DUP2 DUP2 LT ISZERO PUSH2 0x2113 JUMPI DUP1 PUSH2 0x20FF DUP9 DUP3 PUSH2 0x1B6D JUMP JUMPDEST DUP5 MSTORE PUSH1 0x20 DUP5 ADD SWAP4 POP POP PUSH1 0x20 DUP2 ADD SWAP1 POP PUSH2 0x20EC JUMP JUMPDEST POP POP POP SWAP4 SWAP3 POP POP POP JUMP JUMPDEST PUSH1 0x0 DUP3 PUSH1 0x1F DUP4 ADD SLT PUSH2 0x2132 JUMPI PUSH2 0x2131 PUSH2 0x1DBC JUMP JUMPDEST JUMPDEST DUP2 CALLDATALOAD PUSH2 0x2142 DUP5 DUP3 PUSH1 0x20 DUP7 ADD PUSH2 0x20B4 JUMP JUMPDEST SWAP2 POP POP SWAP3 SWAP2 POP POP JUMP JUMPDEST PUSH1 0x0 DUP1 PUSH1 0x40 DUP4 DUP6 SUB SLT ISZERO PUSH2 0x2162 JUMPI PUSH2 0x2161 PUSH2 0x1B1A JUMP JUMPDEST JUMPDEST PUSH1 0x0 DUP4 ADD CALLDATALOAD PUSH8 0xFFFFFFFFFFFFFFFF DUP2 GT ISZERO PUSH2 0x2180 JUMPI PUSH2 0x217F PUSH2 0x1B1F JUMP JUMPDEST JUMPDEST PUSH2 0x218C DUP6 DUP3 DUP7 ADD PUSH2 0x211D JUMP JUMPDEST SWAP3 POP POP PUSH1 0x20 DUP4 ADD CALLDATALOAD PUSH8 0xFFFFFFFFFFFFFFFF DUP2 GT ISZERO PUSH2 0x21AD JUMPI PUSH2 0x21AC PUSH2 0x1B1F JUMP JUMPDEST JUMPDEST PUSH2 0x21B9 DUP6 DUP3 DUP7 ADD PUSH2 0x1ED6 JUMP JUMPDEST SWAP2 POP POP SWAP3 POP SWAP3 SWAP1 POP JUMP JUMPDEST PUSH1 0x0 DUP2 MLOAD SWAP1 POP SWAP2 SWAP1 POP JUMP JUMPDEST PUSH1 0x0 DUP3 DUP3 MSTORE PUSH1 0x20 DUP3 ADD SWAP1 POP SWAP3 SWAP2 POP POP JUMP JUMPDEST PUSH1 0x0 DUP2 SWAP1 POP PUSH1 0x20 DUP3 ADD SWAP1 POP SWAP2 SWAP1 POP JUMP JUMPDEST PUSH2 0x21F8 DUP2 PUSH2 0x1B82 JUMP JUMPDEST DUP3 MSTORE POP POP JUMP JUMPDEST PUSH1 0x0 PUSH2 0x220A DUP4 DUP4 PUSH2 0x21EF JUMP JUMPDEST PUSH1 0x20 DUP4 ADD SWAP1 POP SWAP3 SWAP2 POP POP JUMP JUMPDEST PUSH1 0x0 PUSH1 0x20 DUP3 ADD SWAP1 POP SWAP2 SWAP1 POP JUMP JUMPDEST PUSH1 0x0 PUSH2 0x222E DUP3 PUSH2 0x21C3 JUMP JUMPDEST PUSH2 0x2238 DUP2 DUP6 PUSH2 0x21CE JUMP JUMPDEST SWAP4 POP PUSH2 0x2243 DUP4 PUSH2 0x21DF JUMP JUMPDEST DUP1 PUSH1 0x0 JUMPDEST DUP4 DUP2 LT ISZERO PUSH2 0x2274 JUMPI DUP2 MLOAD PUSH2 0x225B DUP9 DUP3 PUSH2 0x21FE JUMP JUMPDEST SWAP8 POP PUSH2 0x2266 DUP4 PUSH2 0x2216 JUMP JUMPDEST SWAP3 POP POP PUSH1 0x1 DUP2 ADD SWAP1 POP PUSH2 0x2247 JUMP JUMPDEST POP DUP6 SWAP4 POP POP POP POP SWAP3 SWAP2 POP POP JUMP JUMPDEST PUSH1 0x0 PUSH1 0x20 DUP3 ADD SWAP1 POP DUP2 DUP2 SUB PUSH1 0x0 DUP4 ADD MSTORE PUSH2 0x229B DUP2 DUP5 PUSH2 0x2223 JUMP JUMPDEST SWAP1 POP SWAP3 SWAP2 POP POP JUMP JUMPDEST PUSH1 0x0 PUSH2 0x22AE DUP3 PUSH2 0x1B24 JUMP JUMPDEST SWAP1 POP SWAP2 SWAP1 POP JUMP JUMPDEST PUSH2 0x22BE DUP2 PUSH2 0x22A3 JUMP JUMPDEST DUP2 EQ PUSH2 0x22C9 JUMPI PUSH1 0x0 DUP1 REVERT JUMPDEST POP JUMP JUMPDEST PUSH1 0x0 DUP2 CALLDATALOAD SWAP1 POP PUSH2 0x22DB DUP2 PUSH2 0x22B5 JUMP JUMPDEST SWAP3 SWAP2 POP POP JUMP JUMPDEST PUSH1 0x0 PUSH1 0x20 DUP3 DUP5 SUB SLT ISZERO PUSH2 0x22F7 JUMPI PUSH2 0x22F6 PUSH2 0x1B1A JUMP JUMPDEST JUMPDEST PUSH1 0x0 PUSH2 0x2305 DUP5 DUP3 DUP6 ADD PUSH2 0x22CC JUMP JUMPDEST SWAP2 POP POP SWAP3 SWAP2 POP POP JUMP JUMPDEST PUSH1 0x0 PUSH8 0xFFFFFFFFFFFFFFFF DUP3 GT ISZERO PUSH2 0x2329 JUMPI PUSH2 0x2328 PUSH2 0x1DC1 JUMP JUMPDEST JUMPDEST PUSH2 0x2332 DUP3 PUSH2 0x1D50 JUMP JUMPDEST SWAP1 POP PUSH1 0x20 DUP2 ADD SWAP1 POP SWAP2 SWAP1 POP JUMP JUMPDEST PUSH1 0x0 PUSH2 0x2352 PUSH2 0x234D DUP5 PUSH2 0x230E JUMP JUMPDEST PUSH2 0x1E21 JUMP JUMPDEST SWAP1 POP DUP3 DUP2 MSTORE PUSH1 0x20 DUP2 ADD DUP5 DUP5 DUP5 ADD GT ISZERO PUSH2 0x236E JUMPI PUSH2 0x236D PUSH2 0x1F04 JUMP JUMPDEST JUMPDEST PUSH2 0x2379 DUP5 DUP3 DUP6 PUSH2 0x1F3A JUMP JUMPDEST POP SWAP4 SWAP3 POP POP POP JUMP JUMPDEST PUSH1 0x0 DUP3 PUSH1 0x1F DUP4 ADD SLT PUSH2 0x2396 JUMPI PUSH2 0x2395 PUSH2 0x1DBC JUMP JUMPDEST JUMPDEST DUP2 CALLDATALOAD PUSH2 0x23A6 DUP5 DUP3 PUSH1 0x20 DUP7 ADD PUSH2 0x233F JUMP JUMPDEST SWAP2 POP POP SWAP3 SWAP2 POP POP JUMP JUMPDEST PUSH1 0x0 DUP1 PUSH1 0x40 DUP4 DUP6 SUB SLT ISZERO PUSH2 0x23C6 JUMPI PUSH2 0x23C5 PUSH2 0x1B1A JUMP JUMPDEST JUMPDEST PUSH1 0x0 DUP4 ADD CALLDATALOAD PUSH8 0xFFFFFFFFFFFFFFFF DUP2 GT ISZERO PUSH2 0x23E4 JUMPI PUSH2 0x23E3 PUSH2 0x1B1F JUMP JUMPDEST JUMPDEST PUSH2 0x23F0 DUP6 DUP3 DUP7 ADD PUSH2 0x2381 JUMP JUMPDEST SWAP3 POP POP PUSH1 0x20 PUSH2 0x2401 DUP6 DUP3 DUP7 ADD PUSH2 0x1B6D JUMP JUMPDEST SWAP2 POP POP SWAP3 POP SWAP3 SWAP1 POP JUMP JUMPDEST PUSH2 0x2414 DUP2 PUSH2 0x1B44 JUMP JUMPDEST DUP3 MSTORE POP POP JUMP JUMPDEST PUSH1 0x0 PUSH1 0x20 DUP3 ADD SWAP1 POP PUSH2 0x242F PUSH1 0x0 DUP4 ADD DUP5 PUSH2 0x240B JUMP JUMPDEST SWAP3 SWAP2 POP POP JUMP JUMPDEST PUSH2 0x243E DUP2 PUSH2 0x1CA7 JUMP JUMPDEST DUP2 EQ PUSH2 0x2449 JUMPI PUSH1 0x0 DUP1 REVERT JUMPDEST POP JUMP JUMPDEST PUSH1 0x0 DUP2 CALLDATALOAD SWAP1 POP PUSH2 0x245B DUP2 PUSH2 0x2435 JUMP JUMPDEST SWAP3 SWAP2 POP POP JUMP JUMPDEST PUSH1 0x0 DUP1 PUSH1 0x40 DUP4 DUP6 SUB SLT ISZERO PUSH2 0x2478 JUMPI PUSH2 0x2477 PUSH2 0x1B1A JUMP JUMPDEST JUMPDEST PUSH1 0x0 PUSH2 0x2486 DUP6 DUP3 DUP7 ADD PUSH2 0x1B6D JUMP JUMPDEST SWAP3 POP POP PUSH1 0x20 PUSH2 0x2497 DUP6 DUP3 DUP7 ADD PUSH2 0x244C JUMP JUMPDEST SWAP2 POP POP SWAP3 POP SWAP3 SWAP1 POP JUMP JUMPDEST PUSH1 0x0 DUP1 PUSH1 0x40 DUP4 DUP6 SUB SLT ISZERO PUSH2 0x24B8 JUMPI PUSH2 0x24B7 PUSH2 0x1B1A JUMP JUMPDEST JUMPDEST PUSH1 0x0 PUSH2 0x24C6 DUP6 DUP3 DUP7 ADD PUSH2 0x1B6D JUMP JUMPDEST SWAP3 POP POP PUSH1 0x20 PUSH2 0x24D7 DUP6 DUP3 DUP7 ADD PUSH2 0x1B6D JUMP JUMPDEST SWAP2 POP POP SWAP3 POP SWAP3 SWAP1 POP JUMP JUMPDEST PUSH1 0x0 DUP1 REVERT JUMPDEST PUSH1 0x0 DUP1 DUP4 PUSH1 0x1F DUP5 ADD SLT PUSH2 0x24FC JUMPI PUSH2 0x24FB PUSH2 0x1DBC JUMP JUMPDEST JUMPDEST DUP3 CALLDATALOAD SWAP1 POP PUSH8 0xFFFFFFFFFFFFFFFF DUP2 GT ISZERO PUSH2 0x2519 JUMPI PUSH2 0x2518 PUSH2 0x24E1 JUMP JUMPDEST JUMPDEST PUSH1 0x20 DUP4 ADD SWAP2 POP DUP4 PUSH1 0x1 DUP3 MUL DUP4 ADD GT ISZERO PUSH2 0x2535 JUMPI PUSH2 0x2534 PUSH2 0x1E68 JUMP JUMPDEST JUMPDEST SWAP3 POP SWAP3 SWAP1 POP JUMP JUMPDEST PUSH1 0x0 DUP1 PUSH1 0x20 DUP4 DUP6 SUB SLT ISZERO PUSH2 0x2553 JUMPI PUSH2 0x2552 PUSH2 0x1B1A JUMP JUMPDEST JUMPDEST PUSH1 0x0 DUP4 ADD CALLDATALOAD PUSH8 0xFFFFFFFFFFFFFFFF DUP2 GT ISZERO PUSH2 0x2571 JUMPI PUSH2 0x2570 PUSH2 0x1B1F JUMP JUMPDEST JUMPDEST PUSH2 0x257D DUP6 DUP3 DUP7 ADD PUSH2 0x24E6 JUMP JUMPDEST SWAP3 POP SWAP3 POP POP SWAP3 POP SWAP3 SWAP1 POP JUMP JUMPDEST PUSH1 0x0 DUP1 PUSH1 0x0 DUP1 PUSH1 0x0 PUSH1 0xA0 DUP7 DUP9 SUB SLT ISZERO PUSH2 0x25A5 JUMPI PUSH2 0x25A4 PUSH2 0x1B1A JUMP JUMPDEST JUMPDEST PUSH1 0x0 PUSH2 0x25B3 DUP9 DUP3 DUP10 ADD PUSH2 0x1B6D JUMP JUMPDEST SWAP6 POP POP PUSH1 0x20 PUSH2 0x25C4 DUP9 DUP3 DUP10 ADD PUSH2 0x1B6D JUMP JUMPDEST SWAP5 POP POP PUSH1 0x40 PUSH2 0x25D5 DUP9 DUP3 DUP10 ADD PUSH2 0x1BA3 JUMP JUMPDEST SWAP4 POP POP PUSH1 0x60 PUSH2 0x25E6 DUP9 DUP3 DUP10 ADD PUSH2 0x1BA3 JUMP JUMPDEST SWAP3 POP POP PUSH1 0x80 DUP7 ADD CALLDATALOAD PUSH8 0xFFFFFFFFFFFFFFFF DUP2 GT ISZERO PUSH2 0x2607 JUMPI PUSH2 0x2606 PUSH2 0x1B1F JUMP JUMPDEST JUMPDEST PUSH2 0x2613 DUP9 DUP3 DUP10 ADD PUSH2 0x1F8B JUMP JUMPDEST SWAP2 POP POP SWAP3 SWAP6 POP SWAP3 SWAP6 SWAP1 SWAP4 POP JUMP JUMPDEST PUSH1 0x0 PUSH1 0x20 DUP3 DUP5 SUB SLT ISZERO PUSH2 0x2636 JUMPI PUSH2 0x2635 PUSH2 0x1B1A JUMP JUMPDEST JUMPDEST PUSH1 0x0 PUSH2 0x2644 DUP5 DUP3 DUP6 ADD PUSH2 0x1B6D JUMP JUMPDEST SWAP2 POP POP SWAP3 SWAP2 POP POP JUMP JUMPDEST PUSH32 0x455243313135353A2061646472657373207A65726F206973206E6F7420612076 PUSH1 0x0 DUP3 ADD MSTORE PUSH32 0x616C6964206F776E657200000000000000000000000000000000000000000000 PUSH1 0x20 DUP3 ADD MSTORE POP JUMP JUMPDEST PUSH1 0x0 PUSH2 0x26A9 PUSH1 0x2A DUP4 PUSH2 0x1D15 JUMP JUMPDEST SWAP2 POP PUSH2 0x26B4 DUP3 PUSH2 0x264D JUMP JUMPDEST PUSH1 0x40 DUP3 ADD SWAP1 POP SWAP2 SWAP1 POP JUMP JUMPDEST PUSH1 0x0 PUSH1 0x20 DUP3 ADD SWAP1 POP DUP2 DUP2 SUB PUSH1 0x0 DUP4 ADD MSTORE PUSH2 0x26D8 DUP2 PUSH2 0x269C JUMP JUMPDEST SWAP1 POP SWAP2 SWAP1 POP JUMP JUMPDEST PUSH32 0x4E487B7100000000000000000000000000000000000000000000000000000000 PUSH1 0x0 MSTORE PUSH1 0x22 PUSH1 0x4 MSTORE PUSH1 0x24 PUSH1 0x0 REVERT JUMPDEST PUSH1 0x0 PUSH1 0x2 DUP3 DIV SWAP1 POP PUSH1 0x1 DUP3 AND DUP1 PUSH2 0x2726 JUMPI PUSH1 0x7F DUP3 AND SWAP2 POP JUMPDEST PUSH1 0x20 DUP3 LT DUP2 SUB PUSH2 0x2739 JUMPI PUSH2 0x2738 PUSH2 0x26DF JUMP JUMPDEST JUMPDEST POP SWAP2 SWAP1 POP JUMP JUMPDEST PUSH1 0x0 DUP2 SWAP1 POP SWAP3 SWAP2 POP POP JUMP JUMPDEST PUSH1 0x0 DUP2 SWAP1 POP DUP2 PUSH1 0x0 MSTORE PUSH1 0x20 PUSH1 0x0 KECCAK256 SWAP1 POP SWAP2 SWAP1 POP JUMP JUMPDEST PUSH1 0x0 DUP2 SLOAD PUSH2 0x276C DUP2 PUSH2 0x270E JUMP JUMPDEST PUSH2 0x2776 DUP2 DUP7 PUSH2 0x273F JUMP JUMPDEST SWAP5 POP PUSH1 0x1 DUP3 AND PUSH1 0x0 DUP2 EQ PUSH2 0x2791 JUMPI PUSH1 0x1 DUP2 EQ PUSH2 0x27A6 JUMPI PUSH2 0x27D9 JUMP JUMPDEST PUSH1 0xFF NOT DUP4 AND DUP7 MSTORE DUP2 ISZERO ISZERO DUP3 MUL DUP7 ADD SWAP4 POP PUSH2 0x27D9 JUMP JUMPDEST PUSH2 0x27AF DUP6 PUSH2 0x274A JUMP JUMPDEST PUSH1 0x0 JUMPDEST DUP4 DUP2 LT ISZERO PUSH2 0x27D1 JUMPI DUP2 SLOAD DUP2 DUP10 ADD MSTORE PUSH1 0x1 DUP3 ADD SWAP2 POP PUSH1 0x20 DUP2 ADD SWAP1 POP PUSH2 0x27B2 JUMP JUMPDEST DUP4 DUP9 ADD SWAP6 POP POP POP JUMPDEST POP POP POP SWAP3 SWAP2 POP POP JUMP JUMPDEST PUSH1 0x0 PUSH2 0x27ED DUP3 PUSH2 0x1D0A JUMP JUMPDEST PUSH2 0x27F7 DUP2 DUP6 PUSH2 0x273F JUMP JUMPDEST SWAP4 POP PUSH2 0x2807 DUP2 DUP6 PUSH1 0x20 DUP7 ADD PUSH2 0x1D26 JUMP JUMPDEST DUP1 DUP5 ADD SWAP2 POP POP SWAP3 SWAP2 POP POP JUMP JUMPDEST PUSH1 0x0 PUSH2 0x281F DUP3 DUP6 PUSH2 0x275F JUMP JUMPDEST SWAP2 POP PUSH2 0x282B DUP3 DUP5 PUSH2 0x27E2 JUMP JUMPDEST SWAP2 POP DUP2 SWAP1 POP SWAP4 SWAP3 POP POP POP JUMP JUMPDEST PUSH32 0x455243313135353A2063616C6C6572206973206E6F7420746F6B656E206F776E PUSH1 0x0 DUP3 ADD MSTORE PUSH32 0x6572206F7220617070726F766564000000000000000000000000000000000000 PUSH1 0x20 DUP3 ADD MSTORE POP JUMP JUMPDEST PUSH1 0x0 PUSH2 0x2893 PUSH1 0x2E DUP4 PUSH2 0x1D15 JUMP JUMPDEST SWAP2 POP PUSH2 0x289E DUP3 PUSH2 0x2837 JUMP JUMPDEST PUSH1 0x40 DUP3 ADD SWAP1 POP SWAP2 SWAP1 POP JUMP JUMPDEST PUSH1 0x0 PUSH1 0x20 DUP3 ADD SWAP1 POP DUP2 DUP2 SUB PUSH1 0x0 DUP4 ADD MSTORE PUSH2 0x28C2 DUP2 PUSH2 0x2886 JUMP JUMPDEST SWAP1 POP SWAP2 SWAP1 POP JUMP JUMPDEST PUSH32 0x455243313135353A206163636F756E747320616E6420696473206C656E677468 PUSH1 0x0 DUP3 ADD MSTORE PUSH32 0x206D69736D617463680000000000000000000000000000000000000000000000 PUSH1 0x20 DUP3 ADD MSTORE POP JUMP JUMPDEST PUSH1 0x0 PUSH2 0x2925 PUSH1 0x29 DUP4 PUSH2 0x1D15 JUMP JUMPDEST SWAP2 POP PUSH2 0x2930 DUP3 PUSH2 0x28C9 JUMP JUMPDEST PUSH1 0x40 DUP3 ADD SWAP1 POP SWAP2 SWAP1 POP JUMP JUMPDEST PUSH1 0x0 PUSH1 0x20 DUP3 ADD SWAP1 POP DUP2 DUP2 SUB PUSH1 0x0 DUP4 ADD MSTORE PUSH2 0x2954 DUP2 PUSH2 0x2918 JUMP JUMPDEST SWAP1 POP SWAP2 SWAP1 POP JUMP JUMPDEST PUSH32 0x4E487B7100000000000000000000000000000000000000000000000000000000 PUSH1 0x0 MSTORE PUSH1 0x32 PUSH1 0x4 MSTORE PUSH1 0x24 PUSH1 0x0 REVERT JUMPDEST PUSH32 0x4E487B7100000000000000000000000000000000000000000000000000000000 PUSH1 0x0 MSTORE PUSH1 0x11 PUSH1 0x4 MSTORE PUSH1 0x24 PUSH1 0x0 REVERT JUMPDEST PUSH1 0x0 PUSH2 0x29C4 DUP3 PUSH2 0x1B82 JUMP JUMPDEST SWAP2 POP PUSH32 0xFFFFFFFFFFFFFFFFFFFFFFFFFFFFFFFFFFFFFFFFFFFFFFFFFFFFFFFFFFFFFFFF DUP3 SUB PUSH2 0x29F6 JUMPI PUSH2 0x29F5 PUSH2 0x298A JUMP JUMPDEST JUMPDEST PUSH1 0x1 DUP3 ADD SWAP1 POP SWAP2 SWAP1 POP JUMP JUMPDEST PUSH32 0x496E697469616C697A61626C653A20636F6E747261637420697320616C726561 PUSH1 0x0 DUP3 ADD MSTORE PUSH32 0x647920696E697469616C697A6564000000000000000000000000000000000000 PUSH1 0x20 DUP3 ADD MSTORE POP JUMP JUMPDEST PUSH1 0x0 PUSH2 0x2A5D PUSH1 0x2E DUP4 PUSH2 0x1D15 JUMP JUMPDEST SWAP2 POP PUSH2 0x2A68 DUP3 PUSH2 0x2A01 JUMP JUMPDEST PUSH1 0x40 DUP3 ADD SWAP1 POP SWAP2 SWAP1 POP JUMP JUMPDEST PUSH1 0x0 PUSH1 0x20 DUP3 ADD SWAP1 POP DUP2 DUP2 SUB PUSH1 0x0 DUP4 ADD MSTORE PUSH2 0x2A8C DUP2 PUSH2 0x2A50 JUMP JUMPDEST SWAP1 POP SWAP2 SWAP1 POP JUMP JUMPDEST PUSH1 0x0 PUSH1 0x20 PUSH1 0x1F DUP4 ADD DIV SWAP1 POP SWAP2 SWAP1 POP JUMP JUMPDEST PUSH1 0x0 DUP3 DUP3 SHL SWAP1 POP SWAP3 SWAP2 POP POP JUMP JUMPDEST PUSH1 0x0 PUSH1 0x8 DUP4 MUL PUSH2 0x2AE0 PUSH32 0xFFFFFFFFFFFFFFFFFFFFFFFFFFFFFFFFFFFFFFFFFFFFFFFFFFFFFFFFFFFFFFFF DUP3 PUSH2 0x2AA3 JUMP JUMPDEST PUSH2 0x2AEA DUP7 DUP4 PUSH2 0x2AA3 JUMP JUMPDEST SWAP6 POP DUP1 NOT DUP5 AND SWAP4 POP DUP1 DUP7 AND DUP5 OR SWAP3 POP POP POP SWAP4 SWAP3 POP POP POP JUMP JUMPDEST PUSH1 0x0 DUP2 SWAP1 POP SWAP2 SWAP1 POP JUMP JUMPDEST PUSH1 0x0 PUSH2 0x2B27 PUSH2 0x2B22 PUSH2 0x2B1D DUP5 PUSH2 0x1B82 JUMP JUMPDEST PUSH2 0x2B02 JUMP JUMPDEST PUSH2 0x1B82 JUMP JUMPDEST SWAP1 POP SWAP2 SWAP1 POP JUMP JUMPDEST PUSH1 0x0 DUP2 SWAP1 POP SWAP2 SWAP1 POP JUMP JUMPDEST PUSH2 0x2B41 DUP4 PUSH2 0x2B0C JUMP JUMPDEST PUSH2 0x2B55 PUSH2 0x2B4D DUP3 PUSH2 0x2B2E JUMP JUMPDEST DUP5 DUP5 SLOAD PUSH2 0x2AB0 JUMP JUMPDEST DUP3 SSTORE POP POP POP POP JUMP JUMPDEST PUSH1 0x0 SWAP1 JUMP JUMPDEST PUSH2 0x2B6A PUSH2 0x2B5D JUMP JUMPDEST PUSH2 0x2B75 DUP2 DUP5 DUP5 PUSH2 0x2B38 JUMP JUMPDEST POP POP POP JUMP JUMPDEST JUMPDEST DUP2 DUP2 LT ISZERO PUSH2 0x2B99 JUMPI PUSH2 0x2B8E PUSH1 0x0 DUP3 PUSH2 0x2B62 JUMP JUMPDEST PUSH1 0x1 DUP2 ADD SWAP1 POP PUSH2 0x2B7B JUMP JUMPDEST POP POP JUMP JUMPDEST PUSH1 0x1F DUP3 GT ISZERO PUSH2 0x2BDE JUMPI PUSH2 0x2BAF DUP2 PUSH2 0x274A JUMP JUMPDEST PUSH2 0x2BB8 DUP5 PUSH2 0x2A93 JUMP JUMPDEST DUP2 ADD PUSH1 0x20 DUP6 LT ISZERO PUSH2 0x2BC7 JUMPI DUP2 SWAP1 POP JUMPDEST PUSH2 0x2BDB PUSH2 0x2BD3 DUP6 PUSH2 0x2A93 JUMP JUMPDEST DUP4 ADD DUP3 PUSH2 0x2B7A JUMP JUMPDEST POP POP JUMPDEST POP POP POP JUMP JUMPDEST PUSH1 0x0 DUP3 DUP3 SHR SWAP1 POP SWAP3 SWAP2 POP POP JUMP JUMPDEST PUSH1 0x0 PUSH2 0x2C01 PUSH1 0x0 NOT DUP5 PUSH1 0x8 MUL PUSH2 0x2BE3 JUMP JUMPDEST NOT DUP1 DUP4 AND SWAP2 POP POP SWAP3 SWAP2 POP POP JUMP JUMPDEST PUSH1 0x0 PUSH2 0x2C1A DUP4 DUP4 PUSH2 0x2BF0 JUMP JUMPDEST SWAP2 POP DUP3 PUSH1 0x2 MUL DUP3 OR SWAP1 POP SWAP3 SWAP2 POP POP JUMP JUMPDEST PUSH2 0x2C33 DUP3 PUSH2 0x1D0A JUMP JUMPDEST PUSH8 0xFFFFFFFFFFFFFFFF DUP2 GT ISZERO PUSH2 0x2C4C JUMPI PUSH2 0x2C4B PUSH2 0x1DC1 JUMP JUMPDEST JUMPDEST PUSH2 0x2C56 DUP3 SLOAD PUSH2 0x270E JUMP JUMPDEST PUSH2 0x2C61 DUP3 DUP3 DUP6 PUSH2 0x2B9D JUMP JUMPDEST PUSH1 0x0 PUSH1 0x20 SWAP1 POP PUSH1 0x1F DUP4 GT PUSH1 0x1 DUP2 EQ PUSH2 0x2C94 JUMPI PUSH1 0x0 DUP5 ISZERO PUSH2 0x2C82 JUMPI DUP3 DUP8 ADD MLOAD SWAP1 POP JUMPDEST PUSH2 0x2C8C DUP6 DUP3 PUSH2 0x2C0E JUMP JUMPDEST DUP7 SSTORE POP PUSH2 0x2CF4 JUMP JUMPDEST PUSH1 0x1F NOT DUP5 AND PUSH2 0x2CA2 DUP7 PUSH2 0x274A JUMP JUMPDEST PUSH1 0x0 JUMPDEST DUP3 DUP2 LT ISZERO PUSH2 0x2CCA JUMPI DUP5 DUP10 ADD MLOAD DUP3 SSTORE PUSH1 0x1 DUP3 ADD SWAP2 POP PUSH1 0x20 DUP6 ADD SWAP5 POP PUSH1 0x20 DUP2 ADD SWAP1 POP PUSH2 0x2CA5 JUMP JUMPDEST DUP7 DUP4 LT ISZERO PUSH2 0x2CE7 JUMPI DUP5 DUP10 ADD MLOAD PUSH2 0x2CE3 PUSH1 0x1F DUP10 AND DUP3 PUSH2 0x2BF0 JUMP JUMPDEST DUP4 SSTORE POP JUMPDEST PUSH1 0x1 PUSH1 0x2 DUP9 MUL ADD DUP9 SSTORE POP POP POP JUMPDEST POP POP POP POP POP POP JUMP JUMPDEST PUSH1 0x0 DUP2 SWAP1 POP SWAP2 SWAP1 POP JUMP JUMPDEST PUSH1 0x0 PUSH1 0xFF DUP3 AND SWAP1 POP SWAP2 SWAP1 POP JUMP JUMPDEST PUSH1 0x0 PUSH2 0x2D2E PUSH2 0x2D29 PUSH2 0x2D24 DUP5 PUSH2 0x2CFC JUMP JUMPDEST PUSH2 0x2B02 JUMP JUMPDEST PUSH2 0x2D06 JUMP JUMPDEST SWAP1 POP SWAP2 SWAP1 POP JUMP JUMPDEST PUSH2 0x2D3E DUP2 PUSH2 0x2D13 JUMP JUMPDEST DUP3 MSTORE POP POP JUMP JUMPDEST PUSH1 0x0 PUSH1 0x20 DUP3 ADD SWAP1 POP PUSH2 0x2D59 PUSH1 0x0 DUP4 ADD DUP5 PUSH2 0x2D35 JUMP JUMPDEST SWAP3 SWAP2 POP POP JUMP JUMPDEST PUSH1 0x0 DUP3 SWAP1 POP SWAP3 SWAP2 POP POP JUMP JUMPDEST PUSH2 0x2D74 DUP4 DUP4 PUSH2 0x2D5F JUMP JUMPDEST PUSH8 0xFFFFFFFFFFFFFFFF DUP2 GT ISZERO PUSH2 0x2D8D JUMPI PUSH2 0x2D8C PUSH2 0x1DC1 JUMP JUMPDEST JUMPDEST PUSH2 0x2D97 DUP3 SLOAD PUSH2 0x270E JUMP JUMPDEST PUSH2 0x2DA2 DUP3 DUP3 DUP6 PUSH2 0x2B9D JUMP JUMPDEST PUSH1 0x0 PUSH1 0x1F DUP4 GT PUSH1 0x1 DUP2 EQ PUSH2 0x2DD1 JUMPI PUSH1 0x0 DUP5 ISZERO PUSH2 0x2DBF JUMPI DUP3 DUP8 ADD CALLDATALOAD SWAP1 POP JUMPDEST PUSH2 0x2DC9 DUP6 DUP3 PUSH2 0x2C0E JUMP JUMPDEST DUP7 SSTORE POP PUSH2 0x2E31 JUMP JUMPDEST PUSH1 0x1F NOT DUP5 AND PUSH2 0x2DDF DUP7 PUSH2 0x274A JUMP JUMPDEST PUSH1 0x0 JUMPDEST DUP3 DUP2 LT ISZERO PUSH2 0x2E07 JUMPI DUP5 DUP10 ADD CALLDATALOAD DUP3 SSTORE PUSH1 0x1 DUP3 ADD SWAP2 POP PUSH1 0x20 DUP6 ADD SWAP5 POP PUSH1 0x20 DUP2 ADD SWAP1 POP PUSH2 0x2DE2 JUMP JUMPDEST DUP7 DUP4 LT ISZERO PUSH2 0x2E24 JUMPI DUP5 DUP10 ADD CALLDATALOAD PUSH2 0x2E20 PUSH1 0x1F DUP10 AND DUP3 PUSH2 0x2BF0 JUMP JUMPDEST DUP4 SSTORE POP JUMPDEST PUSH1 0x1 PUSH1 0x2 DUP9 MUL ADD DUP9 SSTORE POP POP POP JUMPDEST POP POP POP POP POP POP POP JUMP JUMPDEST PUSH32 0x4F776E61626C653A206E6577206F776E657220697320746865207A65726F2061 PUSH1 0x0 DUP3 ADD MSTORE PUSH32 0x6464726573730000000000000000000000000000000000000000000000000000 PUSH1 0x20 DUP3 ADD MSTORE POP JUMP JUMPDEST PUSH1 0x0 PUSH2 0x2E96 PUSH1 0x26 DUP4 PUSH2 0x1D15 JUMP JUMPDEST SWAP2 POP PUSH2 0x2EA1 DUP3 PUSH2 0x2E3A JUMP JUMPDEST PUSH1 0x40 DUP3 ADD SWAP1 POP SWAP2 SWAP1 POP JUMP JUMPDEST PUSH1 0x0 PUSH1 0x20 DUP3 ADD SWAP1 POP DUP2 DUP2 SUB PUSH1 0x0 DUP4 ADD MSTORE PUSH2 0x2EC5 DUP2 PUSH2 0x2E89 JUMP JUMPDEST SWAP1 POP SWAP2 SWAP1 POP JUMP JUMPDEST PUSH32 0x455243313135353A2069647320616E6420616D6F756E7473206C656E67746820 PUSH1 0x0 DUP3 ADD MSTORE PUSH32 0x6D69736D61746368000000000000000000000000000000000000000000000000 PUSH1 0x20 DUP3 ADD MSTORE POP JUMP JUMPDEST PUSH1 0x0 PUSH2 0x2F28 PUSH1 0x28 DUP4 PUSH2 0x1D15 JUMP JUMPDEST SWAP2 POP PUSH2 0x2F33 DUP3 PUSH2 0x2ECC JUMP JUMPDEST PUSH1 0x40 DUP3 ADD SWAP1 POP SWAP2 SWAP1 POP JUMP JUMPDEST PUSH1 0x0 PUSH1 0x20 DUP3 ADD SWAP1 POP DUP2 DUP2 SUB PUSH1 0x0 DUP4 ADD MSTORE PUSH2 0x2F57 DUP2 PUSH2 0x2F1B JUMP JUMPDEST SWAP1 POP SWAP2 SWAP1 POP JUMP JUMPDEST PUSH32 0x455243313135353A207472616E7366657220746F20746865207A65726F206164 PUSH1 0x0 DUP3 ADD MSTORE PUSH32 0x6472657373000000000000000000000000000000000000000000000000000000 PUSH1 0x20 DUP3 ADD MSTORE POP JUMP JUMPDEST PUSH1 0x0 PUSH2 0x2FBA PUSH1 0x25 DUP4 PUSH2 0x1D15 JUMP JUMPDEST SWAP2 POP PUSH2 0x2FC5 DUP3 PUSH2 0x2F5E JUMP JUMPDEST PUSH1 0x40 DUP3 ADD SWAP1 POP SWAP2 SWAP1 POP JUMP JUMPDEST PUSH1 0x0 PUSH1 0x20 DUP3 ADD SWAP1 POP DUP2 DUP2 SUB PUSH1 0x0 DUP4 ADD MSTORE PUSH2 0x2FE9 DUP2 PUSH2 0x2FAD JUMP JUMPDEST SWAP1 POP SWAP2 SWAP1 POP JUMP JUMPDEST PUSH32 0x455243313135353A20696E73756666696369656E742062616C616E636520666F PUSH1 0x0 DUP3 ADD MSTORE PUSH32 0x72207472616E7366657200000000000000000000000000000000000000000000 PUSH1 0x20 DUP3 ADD MSTORE POP JUMP JUMPDEST PUSH1 0x0 PUSH2 0x304C PUSH1 0x2A DUP4 PUSH2 0x1D15 JUMP JUMPDEST SWAP2 POP PUSH2 0x3057 DUP3 PUSH2 0x2FF0 JUMP JUMPDEST PUSH1 0x40 DUP3 ADD SWAP1 POP SWAP2 SWAP1 POP JUMP JUMPDEST PUSH1 0x0 PUSH1 0x20 DUP3 ADD SWAP1 POP DUP2 DUP2 SUB PUSH1 0x0 DUP4 ADD MSTORE PUSH2 0x307B DUP2 PUSH2 0x303F JUMP JUMPDEST SWAP1 POP SWAP2 SWAP1 POP JUMP JUMPDEST PUSH1 0x0 PUSH2 0x308D DUP3 PUSH2 0x1B82 JUMP JUMPDEST SWAP2 POP PUSH2 0x3098 DUP4 PUSH2 0x1B82 JUMP JUMPDEST SWAP3 POP DUP3 DUP3 ADD SWAP1 POP DUP1 DUP3 GT ISZERO PUSH2 0x30B0 JUMPI PUSH2 0x30AF PUSH2 0x298A JUMP JUMPDEST JUMPDEST SWAP3 SWAP2 POP POP JUMP JUMPDEST PUSH1 0x0 PUSH1 0x40 DUP3 ADD SWAP1 POP DUP2 DUP2 SUB PUSH1 0x0 DUP4 ADD MSTORE PUSH2 0x30D0 DUP2 DUP6 PUSH2 0x2223 JUMP JUMPDEST SWAP1 POP DUP2 DUP2 SUB PUSH1 0x20 DUP4 ADD MSTORE PUSH2 0x30E4 DUP2 DUP5 PUSH2 0x2223 JUMP JUMPDEST SWAP1 POP SWAP4 SWAP3 POP POP POP JUMP JUMPDEST PUSH32 0x4F776E61626C653A2063616C6C6572206973206E6F7420746865206F776E6572 PUSH1 0x0 DUP3 ADD MSTORE POP JUMP JUMPDEST PUSH1 0x0 PUSH2 0x3123 PUSH1 0x20 DUP4 PUSH2 0x1D15 JUMP JUMPDEST SWAP2 POP PUSH2 0x312E DUP3 PUSH2 0x30ED JUMP JUMPDEST PUSH1 0x20 DUP3 ADD SWAP1 POP SWAP2 SWAP1 POP JUMP JUMPDEST PUSH1 0x0 PUSH1 0x20 DUP3 ADD SWAP1 POP DUP2 DUP2 SUB PUSH1 0x0 DUP4 ADD MSTORE PUSH2 0x3152 DUP2 PUSH2 0x3116 JUMP JUMPDEST SWAP1 POP SWAP2 SWAP1 POP JUMP JUMPDEST PUSH32 0x496E697469616C697A61626C653A20636F6E7472616374206973206E6F742069 PUSH1 0x0 DUP3 ADD MSTORE PUSH32 0x6E697469616C697A696E67000000000000000000000000000000000000000000 PUSH1 0x20 DUP3 ADD MSTORE POP JUMP JUMPDEST PUSH1 0x0 PUSH2 0x31B5 PUSH1 0x2B DUP4 PUSH2 0x1D15 JUMP JUMPDEST SWAP2 POP PUSH2 0x31C0 DUP3 PUSH2 0x3159 JUMP JUMPDEST PUSH1 0x40 DUP3 ADD SWAP1 POP SWAP2 SWAP1 POP JUMP JUMPDEST PUSH1 0x0 PUSH1 0x20 DUP3 ADD SWAP1 POP DUP2 DUP2 SUB PUSH1 0x0 DUP4 ADD MSTORE PUSH2 0x31E4 DUP2 PUSH2 0x31A8 JUMP JUMPDEST SWAP1 POP SWAP2 SWAP1 POP JUMP JUMPDEST PUSH32 0x455243313135353A2073657474696E6720617070726F76616C20737461747573 PUSH1 0x0 DUP3 ADD MSTORE PUSH32 0x20666F722073656C660000000000000000000000000000000000000000000000 PUSH1 0x20 DUP3 ADD MSTORE POP JUMP JUMPDEST PUSH1 0x0 PUSH2 0x3247 PUSH1 0x29 DUP4 PUSH2 0x1D15 JUMP JUMPDEST SWAP2 POP PUSH2 0x3252 DUP3 PUSH2 0x31EB JUMP JUMPDEST PUSH1 0x40 DUP3 ADD SWAP1 POP SWAP2 SWAP1 POP JUMP JUMPDEST PUSH1 0x0 PUSH1 0x20 DUP3 ADD SWAP1 POP DUP2 DUP2 SUB PUSH1 0x0 DUP4 ADD MSTORE PUSH2 0x3276 DUP2 PUSH2 0x323A JUMP JUMPDEST SWAP1 POP SWAP2 SWAP1 POP JUMP JUMPDEST PUSH1 0x0 PUSH1 0x40 DUP3 ADD SWAP1 POP PUSH2 0x3292 PUSH1 0x0 DUP4 ADD DUP6 PUSH2 0x1BF8 JUMP JUMPDEST PUSH2 0x329F PUSH1 0x20 DUP4 ADD DUP5 PUSH2 0x1BF8 JUMP JUMPDEST SWAP4 SWAP3 POP POP POP JUMP JUMPDEST PUSH1 0x0 DUP2 MLOAD SWAP1 POP SWAP2 SWAP1 POP JUMP JUMPDEST PUSH1 0x0 DUP3 DUP3 MSTORE PUSH1 0x20 DUP3 ADD SWAP1 POP SWAP3 SWAP2 POP POP JUMP JUMPDEST PUSH1 0x0 PUSH2 0x32CD DUP3 PUSH2 0x32A6 JUMP JUMPDEST PUSH2 0x32D7 DUP2 DUP6 PUSH2 0x32B1 JUMP JUMPDEST SWAP4 POP PUSH2 0x32E7 DUP2 DUP6 PUSH1 0x20 DUP7 ADD PUSH2 0x1D26 JUMP JUMPDEST PUSH2 0x32F0 DUP2 PUSH2 0x1D50 JUMP JUMPDEST DUP5 ADD SWAP2 POP POP SWAP3 SWAP2 POP POP JUMP JUMPDEST PUSH1 0x0 PUSH1 0xA0 DUP3 ADD SWAP1 POP PUSH2 0x3310 PUSH1 0x0 DUP4 ADD DUP9 PUSH2 0x240B JUMP JUMPDEST PUSH2 0x331D PUSH1 0x20 DUP4 ADD DUP8 PUSH2 0x240B JUMP JUMPDEST DUP2 DUP2 SUB PUSH1 0x40 DUP4 ADD MSTORE PUSH2 0x332F DUP2 DUP7 PUSH2 0x2223 JUMP JUMPDEST SWAP1 POP DUP2 DUP2 SUB PUSH1 0x60 DUP4 ADD MSTORE PUSH2 0x3343 DUP2 DUP6 PUSH2 0x2223 JUMP JUMPDEST SWAP1 POP DUP2 DUP2 SUB PUSH1 0x80 DUP4 ADD MSTORE PUSH2 0x3357 DUP2 DUP5 PUSH2 0x32C2 JUMP JUMPDEST SWAP1 POP SWAP7 SWAP6 POP POP POP POP POP POP JUMP JUMPDEST PUSH1 0x0 DUP2 MLOAD SWAP1 POP PUSH2 0x3372 DUP2 PUSH2 0x1C4E JUMP JUMPDEST SWAP3 SWAP2 POP POP JUMP JUMPDEST PUSH1 0x0 PUSH1 0x20 DUP3 DUP5 SUB SLT ISZERO PUSH2 0x338E JUMPI PUSH2 0x338D PUSH2 0x1B1A JUMP JUMPDEST JUMPDEST PUSH1 0x0 PUSH2 0x339C DUP5 DUP3 DUP6 ADD PUSH2 0x3363 JUMP JUMPDEST SWAP2 POP POP SWAP3 SWAP2 POP POP JUMP JUMPDEST PUSH1 0x0 DUP2 PUSH1 0xE0 SHR SWAP1 POP SWAP2 SWAP1 POP JUMP JUMPDEST PUSH1 0x0 PUSH1 0x3 RETURNDATASIZE GT ISZERO PUSH2 0x33D1 JUMPI PUSH1 0x4 PUSH1 0x0 DUP1 RETURNDATACOPY PUSH2 0x33CE PUSH1 0x0 MLOAD PUSH2 0x33A5 JUMP JUMPDEST SWAP1 POP JUMPDEST SWAP1 JUMP JUMPDEST PUSH1 0x0 PUSH1 0x44 RETURNDATASIZE LT PUSH2 0x3461 JUMPI PUSH2 0x33E6 PUSH2 0x1B10 JUMP JUMPDEST PUSH1 0x4 RETURNDATASIZE SUB PUSH1 0x4 DUP3 RETURNDATACOPY DUP1 MLOAD RETURNDATASIZE PUSH1 0x24 DUP3 ADD GT PUSH8 0xFFFFFFFFFFFFFFFF DUP3 GT OR ISZERO PUSH2 0x340E JUMPI POP POP PUSH2 0x3461 JUMP JUMPDEST DUP1 DUP3 ADD DUP1 MLOAD PUSH8 0xFFFFFFFFFFFFFFFF DUP2 GT ISZERO PUSH2 0x342C JUMPI POP POP POP POP PUSH2 0x3461 JUMP JUMPDEST DUP1 PUSH1 0x20 DUP4 ADD ADD PUSH1 0x4 RETURNDATASIZE SUB DUP6 ADD DUP2 GT ISZERO PUSH2 0x3449 JUMPI POP POP POP POP POP PUSH2 0x3461 JUMP JUMPDEST PUSH2 0x3458 DUP3 PUSH1 0x20 ADD DUP6 ADD DUP7 PUSH2 0x1DF0 JUMP JUMPDEST DUP3 SWAP6 POP POP POP POP POP POP JUMPDEST SWAP1 JUMP JUMPDEST PUSH32 0x455243313135353A207472616E7366657220746F206E6F6E2D45524331313535 PUSH1 0x0 DUP3 ADD MSTORE PUSH32 0x526563656976657220696D706C656D656E746572000000000000000000000000 PUSH1 0x20 DUP3 ADD MSTORE POP JUMP JUMPDEST PUSH1 0x0 PUSH2 0x34C0 PUSH1 0x34 DUP4 PUSH2 0x1D15 JUMP JUMPDEST SWAP2 POP PUSH2 0x34CB DUP3 PUSH2 0x3464 JUMP JUMPDEST PUSH1 0x40 DUP3 ADD SWAP1 POP SWAP2 SWAP1 POP JUMP JUMPDEST PUSH1 0x0 PUSH1 0x20 DUP3 ADD SWAP1 POP DUP2 DUP2 SUB PUSH1 0x0 DUP4 ADD MSTORE PUSH2 0x34EF DUP2 PUSH2 0x34B3 JUMP JUMPDEST SWAP1 POP SWAP2 SWAP1 POP JUMP JUMPDEST PUSH32 0x455243313135353A204552433131353552656365697665722072656A65637465 PUSH1 0x0 DUP3 ADD MSTORE PUSH32 0x6420746F6B656E73000000000000000000000000000000000000000000000000 PUSH1 0x20 DUP3 ADD MSTORE POP JUMP JUMPDEST PUSH1 0x0 PUSH2 0x3552 PUSH1 0x28 DUP4 PUSH2 0x1D15 JUMP JUMPDEST SWAP2 POP PUSH2 0x355D DUP3 PUSH2 0x34F6 JUMP JUMPDEST PUSH1 0x40 DUP3 ADD SWAP1 POP SWAP2 SWAP1 POP JUMP JUMPDEST PUSH1 0x0 PUSH1 0x20 DUP3 ADD SWAP1 POP DUP2 DUP2 SUB PUSH1 0x0 DUP4 ADD MSTORE PUSH2 0x3581 DUP2 PUSH2 0x3545 JUMP JUMPDEST SWAP1 POP SWAP2 SWAP1 POP JUMP JUMPDEST PUSH1 0x0 PUSH1 0xA0 DUP3 ADD SWAP1 POP PUSH2 0x359D PUSH1 0x0 DUP4 ADD DUP9 PUSH2 0x240B JUMP JUMPDEST PUSH2 0x35AA PUSH1 0x20 DUP4 ADD DUP8 PUSH2 0x240B JUMP JUMPDEST PUSH2 0x35B7 PUSH1 0x40 DUP4 ADD DUP7 PUSH2 0x1BF8 JUMP JUMPDEST PUSH2 0x35C4 PUSH1 0x60 DUP4 ADD DUP6 PUSH2 0x1BF8 JUMP JUMPDEST DUP2 DUP2 SUB PUSH1 0x80 DUP4 ADD MSTORE PUSH2 0x35D6 DUP2 DUP5 PUSH2 0x32C2 JUMP JUMPDEST SWAP1 POP SWAP7 SWAP6 POP POP POP POP POP POP JUMP INVALID LOG2 PUSH5 0x6970667358 0x22 SLT KECCAK256 CALLDATALOAD DUP7 SWAP12 0xD1 BASEFEE PUSH1 0xD9 0xEC LT GAS CALL SWAP9 JUMP 0xC5 0xC8 SWAP16 REVERT 0xE2 0xCE 0xEA 0x4F STATICCALL 0x4D MUL SWAP1 0xA9 DELEGATECALL 0xA8 NUMBER DUP7 SWAP1 SELFDESTRUCT PUSH5 0x736F6C6343 STOP ADDMOD SGT STOP CALLER LOG2 PUSH5 0x6970667358 0x22 SLT KECCAK256 CODESIZE BYTE GASPRICE SWAP7 SWAP16 0xC6 0xB8 SDIV 0xE2 0xE6 DUP1 0xF7 PUSH3 0x687DB5 0x25 INVALID LOG2 CALLVALUE 0xD8 PUSH26 0x7186737ED3A09E901B5364736F6C634300081300330000000000 "},"methodIdentifiers":{"_collectionRegistryAddress()":"e064e2d9","createCollection(string,uint256)":"64d54151","owner()":"8da5cb5b","renounceOwnership()":"715018a6","transferOwnership(address)":"f2fde38b"}}}}}