{
  "_format": "hh-sol-artifact-1",
  "contractName": "CollectionRegistry",
  "sourceName": "contracts/CollectionsRegistry.sol",
  "abi": [
    {
      "anonymous": false,
      "inputs": [
        {
          "indexed": false,
          "internalType": "address",
          "name": "previousAdmin",
          "type": "address"
        },
        {
          "indexed": false,
          "internalType": "address",
          "name": "newAdmin",
          "type": "address"
        }
      ],
      "name": "AdminChanged",
      "type": "event"
    },
    {
      "anonymous": false,
      "inputs": [
        {
          "indexed": true,
          "internalType": "address",
          "name": "account",
          "type": "address"
        },
        {
          "indexed": true,
          "internalType": "address",
          "name": "operator",
          "type": "address"
        },
        {
          "indexed": false,
          "internalType": "bool",
          "name": "approved",
          "type": "bool"
        }
      ],
      "name": "ApprovalForAll",
      "type": "event"
    },
    {
      "anonymous": false,
      "inputs": [
        {
          "indexed": true,
          "internalType": "address",
          "name": "beacon",
          "type": "address"
        }
      ],
      "name": "BeaconUpgraded",
      "type": "event"
    },
    {
      "anonymous": false,
      "inputs": [
        {
          "indexed": false,
          "internalType": "uint8",
          "name": "version",
          "type": "uint8"
        }
      ],
      "name": "Initialized",
      "type": "event"
    },
    {
      "anonymous": false,
      "inputs": [
        {
          "indexed": true,
          "internalType": "address",
          "name": "previousOwner",
          "type": "address"
        },
        {
          "indexed": true,
          "internalType": "address",
          "name": "newOwner",
          "type": "address"
        }
      ],
      "name": "OwnershipTransferred",
      "type": "event"
    },
    {
      "anonymous": false,
      "inputs": [
        {
          "indexed": true,
          "internalType": "address",
          "name": "operator",
          "type": "address"
        },
        {
          "indexed": true,
          "internalType": "address",
          "name": "from",
          "type": "address"
        },
        {
          "indexed": true,
          "internalType": "address",
          "name": "to",
          "type": "address"
        },
        {
          "indexed": false,
          "internalType": "uint256[]",
          "name": "ids",
          "type": "uint256[]"
        },
        {
          "indexed": false,
          "internalType": "uint256[]",
          "name": "values",
          "type": "uint256[]"
        }
      ],
      "name": "TransferBatch",
      "type": "event"
    },
    {
      "anonymous": false,
      "inputs": [
        {
          "indexed": true,
          "internalType": "address",
          "name": "operator",
          "type": "address"
        },
        {
          "indexed": true,
          "internalType": "address",
          "name": "from",
          "type": "address"
        },
        {
          "indexed": true,
          "internalType": "address",
          "name": "to",
          "type": "address"
        },
        {
          "indexed": false,
          "internalType": "uint256",
          "name": "id",
          "type": "uint256"
        },
        {
          "indexed": false,
          "internalType": "uint256",
          "name": "value",
          "type": "uint256"
        }
      ],
      "name": "TransferSingle",
      "type": "event"
    },
    {
      "anonymous": false,
      "inputs": [
        {
          "indexed": false,
          "internalType": "string",
          "name": "value",
          "type": "string"
        },
        {
          "indexed": true,
          "internalType": "uint256",
          "name": "id",
          "type": "uint256"
        }
      ],
      "name": "URI",
      "type": "event"
    },
    {
      "anonymous": false,
      "inputs": [
        {
          "indexed": true,
          "internalType": "address",
          "name": "implementation",
          "type": "address"
        }
      ],
      "name": "Upgraded",
      "type": "event"
    },
    {
      "inputs": [
        {
          "internalType": "uint256",
          "name": "tokenId",
          "type": "uint256"
        },
        {
          "internalType": "string",
          "name": "url",
          "type": "string"
        }
      ],
      "name": "_setTokenMetadata",
      "outputs": [
        {
          "internalType": "string",
          "name": "",
          "type": "string"
        }
      ],
      "stateMutability": "nonpayable",
      "type": "function"
    },
    {
      "inputs": [
        {
          "internalType": "address",
          "name": "account",
          "type": "address"
        },
        {
          "internalType": "uint256",
          "name": "id",
          "type": "uint256"
        }
      ],
      "name": "balanceOf",
      "outputs": [
        {
          "internalType": "uint256",
          "name": "",
          "type": "uint256"
        }
      ],
      "stateMutability": "view",
      "type": "function"
    },
    {
      "inputs": [
        {
          "internalType": "address[]",
          "name": "accounts",
          "type": "address[]"
        },
        {
          "internalType": "uint256[]",
          "name": "ids",
          "type": "uint256[]"
        }
      ],
      "name": "balanceOfBatch",
      "outputs": [
        {
          "internalType": "uint256[]",
          "name": "",
          "type": "uint256[]"
        }
      ],
      "stateMutability": "view",
      "type": "function"
    },
    {
      "inputs": [
        {
          "internalType": "address",
          "name": "account",
          "type": "address"
        },
        {
          "internalType": "uint256",
          "name": "id",
          "type": "uint256"
        },
        {
          "internalType": "uint256",
          "name": "value",
          "type": "uint256"
        }
      ],
      "name": "burn",
      "outputs": [],
      "stateMutability": "nonpayable",
      "type": "function"
    },
    {
      "inputs": [
        {
          "internalType": "uint256",
          "name": "id",
          "type": "uint256"
        },
        {
          "internalType": "address",
          "name": "recipient",
          "type": "address"
        },
        {
          "internalType": "bytes",
          "name": "data",
          "type": "bytes"
        }
      ],
      "name": "collect",
      "outputs": [
        {
          "internalType": "string",
          "name": "",
          "type": "string"
        }
      ],
      "stateMutability": "payable",
      "type": "function"
    },
    {
      "inputs": [
        {
          "internalType": "uint256",
          "name": "",
          "type": "uint256"
        }
      ],
      "name": "collectionAddress",
      "outputs": [
        {
          "internalType": "address",
          "name": "",
          "type": "address"
        }
      ],
      "stateMutability": "view",
      "type": "function"
    },
    {
      "inputs": [
        {
          "internalType": "bytes",
          "name": "data",
          "type": "bytes"
        },
        {
          "internalType": "uint256",
          "name": "_price",
          "type": "uint256"
        },
        {
          "internalType": "address",
          "name": "_creator",
          "type": "address"
        }
      ],
      "name": "create",
      "outputs": [
        {
          "internalType": "uint256",
          "name": "",
          "type": "uint256"
        }
      ],
      "stateMutability": "payable",
      "type": "function"
    },
    {
      "inputs": [
        {
          "internalType": "uint256",
          "name": "",
          "type": "uint256"
        }
      ],
      "name": "creator",
      "outputs": [
        {
          "internalType": "address",
          "name": "",
          "type": "address"
        }
      ],
      "stateMutability": "view",
      "type": "function"
    },
    {
      "inputs": [],
      "name": "initialize",
      "outputs": [],
      "stateMutability": "nonpayable",
      "type": "function"
    },
    {
      "inputs": [
        {
          "internalType": "address",
          "name": "account",
          "type": "address"
        },
        {
          "internalType": "address",
          "name": "operator",
          "type": "address"
        }
      ],
      "name": "isApprovedForAll",
      "outputs": [
        {
          "internalType": "bool",
          "name": "",
          "type": "bool"
        }
      ],
      "stateMutability": "view",
      "type": "function"
    },
    {
      "inputs": [],
      "name": "name",
      "outputs": [
        {
          "internalType": "string",
          "name": "",
          "type": "string"
        }
      ],
      "stateMutability": "pure",
      "type": "function"
    },
    {
      "inputs": [
        {
          "internalType": "uint256",
          "name": "tokenId",
          "type": "uint256"
        },
        {
          "internalType": "string",
          "name": "url",
          "type": "string"
        }
      ],
      "name": "overrideTokenMetadata",
      "outputs": [],
      "stateMutability": "nonpayable",
      "type": "function"
    },
    {
      "inputs": [],
      "name": "owner",
      "outputs": [
        {
          "internalType": "address",
          "name": "",
          "type": "address"
        }
      ],
      "stateMutability": "view",
      "type": "function"
    },
    {
      "inputs": [
        {
          "internalType": "uint256",
          "name": "",
          "type": "uint256"
        }
      ],
      "name": "price",
      "outputs": [
        {
          "internalType": "uint256",
          "name": "",
          "type": "uint256"
        }
      ],
      "stateMutability": "view",
      "type": "function"
    },
    {
      "inputs": [],
      "name": "proxiableUUID",
      "outputs": [
        {
          "internalType": "bytes32",
          "name": "",
          "type": "bytes32"
        }
      ],
      "stateMutability": "view",
      "type": "function"
    },
    {
      "inputs": [],
      "name": "renounceOwnership",
      "outputs": [],
      "stateMutability": "nonpayable",
      "type": "function"
    },
    {
      "inputs": [
        {
          "internalType": "address",
          "name": "from",
          "type": "address"
        },
        {
          "internalType": "address",
          "name": "to",
          "type": "address"
        },
        {
          "internalType": "uint256[]",
          "name": "ids",
          "type": "uint256[]"
        },
        {
          "internalType": "uint256[]",
          "name": "amounts",
          "type": "uint256[]"
        },
        {
          "internalType": "bytes",
          "name": "data",
          "type": "bytes"
        }
      ],
      "name": "safeBatchTransferFrom",
      "outputs": [],
      "stateMutability": "nonpayable",
      "type": "function"
    },
    {
      "inputs": [
        {
          "internalType": "address",
          "name": "from",
          "type": "address"
        },
        {
          "internalType": "address",
          "name": "to",
          "type": "address"
        },
        {
          "internalType": "uint256",
          "name": "id",
          "type": "uint256"
        },
        {
          "internalType": "uint256",
          "name": "amount",
          "type": "uint256"
        },
        {
          "internalType": "bytes",
          "name": "data",
          "type": "bytes"
        }
      ],
      "name": "safeTransferFrom",
      "outputs": [],
      "stateMutability": "nonpayable",
      "type": "function"
    },
    {
      "inputs": [
        {
          "internalType": "address",
          "name": "operator",
          "type": "address"
        },
        {
          "internalType": "bool",
          "name": "approved",
          "type": "bool"
        }
      ],
      "name": "setApprovalForAll",
      "outputs": [],
      "stateMutability": "nonpayable",
      "type": "function"
    },
    {
      "inputs": [
        {
          "internalType": "bytes4",
          "name": "interfaceId",
          "type": "bytes4"
        }
      ],
      "name": "supportsInterface",
      "outputs": [
        {
          "internalType": "bool",
          "name": "",
          "type": "bool"
        }
      ],
      "stateMutability": "view",
      "type": "function"
    },
    {
      "inputs": [
        {
          "internalType": "uint256",
          "name": "",
          "type": "uint256"
        }
      ],
      "name": "tokenSupply",
      "outputs": [
        {
          "internalType": "uint256",
          "name": "",
          "type": "uint256"
        }
      ],
      "stateMutability": "view",
      "type": "function"
    },
    {
      "inputs": [
        {
          "internalType": "address",
          "name": "newOwner",
          "type": "address"
        }
      ],
      "name": "transferOwnership",
      "outputs": [],
      "stateMutability": "nonpayable",
      "type": "function"
    },
    {
      "inputs": [
        {
          "internalType": "address",
          "name": "newImplementation",
          "type": "address"
        }
      ],
      "name": "upgradeTo",
      "outputs": [],
      "stateMutability": "nonpayable",
      "type": "function"
    },
    {
      "inputs": [
        {
          "internalType": "address",
          "name": "newImplementation",
          "type": "address"
        },
        {
          "internalType": "bytes",
          "name": "data",
          "type": "bytes"
        }
      ],
      "name": "upgradeToAndCall",
      "outputs": [],
      "stateMutability": "payable",
      "type": "function"
    },
    {
      "inputs": [
        {
          "internalType": "uint256",
          "name": "tokenID",
          "type": "uint256"
        }
      ],
      "name": "uri",
      "outputs": [
        {
          "internalType": "string",
          "name": "",
          "type": "string"
        }
      ],
      "stateMutability": "view",
      "type": "function"
    }
  ],
  "bytecode": "0x60a06040523073ffffffffffffffffffffffffffffffffffffffff1660809073ffffffffffffffffffffffffffffffffffffffff1681525034801561004357600080fd5b50608051614ea261007b6000396000818161083f015281816108cd01528181610ae001528181610b6e0152610c520152614ea26000f3fe6080604052600436106101655760003560e01c80635cf7b616116100d1578063a22cb4651161008a578063f242432a11610064578063f242432a1461056b578063f2fde38b14610594578063f39012b2146105bd578063f5298aca146105ed57610165565b8063a22cb465146104dc578063cb69d87414610505578063e985e9c51461052e57610165565b80635cf7b616146103d95780635ef935ee14610409578063715018a6146104465780638129fc1c1461045d5780638da5cb5b146104745780639f1020a51461049f57610165565b80632eb2c2d6116101235780632eb2c2d6146102c65780633659cfe6146102ef5780634e1273f4146103185780634f1ef28614610355578063510b51581461037157806352d1902d146103ae57610165565b8062fdd58e1461016a57806301ffc9a7146101a757806306fdde03146101e45780630e89341c1461020f5780632693ebf21461024c57806326a49e3714610289575b600080fd5b34801561017657600080fd5b50610191600480360381019061018c9190612d74565b610616565b60405161019e9190612dc3565b60405180910390f35b3480156101b357600080fd5b506101ce60048036038101906101c99190612e36565b6106df565b6040516101db9190612e7e565b60405180910390f35b3480156101f057600080fd5b506101f96106f1565b6040516102069190612f29565b60405180910390f35b34801561021b57600080fd5b5061023660048036038101906102319190612f4b565b61072e565b6040516102439190612f29565b60405180910390f35b34801561025857600080fd5b50610273600480360381019061026e9190612f4b565b61076a565b6040516102809190612dc3565b60405180910390f35b34801561029557600080fd5b506102b060048036038101906102ab9190612f4b565b610783565b6040516102bd9190612dc3565b60405180910390f35b3480156102d257600080fd5b506102ed60048036038101906102e89190613175565b61079c565b005b3480156102fb57600080fd5b5061031660048036038101906103119190613244565b61083d565b005b34801561032457600080fd5b5061033f600480360381019061033a9190613334565b6109c5565b60405161034c919061346a565b60405180910390f35b61036f600480360381019061036a919061348c565b610ade565b005b34801561037d57600080fd5b5061039860048036038101906103939190612f4b565b610c1a565b6040516103a591906134f7565b60405180910390f35b3480156103ba57600080fd5b506103c3610c4e565b6040516103d0919061352b565b60405180910390f35b6103f360048036038101906103ee9190613546565b610d07565b6040516104009190612f29565b60405180910390f35b34801561041557600080fd5b50610430600480360381019061042b9190612f4b565b610e16565b60405161043d91906134f7565b60405180910390f35b34801561045257600080fd5b5061045b610e4a565b005b34801561046957600080fd5b50610472610e5e565b005b34801561048057600080fd5b50610489610fbc565b60405161049691906134f7565b60405180910390f35b3480156104ab57600080fd5b506104c660048036038101906104c19190613656565b610fe6565b6040516104d39190612f29565b60405180910390f35b3480156104e857600080fd5b5061050360048036038101906104fe91906136de565b61117e565b005b34801561051157600080fd5b5061052c60048036038101906105279190613656565b611194565b005b34801561053a57600080fd5b506105556004803603810190610550919061371e565b6111c2565b6040516105629190612e7e565b60405180910390f35b34801561057757600080fd5b50610592600480360381019061058d919061375e565b611256565b005b3480156105a057600080fd5b506105bb60048036038101906105b69190613244565b6112f7565b005b6105d760048036038101906105d291906137f5565b61137a565b6040516105e49190612dc3565b60405180910390f35b3480156105f957600080fd5b50610614600480360381019061060f9190613864565b61141a565b005b60008073ffffffffffffffffffffffffffffffffffffffff168373ffffffffffffffffffffffffffffffffffffffff1603610686576040517f08c379a000000000000000000000000000000000000000000000000000000000815260040161067d90613929565b60405180910390fd5b6065600083815260200190815260200160002060008473ffffffffffffffffffffffffffffffffffffffff1673ffffffffffffffffffffffffffffffffffffffff16815260200190815260200160002054905092915050565b60006106ea8261142a565b9050919050565b60606040518060400160405280600681526020017f766572736f730000000000000000000000000000000000000000000000000000815250905090565b606061012e60008381526020019081526020016000206040516020016107549190613a4c565b6040516020818303038152906040529050919050565b61012f6020528060005260406000206000915090505481565b6101306020528060005260406000206000915090505481565b6107a461150c565b73ffffffffffffffffffffffffffffffffffffffff168573ffffffffffffffffffffffffffffffffffffffff1614806107ea57506107e9856107e461150c565b6111c2565b5b610829576040517f08c379a000000000000000000000000000000000000000000000000000000000815260040161082090613ad5565b60405180910390fd5b6108368585858585611514565b5050505050565b7f000000000000000000000000000000000000000000000000000000000000000073ffffffffffffffffffffffffffffffffffffffff163073ffffffffffffffffffffffffffffffffffffffff16036108cb576040517f08c379a00000000000000000000000000000000000000000000000000000000081526004016108c290613b67565b60405180910390fd5b7f000000000000000000000000000000000000000000000000000000000000000073ffffffffffffffffffffffffffffffffffffffff1661090a611838565b73ffffffffffffffffffffffffffffffffffffffff1614610960576040517f08c379a000000000000000000000000000000000000000000000000000000000815260040161095790613bf9565b60405180910390fd5b6109698161188f565b6109c281600067ffffffffffffffff81111561098857610987612f7d565b5b6040519080825280601f01601f1916602001820160405280156109ba5781602001600182028036833780820191505090505b50600061189a565b50565b60608151835114610a0b576040517f08c379a0000000000000000000000000000000000000000000000000000000008152600401610a0290613c8b565b60405180910390fd5b6000835167ffffffffffffffff811115610a2857610a27612f7d565b5b604051908082528060200260200182016040528015610a565781602001602082028036833780820191505090505b50905060005b8451811015610ad357610aa3858281518110610a7b57610a7a613cab565b5b6020026020010151858381518110610a9657610a95613cab565b5b6020026020010151610616565b828281518110610ab657610ab5613cab565b5b60200260200101818152505080610acc90613d09565b9050610a5c565b508091505092915050565b7f000000000000000000000000000000000000000000000000000000000000000073ffffffffffffffffffffffffffffffffffffffff163073ffffffffffffffffffffffffffffffffffffffff1603610b6c576040517f08c379a0000000000000000000000000000000000000000000000000000000008152600401610b6390613b67565b60405180910390fd5b7f000000000000000000000000000000000000000000000000000000000000000073ffffffffffffffffffffffffffffffffffffffff16610bab611838565b73ffffffffffffffffffffffffffffffffffffffff1614610c01576040517f08c379a0000000000000000000000000000000000000000000000000000000008152600401610bf890613bf9565b60405180910390fd5b610c0a8261188f565b610c168282600161189a565b5050565b6101316020528060005260406000206000915054906101000a900473ffffffffffffffffffffffffffffffffffffffff1681565b60007f000000000000000000000000000000000000000000000000000000000000000073ffffffffffffffffffffffffffffffffffffffff163073ffffffffffffffffffffffffffffffffffffffff1614610cde576040517f08c379a0000000000000000000000000000000000000000000000000000000008152600401610cd590613dc3565b60405180910390fd5b7f360894a13ba1a3210667c828492db98dca3e2076cc3735a920a3ca505d382bbc60001b905090565b60606000610d158486610616565b14610d55576040517f08c379a0000000000000000000000000000000000000000000000000000000008152600401610d4c90613e2f565b60405180910390fd5b610d623385600185611a08565b610d70338486600186611256565b61012e60008581526020019081526020016000208054610d8f90613978565b80601f0160208091040260200160405190810160405280929190818152602001828054610dbb90613978565b8015610e085780601f10610ddd57610100808354040283529160200191610e08565b820191906000526020600020905b815481529060010190602001808311610deb57829003601f168201915b505050505090509392505050565b6101326020528060005260406000206000915054906101000a900473ffffffffffffffffffffffffffffffffffffffff1681565b610e52611bb9565b610e5c6000611c37565b565b60008060019054906101000a900460ff16159050808015610e8f5750600160008054906101000a900460ff1660ff16105b80610ebc5750610e9e30611cfd565b158015610ebb5750600160008054906101000a900460ff1660ff16145b5b610efb576040517f08c379a0000000000000000000000000000000000000000000000000000000008152600401610ef290613ec1565b60405180910390fd5b60016000806101000a81548160ff021916908360ff1602179055508015610f38576001600060016101000a81548160ff0219169083151502179055505b610f40611d20565b610f5860405180602001604052806000815250611d79565b610f60611dd4565b8015610fb95760008060016101000a81548160ff0219169083151502179055507f7f26b83ff96e1f2b6a682f133852f6798a09c465da95921460cefb38474024986001604051610fb09190613f33565b60405180910390a15b50565b6000609760009054906101000a900473ffffffffffffffffffffffffffffffffffffffff16905090565b6060610131600084815260200190815260200160002060009054906101000a900473ffffffffffffffffffffffffffffffffffffffff1673ffffffffffffffffffffffffffffffffffffffff163373ffffffffffffffffffffffffffffffffffffffff161461105457600080fd5b600061012e6000858152602001908152602001600020805461107590613978565b9050146110b7576040517f08c379a00000000000000000000000000000000000000000000000000000000081526004016110ae90613f9a565b60405180910390fd5b8161012e600085815260200190815260200160002090816110d89190614147565b5061012e600084815260200190815260200160002080546110f890613978565b80601f016020809104026020016040519081016040528092919081815260200182805461112490613978565b80156111715780601f1061114657610100808354040283529160200191611171565b820191906000526020600020905b81548152906001019060200180831161115457829003601f168201915b5050505050905092915050565b61119061118961150c565b8383611e25565b5050565b61119c611bb9565b8061012e600084815260200190815260200160002090816111bd9190614147565b505050565b6000606660008473ffffffffffffffffffffffffffffffffffffffff1673ffffffffffffffffffffffffffffffffffffffff16815260200190815260200160002060008373ffffffffffffffffffffffffffffffffffffffff1673ffffffffffffffffffffffffffffffffffffffff16815260200190815260200160002060009054906101000a900460ff16905092915050565b61125e61150c565b73ffffffffffffffffffffffffffffffffffffffff168573ffffffffffffffffffffffffffffffffffffffff1614806112a457506112a38561129e61150c565b6111c2565b5b6112e3576040517f08c379a00000000000000000000000000000000000000000000000000000000081526004016112da90613ad5565b60405180910390fd5b6112f08585858585611f91565b5050505050565b6112ff611bb9565b600073ffffffffffffffffffffffffffffffffffffffff168173ffffffffffffffffffffffffffffffffffffffff160361136e576040517f08c379a00000000000000000000000000000000000000000000000000000000081526004016113659061428b565b60405180910390fd5b61137781611c37565b50565b600061138761012d61222f565b600061139461012d612245565b90506113a38382600188611a08565b82610131600083815260200190815260200160002060006101000a81548173ffffffffffffffffffffffffffffffffffffffff021916908373ffffffffffffffffffffffffffffffffffffffff16021790555083610130600083815260200190815260200160002081905550809150509392505050565b611425838383612253565b505050565b60007fd9b67a26000000000000000000000000000000000000000000000000000000007bffffffffffffffffffffffffffffffffffffffffffffffffffffffff1916827bffffffffffffffffffffffffffffffffffffffffffffffffffffffff191614806114f557507f0e89341c000000000000000000000000000000000000000000000000000000007bffffffffffffffffffffffffffffffffffffffffffffffffffffffff1916827bffffffffffffffffffffffffffffffffffffffffffffffffffffffff1916145b8061150557506115048261249b565b5b9050919050565b600033905090565b8151835114611558576040517f08c379a000000000000000000000000000000000000000000000000000000000815260040161154f9061431d565b60405180910390fd5b600073ffffffffffffffffffffffffffffffffffffffff168473ffffffffffffffffffffffffffffffffffffffff16036115c7576040517f08c379a00000000000000000000000000000000000000000000000000000000081526004016115be906143af565b60405180910390fd5b60006115d161150c565b90506115e1818787878787612505565b60005b845181101561179557600085828151811061160257611601613cab565b5b60200260200101519050600085838151811061162157611620613cab565b5b6020026020010151905060006065600084815260200190815260200160002060008b73ffffffffffffffffffffffffffffffffffffffff1673ffffffffffffffffffffffffffffffffffffffff168152602001908152602001600020549050818110156116c3576040517f08c379a00000000000000000000000000000000000000000000000000000000081526004016116ba90614441565b60405180910390fd5b8181036065600085815260200190815260200160002060008c73ffffffffffffffffffffffffffffffffffffffff1673ffffffffffffffffffffffffffffffffffffffff16815260200190815260200160002081905550816065600085815260200190815260200160002060008b73ffffffffffffffffffffffffffffffffffffffff1673ffffffffffffffffffffffffffffffffffffffff168152602001908152602001600020600082825461177a9190614461565b925050819055505050508061178e90613d09565b90506115e4565b508473ffffffffffffffffffffffffffffffffffffffff168673ffffffffffffffffffffffffffffffffffffffff168273ffffffffffffffffffffffffffffffffffffffff167f4a39dc06d4c0dbc64b70af90fd698a233a518aa5d07e595d983b8c0526c8f7fb878760405161180c929190614495565b60405180910390a461182281878787878761250d565b611830818787878787612515565b505050505050565b60006118667f360894a13ba1a3210667c828492db98dca3e2076cc3735a920a3ca505d382bbc60001b6126ec565b60000160009054906101000a900473ffffffffffffffffffffffffffffffffffffffff16905090565b611897611bb9565b50565b6118c67f4910fdfa16fed3260ed0e7147f7cc6da11a60208b5b9406d12a635614ffd914360001b6126f6565b60000160009054906101000a900460ff16156118ea576118e583612700565b611a03565b8273ffffffffffffffffffffffffffffffffffffffff166352d1902d6040518163ffffffff1660e01b8152600401602060405180830381865afa92505050801561195257506040513d601f19601f8201168201806040525081019061194f91906144f8565b60015b611991576040517f08c379a000000000000000000000000000000000000000000000000000000000815260040161198890614597565b60405180910390fd5b7f360894a13ba1a3210667c828492db98dca3e2076cc3735a920a3ca505d382bbc60001b81146119f6576040517f08c379a00000000000000000000000000000000000000000000000000000000081526004016119ed90614629565b60405180910390fd5b50611a028383836127b9565b5b505050565b600073ffffffffffffffffffffffffffffffffffffffff168473ffffffffffffffffffffffffffffffffffffffff1603611a77576040517f08c379a0000000000000000000000000000000000000000000000000000000008152600401611a6e906146bb565b60405180910390fd5b6000611a8161150c565b90506000611a8e856127e5565b90506000611a9b856127e5565b9050611aac83600089858589612505565b846065600088815260200190815260200160002060008973ffffffffffffffffffffffffffffffffffffffff1673ffffffffffffffffffffffffffffffffffffffff1681526020019081526020016000206000828254611b0c9190614461565b925050819055508673ffffffffffffffffffffffffffffffffffffffff16600073ffffffffffffffffffffffffffffffffffffffff168473ffffffffffffffffffffffffffffffffffffffff167fc3d58168c5ae7397731d063d5bbf3d657854427343f4c083240f7aacaa2d0f628989604051611b8a9291906146db565b60405180910390a4611ba18360008985858961250d565b611bb08360008989898961285f565b50505050505050565b611bc161150c565b73ffffffffffffffffffffffffffffffffffffffff16611bdf610fbc565b73ffffffffffffffffffffffffffffffffffffffff1614611c35576040517f08c379a0000000000000000000000000000000000000000000000000000000008152600401611c2c90614750565b60405180910390fd5b565b6000609760009054906101000a900473ffffffffffffffffffffffffffffffffffffffff16905081609760006101000a81548173ffffffffffffffffffffffffffffffffffffffff021916908373ffffffffffffffffffffffffffffffffffffffff1602179055508173ffffffffffffffffffffffffffffffffffffffff168173ffffffffffffffffffffffffffffffffffffffff167f8be0079c531659141344cd1fd0a4f28419497f9722a3daafe3b4186f6b6457e060405160405180910390a35050565b6000808273ffffffffffffffffffffffffffffffffffffffff163b119050919050565b600060019054906101000a900460ff16611d6f576040517f08c379a0000000000000000000000000000000000000000000000000000000008152600401611d66906147e2565b60405180910390fd5b611d77612a36565b565b600060019054906101000a900460ff16611dc8576040517f08c379a0000000000000000000000000000000000000000000000000000000008152600401611dbf906147e2565b60405180910390fd5b611dd181612a97565b50565b600060019054906101000a900460ff16611e23576040517f08c379a0000000000000000000000000000000000000000000000000000000008152600401611e1a906147e2565b60405180910390fd5b565b8173ffffffffffffffffffffffffffffffffffffffff168373ffffffffffffffffffffffffffffffffffffffff1603611e93576040517f08c379a0000000000000000000000000000000000000000000000000000000008152600401611e8a90614874565b60405180910390fd5b80606660008573ffffffffffffffffffffffffffffffffffffffff1673ffffffffffffffffffffffffffffffffffffffff16815260200190815260200160002060008473ffffffffffffffffffffffffffffffffffffffff1673ffffffffffffffffffffffffffffffffffffffff16815260200190815260200160002060006101000a81548160ff0219169083151502179055508173ffffffffffffffffffffffffffffffffffffffff168373ffffffffffffffffffffffffffffffffffffffff167f17307eab39ab6107e8899845ad3d59bd9653f200f220920489ca2b5937696c3183604051611f849190612e7e565b60405180910390a3505050565b600073ffffffffffffffffffffffffffffffffffffffff168473ffffffffffffffffffffffffffffffffffffffff1603612000576040517f08c379a0000000000000000000000000000000000000000000000000000000008152600401611ff7906143af565b60405180910390fd5b600061200a61150c565b90506000612017856127e5565b90506000612024856127e5565b9050612034838989858589612505565b60006065600088815260200190815260200160002060008a73ffffffffffffffffffffffffffffffffffffffff1673ffffffffffffffffffffffffffffffffffffffff168152602001908152602001600020549050858110156120cc576040517f08c379a00000000000000000000000000000000000000000000000000000000081526004016120c390614441565b60405180910390fd5b8581036065600089815260200190815260200160002060008b73ffffffffffffffffffffffffffffffffffffffff1673ffffffffffffffffffffffffffffffffffffffff16815260200190815260200160002081905550856065600089815260200190815260200160002060008a73ffffffffffffffffffffffffffffffffffffffff1673ffffffffffffffffffffffffffffffffffffffff16815260200190815260200160002060008282546121839190614461565b925050819055508773ffffffffffffffffffffffffffffffffffffffff168973ffffffffffffffffffffffffffffffffffffffff168573ffffffffffffffffffffffffffffffffffffffff167fc3d58168c5ae7397731d063d5bbf3d657854427343f4c083240f7aacaa2d0f628a8a6040516122009291906146db565b60405180910390a4612216848a8a86868a61250d565b612224848a8a8a8a8a61285f565b505050505050505050565b6001816000016000828254019250508190555050565b600081600001549050919050565b600073ffffffffffffffffffffffffffffffffffffffff168373ffffffffffffffffffffffffffffffffffffffff16036122c2576040517f08c379a00000000000000000000000000000000000000000000000000000000081526004016122b990614906565b60405180910390fd5b60006122cc61150c565b905060006122d9846127e5565b905060006122e6846127e5565b905061230683876000858560405180602001604052806000815250612505565b60006065600087815260200190815260200160002060008873ffffffffffffffffffffffffffffffffffffffff1673ffffffffffffffffffffffffffffffffffffffff1681526020019081526020016000205490508481101561239e576040517f08c379a000000000000000000000000000000000000000000000000000000000815260040161239590614998565b60405180910390fd5b8481036065600088815260200190815260200160002060008973ffffffffffffffffffffffffffffffffffffffff1673ffffffffffffffffffffffffffffffffffffffff16815260200190815260200160002081905550600073ffffffffffffffffffffffffffffffffffffffff168773ffffffffffffffffffffffffffffffffffffffff168573ffffffffffffffffffffffffffffffffffffffff167fc3d58168c5ae7397731d063d5bbf3d657854427343f4c083240f7aacaa2d0f62898960405161246c9291906146db565b60405180910390a46124928488600086866040518060200160405280600081525061250d565b50505050505050565b60007f01ffc9a7000000000000000000000000000000000000000000000000000000007bffffffffffffffffffffffffffffffffffffffffffffffffffffffff1916827bffffffffffffffffffffffffffffffffffffffffffffffffffffffff1916149050919050565b505050505050565b505050505050565b6125348473ffffffffffffffffffffffffffffffffffffffff16611cfd565b156126e4578373ffffffffffffffffffffffffffffffffffffffff1663bc197c8187878686866040518663ffffffff1660e01b815260040161257a959493929190614a0d565b6020604051808303816000875af19250505080156125b657506040513d601f19601f820116820180604052508101906125b39190614a8a565b60015b61265b576125c2614ac4565b806308c379a00361261e57506125d6614ae6565b806125e15750612620565b806040517f08c379a00000000000000000000000000000000000000000000000000000000081526004016126159190612f29565b60405180910390fd5b505b6040517f08c379a000000000000000000000000000000000000000000000000000000000815260040161265290614be8565b60405180910390fd5b63bc197c8160e01b7bffffffffffffffffffffffffffffffffffffffffffffffffffffffff1916817bffffffffffffffffffffffffffffffffffffffffffffffffffffffff1916146126e2576040517f08c379a00000000000000000000000000000000000000000000000000000000081526004016126d990614c7a565b60405180910390fd5b505b505050505050565b6000819050919050565b6000819050919050565b61270981611cfd565b612748576040517f08c379a000000000000000000000000000000000000000000000000000000000815260040161273f90614d0c565b60405180910390fd5b806127757f360894a13ba1a3210667c828492db98dca3e2076cc3735a920a3ca505d382bbc60001b6126ec565b60000160006101000a81548173ffffffffffffffffffffffffffffffffffffffff021916908373ffffffffffffffffffffffffffffffffffffffff16021790555050565b6127c283612af2565b6000825111806127cf5750805b156127e0576127de8383612b41565b505b505050565b60606000600167ffffffffffffffff81111561280457612803612f7d565b5b6040519080825280602002602001820160405280156128325781602001602082028036833780820191505090505b509050828160008151811061284a57612849613cab565b5b60200260200101818152505080915050919050565b61287e8473ffffffffffffffffffffffffffffffffffffffff16611cfd565b15612a2e578373ffffffffffffffffffffffffffffffffffffffff1663f23a6e6187878686866040518663ffffffff1660e01b81526004016128c4959493929190614d2c565b6020604051808303816000875af192505050801561290057506040513d601f19601f820116820180604052508101906128fd9190614a8a565b60015b6129a55761290c614ac4565b806308c379a0036129685750612920614ae6565b8061292b575061296a565b806040517f08c379a000000000000000000000000000000000000000000000000000000000815260040161295f9190612f29565b60405180910390fd5b505b6040517f08c379a000000000000000000000000000000000000000000000000000000000815260040161299c90614be8565b60405180910390fd5b63f23a6e6160e01b7bffffffffffffffffffffffffffffffffffffffffffffffffffffffff1916817bffffffffffffffffffffffffffffffffffffffffffffffffffffffff191614612a2c576040517f08c379a0000000000000000000000000000000000000000000000000000000008152600401612a2390614c7a565b60405180910390fd5b505b505050505050565b600060019054906101000a900460ff16612a85576040517f08c379a0000000000000000000000000000000000000000000000000000000008152600401612a7c906147e2565b60405180910390fd5b612a95612a9061150c565b611c37565b565b600060019054906101000a900460ff16612ae6576040517f08c379a0000000000000000000000000000000000000000000000000000000008152600401612add906147e2565b60405180910390fd5b612aef81612b6e565b50565b612afb81612700565b8073ffffffffffffffffffffffffffffffffffffffff167fbc7cd75a20ee27fd9adebab32041f755214dbc6bffa90cc0225b39da2e5c2d3b60405160405180910390a250565b6060612b668383604051806060016040528060278152602001614e4660279139612b81565b905092915050565b8060679081612b7d9190614147565b5050565b60606000808573ffffffffffffffffffffffffffffffffffffffff1685604051612bab9190614dc2565b600060405180830381855af49150503d8060008114612be6576040519150601f19603f3d011682016040523d82523d6000602084013e612beb565b606091505b5091509150612bfc86838387612c07565b925050509392505050565b60608315612c69576000835103612c6157612c2185611cfd565b612c60576040517f08c379a0000000000000000000000000000000000000000000000000000000008152600401612c5790614e25565b60405180910390fd5b5b829050612c74565b612c738383612c7c565b5b949350505050565b600082511115612c8f5781518083602001fd5b806040517f08c379a0000000000000000000000000000000000000000000000000000000008152600401612cc39190612f29565b60405180910390fd5b6000604051905090565b600080fd5b600080fd5b600073ffffffffffffffffffffffffffffffffffffffff82169050919050565b6000612d0b82612ce0565b9050919050565b612d1b81612d00565b8114612d2657600080fd5b50565b600081359050612d3881612d12565b92915050565b6000819050919050565b612d5181612d3e565b8114612d5c57600080fd5b50565b600081359050612d6e81612d48565b92915050565b60008060408385031215612d8b57612d8a612cd6565b5b6000612d9985828601612d29565b9250506020612daa85828601612d5f565b9150509250929050565b612dbd81612d3e565b82525050565b6000602082019050612dd86000830184612db4565b92915050565b60007fffffffff0000000000000000000000000000000000000000000000000000000082169050919050565b612e1381612dde565b8114612e1e57600080fd5b50565b600081359050612e3081612e0a565b92915050565b600060208284031215612e4c57612e4b612cd6565b5b6000612e5a84828501612e21565b91505092915050565b60008115159050919050565b612e7881612e63565b82525050565b6000602082019050612e936000830184612e6f565b92915050565b600081519050919050565b600082825260208201905092915050565b60005b83811015612ed3578082015181840152602081019050612eb8565b60008484015250505050565b6000601f19601f8301169050919050565b6000612efb82612e99565b612f058185612ea4565b9350612f15818560208601612eb5565b612f1e81612edf565b840191505092915050565b60006020820190508181036000830152612f438184612ef0565b905092915050565b600060208284031215612f6157612f60612cd6565b5b6000612f6f84828501612d5f565b91505092915050565b600080fd5b7f4e487b7100000000000000000000000000000000000000000000000000000000600052604160045260246000fd5b612fb582612edf565b810181811067ffffffffffffffff82111715612fd457612fd3612f7d565b5b80604052505050565b6000612fe7612ccc565b9050612ff38282612fac565b919050565b600067ffffffffffffffff82111561301357613012612f7d565b5b602082029050602081019050919050565b600080fd5b600061303c61303784612ff8565b612fdd565b9050808382526020820190506020840283018581111561305f5761305e613024565b5b835b8181101561308857806130748882612d5f565b845260208401935050602081019050613061565b5050509392505050565b600082601f8301126130a7576130a6612f78565b5b81356130b7848260208601613029565b91505092915050565b600080fd5b600067ffffffffffffffff8211156130e0576130df612f7d565b5b6130e982612edf565b9050602081019050919050565b82818337600083830152505050565b6000613118613113846130c5565b612fdd565b905082815260208101848484011115613134576131336130c0565b5b61313f8482856130f6565b509392505050565b600082601f83011261315c5761315b612f78565b5b813561316c848260208601613105565b91505092915050565b600080600080600060a0868803121561319157613190612cd6565b5b600061319f88828901612d29565b95505060206131b088828901612d29565b945050604086013567ffffffffffffffff8111156131d1576131d0612cdb565b5b6131dd88828901613092565b935050606086013567ffffffffffffffff8111156131fe576131fd612cdb565b5b61320a88828901613092565b925050608086013567ffffffffffffffff81111561322b5761322a612cdb565b5b61323788828901613147565b9150509295509295909350565b60006020828403121561325a57613259612cd6565b5b600061326884828501612d29565b91505092915050565b600067ffffffffffffffff82111561328c5761328b612f7d565b5b602082029050602081019050919050565b60006132b06132ab84613271565b612fdd565b905080838252602082019050602084028301858111156132d3576132d2613024565b5b835b818110156132fc57806132e88882612d29565b8452602084019350506020810190506132d5565b5050509392505050565b600082601f83011261331b5761331a612f78565b5b813561332b84826020860161329d565b91505092915050565b6000806040838503121561334b5761334a612cd6565b5b600083013567ffffffffffffffff81111561336957613368612cdb565b5b61337585828601613306565b925050602083013567ffffffffffffffff81111561339657613395612cdb565b5b6133a285828601613092565b9150509250929050565b600081519050919050565b600082825260208201905092915050565b6000819050602082019050919050565b6133e181612d3e565b82525050565b60006133f383836133d8565b60208301905092915050565b6000602082019050919050565b6000613417826133ac565b61342181856133b7565b935061342c836133c8565b8060005b8381101561345d57815161344488826133e7565b975061344f836133ff565b925050600181019050613430565b5085935050505092915050565b60006020820190508181036000830152613484818461340c565b905092915050565b600080604083850312156134a3576134a2612cd6565b5b60006134b185828601612d29565b925050602083013567ffffffffffffffff8111156134d2576134d1612cdb565b5b6134de85828601613147565b9150509250929050565b6134f181612d00565b82525050565b600060208201905061350c60008301846134e8565b92915050565b6000819050919050565b61352581613512565b82525050565b6000602082019050613540600083018461351c565b92915050565b60008060006060848603121561355f5761355e612cd6565b5b600061356d86828701612d5f565b935050602061357e86828701612d29565b925050604084013567ffffffffffffffff81111561359f5761359e612cdb565b5b6135ab86828701613147565b9150509250925092565b600067ffffffffffffffff8211156135d0576135cf612f7d565b5b6135d982612edf565b9050602081019050919050565b60006135f96135f4846135b5565b612fdd565b905082815260208101848484011115613615576136146130c0565b5b6136208482856130f6565b509392505050565b600082601f83011261363d5761363c612f78565b5b813561364d8482602086016135e6565b91505092915050565b6000806040838503121561366d5761366c612cd6565b5b600061367b85828601612d5f565b925050602083013567ffffffffffffffff81111561369c5761369b612cdb565b5b6136a885828601613628565b9150509250929050565b6136bb81612e63565b81146136c657600080fd5b50565b6000813590506136d8816136b2565b92915050565b600080604083850312156136f5576136f4612cd6565b5b600061370385828601612d29565b9250506020613714858286016136c9565b9150509250929050565b6000806040838503121561373557613734612cd6565b5b600061374385828601612d29565b925050602061375485828601612d29565b9150509250929050565b600080600080600060a0868803121561377a57613779612cd6565b5b600061378888828901612d29565b955050602061379988828901612d29565b94505060406137aa88828901612d5f565b93505060606137bb88828901612d5f565b925050608086013567ffffffffffffffff8111156137dc576137db612cdb565b5b6137e888828901613147565b9150509295509295909350565b60008060006060848603121561380e5761380d612cd6565b5b600084013567ffffffffffffffff81111561382c5761382b612cdb565b5b61383886828701613147565b935050602061384986828701612d5f565b925050604061385a86828701612d29565b9150509250925092565b60008060006060848603121561387d5761387c612cd6565b5b600061388b86828701612d29565b935050602061389c86828701612d5f565b92505060406138ad86828701612d5f565b9150509250925092565b7f455243313135353a2061646472657373207a65726f206973206e6f742061207660008201527f616c6964206f776e657200000000000000000000000000000000000000000000602082015250565b6000613913602a83612ea4565b915061391e826138b7565b604082019050919050565b6000602082019050818103600083015261394281613906565b9050919050565b7f4e487b7100000000000000000000000000000000000000000000000000000000600052602260045260246000fd5b6000600282049050600182168061399057607f821691505b6020821081036139a3576139a2613949565b5b50919050565b600081905092915050565b60008190508160005260206000209050919050565b600081546139d681613978565b6139e081866139a9565b945060018216600081146139fb5760018114613a1057613a43565b60ff1983168652811515820286019350613a43565b613a19856139b4565b60005b83811015613a3b57815481890152600182019150602081019050613a1c565b838801955050505b50505092915050565b6000613a5882846139c9565b915081905092915050565b7f455243313135353a2063616c6c6572206973206e6f7420746f6b656e206f776e60008201527f6572206f7220617070726f766564000000000000000000000000000000000000602082015250565b6000613abf602e83612ea4565b9150613aca82613a63565b604082019050919050565b60006020820190508181036000830152613aee81613ab2565b9050919050565b7f46756e6374696f6e206d7573742062652063616c6c6564207468726f7567682060008201527f64656c656761746563616c6c0000000000000000000000000000000000000000602082015250565b6000613b51602c83612ea4565b9150613b5c82613af5565b604082019050919050565b60006020820190508181036000830152613b8081613b44565b9050919050565b7f46756e6374696f6e206d7573742062652063616c6c6564207468726f7567682060008201527f6163746976652070726f78790000000000000000000000000000000000000000602082015250565b6000613be3602c83612ea4565b9150613bee82613b87565b604082019050919050565b60006020820190508181036000830152613c1281613bd6565b9050919050565b7f455243313135353a206163636f756e747320616e6420696473206c656e67746860008201527f206d69736d617463680000000000000000000000000000000000000000000000602082015250565b6000613c75602983612ea4565b9150613c8082613c19565b604082019050919050565b60006020820190508181036000830152613ca481613c68565b9050919050565b7f4e487b7100000000000000000000000000000000000000000000000000000000600052603260045260246000fd5b7f4e487b7100000000000000000000000000000000000000000000000000000000600052601160045260246000fd5b6000613d1482612d3e565b91507fffffffffffffffffffffffffffffffffffffffffffffffffffffffffffffffff8203613d4657613d45613cda565b5b600182019050919050565b7f555550535570677261646561626c653a206d757374206e6f742062652063616c60008201527f6c6564207468726f7567682064656c656761746563616c6c0000000000000000602082015250565b6000613dad603883612ea4565b9150613db882613d51565b604082019050919050565b60006020820190508181036000830152613ddc81613da0565b9050919050565b7f4f6e6c79206f6e65207065722075736572000000000000000000000000000000600082015250565b6000613e19601183612ea4565b9150613e2482613de3565b602082019050919050565b60006020820190508181036000830152613e4881613e0c565b9050919050565b7f496e697469616c697a61626c653a20636f6e747261637420697320616c72656160008201527f647920696e697469616c697a6564000000000000000000000000000000000000602082015250565b6000613eab602e83612ea4565b9150613eb682613e4f565b604082019050919050565b60006020820190508181036000830152613eda81613e9e565b9050919050565b6000819050919050565b600060ff82169050919050565b6000819050919050565b6000613f1d613f18613f1384613ee1565b613ef8565b613eeb565b9050919050565b613f2d81613f02565b82525050565b6000602082019050613f486000830184613f24565b92915050565b7f55524920616c7265616479207365740000000000000000000000000000000000600082015250565b6000613f84600f83612ea4565b9150613f8f82613f4e565b602082019050919050565b60006020820190508181036000830152613fb381613f77565b9050919050565b60006020601f8301049050919050565b600082821b905092915050565b6000600883026140077fffffffffffffffffffffffffffffffffffffffffffffffffffffffffffffffff82613fca565b6140118683613fca565b95508019841693508086168417925050509392505050565b600061404461403f61403a84612d3e565b613ef8565b612d3e565b9050919050565b6000819050919050565b61405e83614029565b61407261406a8261404b565b848454613fd7565b825550505050565b600090565b61408761407a565b614092818484614055565b505050565b5b818110156140b6576140ab60008261407f565b600181019050614098565b5050565b601f8211156140fb576140cc816139b4565b6140d584613fba565b810160208510156140e4578190505b6140f86140f085613fba565b830182614097565b50505b505050565b600082821c905092915050565b600061411e60001984600802614100565b1980831691505092915050565b6000614137838361410d565b9150826002028217905092915050565b61415082612e99565b67ffffffffffffffff81111561416957614168612f7d565b5b6141738254613978565b61417e8282856140ba565b600060209050601f8311600181146141b1576000841561419f578287015190505b6141a9858261412b565b865550614211565b601f1984166141bf866139b4565b60005b828110156141e7578489015182556001820191506020850194506020810190506141c2565b868310156142045784890151614200601f89168261410d565b8355505b6001600288020188555050505b505050505050565b7f4f776e61626c653a206e6577206f776e657220697320746865207a65726f206160008201527f6464726573730000000000000000000000000000000000000000000000000000602082015250565b6000614275602683612ea4565b915061428082614219565b604082019050919050565b600060208201905081810360008301526142a481614268565b9050919050565b7f455243313135353a2069647320616e6420616d6f756e7473206c656e6774682060008201527f6d69736d61746368000000000000000000000000000000000000000000000000602082015250565b6000614307602883612ea4565b9150614312826142ab565b604082019050919050565b60006020820190508181036000830152614336816142fa565b9050919050565b7f455243313135353a207472616e7366657220746f20746865207a65726f20616460008201527f6472657373000000000000000000000000000000000000000000000000000000602082015250565b6000614399602583612ea4565b91506143a48261433d565b604082019050919050565b600060208201905081810360008301526143c88161438c565b9050919050565b7f455243313135353a20696e73756666696369656e742062616c616e636520666f60008201527f72207472616e7366657200000000000000000000000000000000000000000000602082015250565b600061442b602a83612ea4565b9150614436826143cf565b604082019050919050565b6000602082019050818103600083015261445a8161441e565b9050919050565b600061446c82612d3e565b915061447783612d3e565b925082820190508082111561448f5761448e613cda565b5b92915050565b600060408201905081810360008301526144af818561340c565b905081810360208301526144c3818461340c565b90509392505050565b6144d581613512565b81146144e057600080fd5b50565b6000815190506144f2816144cc565b92915050565b60006020828403121561450e5761450d612cd6565b5b600061451c848285016144e3565b91505092915050565b7f45524331393637557067726164653a206e657720696d706c656d656e7461746960008201527f6f6e206973206e6f742055555053000000000000000000000000000000000000602082015250565b6000614581602e83612ea4565b915061458c82614525565b604082019050919050565b600060208201905081810360008301526145b081614574565b9050919050565b7f45524331393637557067726164653a20756e737570706f727465642070726f7860008201527f6961626c65555549440000000000000000000000000000000000000000000000602082015250565b6000614613602983612ea4565b915061461e826145b7565b604082019050919050565b6000602082019050818103600083015261464281614606565b9050919050565b7f455243313135353a206d696e7420746f20746865207a65726f2061646472657360008201527f7300000000000000000000000000000000000000000000000000000000000000602082015250565b60006146a5602183612ea4565b91506146b082614649565b604082019050919050565b600060208201905081810360008301526146d481614698565b9050919050565b60006040820190506146f06000830185612db4565b6146fd6020830184612db4565b9392505050565b7f4f776e61626c653a2063616c6c6572206973206e6f7420746865206f776e6572600082015250565b600061473a602083612ea4565b915061474582614704565b602082019050919050565b600060208201905081810360008301526147698161472d565b9050919050565b7f496e697469616c697a61626c653a20636f6e7472616374206973206e6f74206960008201527f6e697469616c697a696e67000000000000000000000000000000000000000000602082015250565b60006147cc602b83612ea4565b91506147d782614770565b604082019050919050565b600060208201905081810360008301526147fb816147bf565b9050919050565b7f455243313135353a2073657474696e6720617070726f76616c2073746174757360008201527f20666f722073656c660000000000000000000000000000000000000000000000602082015250565b600061485e602983612ea4565b915061486982614802565b604082019050919050565b6000602082019050818103600083015261488d81614851565b9050919050565b7f455243313135353a206275726e2066726f6d20746865207a65726f206164647260008201527f6573730000000000000000000000000000000000000000000000000000000000602082015250565b60006148f0602383612ea4565b91506148fb82614894565b604082019050919050565b6000602082019050818103600083015261491f816148e3565b9050919050565b7f455243313135353a206275726e20616d6f756e7420657863656564732062616c60008201527f616e636500000000000000000000000000000000000000000000000000000000602082015250565b6000614982602483612ea4565b915061498d82614926565b604082019050919050565b600060208201905081810360008301526149b181614975565b9050919050565b600081519050919050565b600082825260208201905092915050565b60006149df826149b8565b6149e981856149c3565b93506149f9818560208601612eb5565b614a0281612edf565b840191505092915050565b600060a082019050614a2260008301886134e8565b614a2f60208301876134e8565b8181036040830152614a41818661340c565b90508181036060830152614a55818561340c565b90508181036080830152614a6981846149d4565b90509695505050505050565b600081519050614a8481612e0a565b92915050565b600060208284031215614aa057614a9f612cd6565b5b6000614aae84828501614a75565b91505092915050565b60008160e01c9050919050565b600060033d1115614ae35760046000803e614ae0600051614ab7565b90505b90565b600060443d10614b7357614af8612ccc565b60043d036004823e80513d602482011167ffffffffffffffff82111715614b20575050614b73565b808201805167ffffffffffffffff811115614b3e5750505050614b73565b80602083010160043d038501811115614b5b575050505050614b73565b614b6a82602001850186612fac565b82955050505050505b90565b7f455243313135353a207472616e7366657220746f206e6f6e2d4552433131353560008201527f526563656976657220696d706c656d656e746572000000000000000000000000602082015250565b6000614bd2603483612ea4565b9150614bdd82614b76565b604082019050919050565b60006020820190508181036000830152614c0181614bc5565b9050919050565b7f455243313135353a204552433131353552656365697665722072656a6563746560008201527f6420746f6b656e73000000000000000000000000000000000000000000000000602082015250565b6000614c64602883612ea4565b9150614c6f82614c08565b604082019050919050565b60006020820190508181036000830152614c9381614c57565b9050919050565b7f455243313936373a206e657720696d706c656d656e746174696f6e206973206e60008201527f6f74206120636f6e747261637400000000000000000000000000000000000000602082015250565b6000614cf6602d83612ea4565b9150614d0182614c9a565b604082019050919050565b60006020820190508181036000830152614d2581614ce9565b9050919050565b600060a082019050614d4160008301886134e8565b614d4e60208301876134e8565b614d5b6040830186612db4565b614d686060830185612db4565b8181036080830152614d7a81846149d4565b90509695505050505050565b600081905092915050565b6000614d9c826149b8565b614da68185614d86565b9350614db6818560208601612eb5565b80840191505092915050565b6000614dce8284614d91565b915081905092915050565b7f416464726573733a2063616c6c20746f206e6f6e2d636f6e7472616374000000600082015250565b6000614e0f601d83612ea4565b9150614e1a82614dd9565b602082019050919050565b60006020820190508181036000830152614e3e81614e02565b905091905056fe416464726573733a206c6f772d6c6576656c2064656c65676174652063616c6c206661696c6564a2646970667358221220ed839324875e865268ff36f1e35e798780d72f688f9e9d130d5ce6532365f8ae64736f6c63430008130033",
  "linkReferences": {},
  "deployedLinkReferences": {}
}