{
  "_format": "hh-sol-artifact-1",
  "contractName": "CollectionRegistry",
  "sourceName": "contracts/CollectionsRegistry.sol",
  "abi": [
    {
      "anonymous": false,
      "inputs": [
        {
          "indexed": false,
          "internalType": "address",
          "name": "previousAdmin",
          "type": "address"
        },
        {
          "indexed": false,
          "internalType": "address",
          "name": "newAdmin",
          "type": "address"
        }
      ],
      "name": "AdminChanged",
      "type": "event"
    },
    {
      "anonymous": false,
      "inputs": [
        {
          "indexed": true,
          "internalType": "address",
          "name": "account",
          "type": "address"
        },
        {
          "indexed": true,
          "internalType": "address",
          "name": "operator",
          "type": "address"
        },
        {
          "indexed": false,
          "internalType": "bool",
          "name": "approved",
          "type": "bool"
        }
      ],
      "name": "ApprovalForAll",
      "type": "event"
    },
    {
      "anonymous": false,
      "inputs": [
        {
          "indexed": true,
          "internalType": "address",
          "name": "beacon",
          "type": "address"
        }
      ],
      "name": "BeaconUpgraded",
      "type": "event"
    },
    {
      "anonymous": false,
      "inputs": [
        {
          "indexed": false,
          "internalType": "uint8",
          "name": "version",
          "type": "uint8"
        }
      ],
      "name": "Initialized",
      "type": "event"
    },
    {
      "anonymous": false,
      "inputs": [
        {
          "indexed": true,
          "internalType": "address",
          "name": "previousOwner",
          "type": "address"
        },
        {
          "indexed": true,
          "internalType": "address",
          "name": "newOwner",
          "type": "address"
        }
      ],
      "name": "OwnershipTransferred",
      "type": "event"
    },
    {
      "anonymous": false,
      "inputs": [
        {
          "indexed": true,
          "internalType": "address",
          "name": "operator",
          "type": "address"
        },
        {
          "indexed": true,
          "internalType": "address",
          "name": "from",
          "type": "address"
        },
        {
          "indexed": true,
          "internalType": "address",
          "name": "to",
          "type": "address"
        },
        {
          "indexed": false,
          "internalType": "uint256[]",
          "name": "ids",
          "type": "uint256[]"
        },
        {
          "indexed": false,
          "internalType": "uint256[]",
          "name": "values",
          "type": "uint256[]"
        }
      ],
      "name": "TransferBatch",
      "type": "event"
    },
    {
      "anonymous": false,
      "inputs": [
        {
          "indexed": true,
          "internalType": "address",
          "name": "operator",
          "type": "address"
        },
        {
          "indexed": true,
          "internalType": "address",
          "name": "from",
          "type": "address"
        },
        {
          "indexed": true,
          "internalType": "address",
          "name": "to",
          "type": "address"
        },
        {
          "indexed": false,
          "internalType": "uint256",
          "name": "id",
          "type": "uint256"
        },
        {
          "indexed": false,
          "internalType": "uint256",
          "name": "value",
          "type": "uint256"
        }
      ],
      "name": "TransferSingle",
      "type": "event"
    },
    {
      "anonymous": false,
      "inputs": [
        {
          "indexed": false,
          "internalType": "string",
          "name": "value",
          "type": "string"
        },
        {
          "indexed": true,
          "internalType": "uint256",
          "name": "id",
          "type": "uint256"
        }
      ],
      "name": "URI",
      "type": "event"
    },
    {
      "anonymous": false,
      "inputs": [
        {
          "indexed": true,
          "internalType": "address",
          "name": "implementation",
          "type": "address"
        }
      ],
      "name": "Upgraded",
      "type": "event"
    },
    {
      "inputs": [
        {
          "internalType": "address",
          "name": "account",
          "type": "address"
        },
        {
          "internalType": "uint256",
          "name": "id",
          "type": "uint256"
        }
      ],
      "name": "balanceOf",
      "outputs": [
        {
          "internalType": "uint256",
          "name": "",
          "type": "uint256"
        }
      ],
      "stateMutability": "view",
      "type": "function"
    },
    {
      "inputs": [
        {
          "internalType": "address[]",
          "name": "accounts",
          "type": "address[]"
        },
        {
          "internalType": "uint256[]",
          "name": "ids",
          "type": "uint256[]"
        }
      ],
      "name": "balanceOfBatch",
      "outputs": [
        {
          "internalType": "uint256[]",
          "name": "",
          "type": "uint256[]"
        }
      ],
      "stateMutability": "view",
      "type": "function"
    },
    {
      "inputs": [
        {
          "internalType": "address",
          "name": "account",
          "type": "address"
        },
        {
          "internalType": "uint256",
          "name": "id",
          "type": "uint256"
        },
        {
          "internalType": "uint256",
          "name": "value",
          "type": "uint256"
        }
      ],
      "name": "burn",
      "outputs": [],
      "stateMutability": "nonpayable",
      "type": "function"
    },
    {
      "inputs": [
        {
          "internalType": "uint256",
          "name": "id",
          "type": "uint256"
        },
        {
          "internalType": "address",
          "name": "recipient",
          "type": "address"
        },
        {
          "internalType": "bytes",
          "name": "data",
          "type": "bytes"
        }
      ],
      "name": "collect",
      "outputs": [
        {
          "internalType": "string",
          "name": "",
          "type": "string"
        }
      ],
      "stateMutability": "payable",
      "type": "function"
    },
    {
      "inputs": [
        {
          "internalType": "uint256",
          "name": "",
          "type": "uint256"
        }
      ],
      "name": "collectionAddress",
      "outputs": [
        {
          "internalType": "address",
          "name": "",
          "type": "address"
        }
      ],
      "stateMutability": "view",
      "type": "function"
    },
    {
      "inputs": [
        {
          "internalType": "bytes",
          "name": "data",
          "type": "bytes"
        },
        {
          "internalType": "string",
          "name": "url",
          "type": "string"
        },
        {
          "internalType": "address",
          "name": "_collectionAddress",
          "type": "address"
        },
        {
          "internalType": "uint256",
          "name": "_price",
          "type": "uint256"
        },
        {
          "internalType": "address",
          "name": "_creator",
          "type": "address"
        }
      ],
      "name": "createCollection",
      "outputs": [],
      "stateMutability": "payable",
      "type": "function"
    },
    {
      "inputs": [
        {
          "internalType": "uint256",
          "name": "",
          "type": "uint256"
        }
      ],
      "name": "creator",
      "outputs": [
        {
          "internalType": "address",
          "name": "",
          "type": "address"
        }
      ],
      "stateMutability": "view",
      "type": "function"
    },
    {
      "inputs": [],
      "name": "initialize",
      "outputs": [],
      "stateMutability": "nonpayable",
      "type": "function"
    },
    {
      "inputs": [
        {
          "internalType": "address",
          "name": "account",
          "type": "address"
        },
        {
          "internalType": "address",
          "name": "operator",
          "type": "address"
        }
      ],
      "name": "isApprovedForAll",
      "outputs": [
        {
          "internalType": "bool",
          "name": "",
          "type": "bool"
        }
      ],
      "stateMutability": "view",
      "type": "function"
    },
    {
      "inputs": [],
      "name": "name",
      "outputs": [
        {
          "internalType": "string",
          "name": "",
          "type": "string"
        }
      ],
      "stateMutability": "pure",
      "type": "function"
    },
    {
      "inputs": [
        {
          "internalType": "uint256",
          "name": "tokenId",
          "type": "uint256"
        },
        {
          "internalType": "string",
          "name": "url",
          "type": "string"
        }
      ],
      "name": "overrideTokenMetadata",
      "outputs": [],
      "stateMutability": "nonpayable",
      "type": "function"
    },
    {
      "inputs": [],
      "name": "owner",
      "outputs": [
        {
          "internalType": "address",
          "name": "",
          "type": "address"
        }
      ],
      "stateMutability": "view",
      "type": "function"
    },
    {
      "inputs": [
        {
          "internalType": "uint256",
          "name": "",
          "type": "uint256"
        }
      ],
      "name": "price",
      "outputs": [
        {
          "internalType": "uint256",
          "name": "",
          "type": "uint256"
        }
      ],
      "stateMutability": "view",
      "type": "function"
    },
    {
      "inputs": [],
      "name": "proxiableUUID",
      "outputs": [
        {
          "internalType": "bytes32",
          "name": "",
          "type": "bytes32"
        }
      ],
      "stateMutability": "view",
      "type": "function"
    },
    {
      "inputs": [],
      "name": "renounceOwnership",
      "outputs": [],
      "stateMutability": "nonpayable",
      "type": "function"
    },
    {
      "inputs": [
        {
          "internalType": "address",
          "name": "from",
          "type": "address"
        },
        {
          "internalType": "address",
          "name": "to",
          "type": "address"
        },
        {
          "internalType": "uint256[]",
          "name": "ids",
          "type": "uint256[]"
        },
        {
          "internalType": "uint256[]",
          "name": "amounts",
          "type": "uint256[]"
        },
        {
          "internalType": "bytes",
          "name": "data",
          "type": "bytes"
        }
      ],
      "name": "safeBatchTransferFrom",
      "outputs": [],
      "stateMutability": "nonpayable",
      "type": "function"
    },
    {
      "inputs": [
        {
          "internalType": "address",
          "name": "from",
          "type": "address"
        },
        {
          "internalType": "address",
          "name": "to",
          "type": "address"
        },
        {
          "internalType": "uint256",
          "name": "id",
          "type": "uint256"
        },
        {
          "internalType": "uint256",
          "name": "amount",
          "type": "uint256"
        },
        {
          "internalType": "bytes",
          "name": "data",
          "type": "bytes"
        }
      ],
      "name": "safeTransferFrom",
      "outputs": [],
      "stateMutability": "nonpayable",
      "type": "function"
    },
    {
      "inputs": [
        {
          "internalType": "address",
          "name": "operator",
          "type": "address"
        },
        {
          "internalType": "bool",
          "name": "approved",
          "type": "bool"
        }
      ],
      "name": "setApprovalForAll",
      "outputs": [],
      "stateMutability": "nonpayable",
      "type": "function"
    },
    {
      "inputs": [
        {
          "internalType": "bytes4",
          "name": "interfaceId",
          "type": "bytes4"
        }
      ],
      "name": "supportsInterface",
      "outputs": [
        {
          "internalType": "bool",
          "name": "",
          "type": "bool"
        }
      ],
      "stateMutability": "view",
      "type": "function"
    },
    {
      "inputs": [
        {
          "internalType": "uint256",
          "name": "",
          "type": "uint256"
        }
      ],
      "name": "tokenSupply",
      "outputs": [
        {
          "internalType": "uint256",
          "name": "",
          "type": "uint256"
        }
      ],
      "stateMutability": "view",
      "type": "function"
    },
    {
      "inputs": [
        {
          "internalType": "address",
          "name": "newOwner",
          "type": "address"
        }
      ],
      "name": "transferOwnership",
      "outputs": [],
      "stateMutability": "nonpayable",
      "type": "function"
    },
    {
      "inputs": [
        {
          "internalType": "address",
          "name": "newImplementation",
          "type": "address"
        }
      ],
      "name": "upgradeTo",
      "outputs": [],
      "stateMutability": "nonpayable",
      "type": "function"
    },
    {
      "inputs": [
        {
          "internalType": "address",
          "name": "newImplementation",
          "type": "address"
        },
        {
          "internalType": "bytes",
          "name": "data",
          "type": "bytes"
        }
      ],
      "name": "upgradeToAndCall",
      "outputs": [],
      "stateMutability": "payable",
      "type": "function"
    },
    {
      "inputs": [
        {
          "internalType": "uint256",
          "name": "tokenID",
          "type": "uint256"
        }
      ],
      "name": "uri",
      "outputs": [
        {
          "internalType": "string",
          "name": "",
          "type": "string"
        }
      ],
      "stateMutability": "view",
      "type": "function"
    }
  ],
  "bytecode": "0x60a06040523073ffffffffffffffffffffffffffffffffffffffff1660809073ffffffffffffffffffffffffffffffffffffffff1681525034801561004357600080fd5b50608051614f0a61007b600039600081816109110152818161099f01528181610bb201528181610c400152610d240152614f0a6000f3fe60806040526004361061014a5760003560e01c806352d1902d116100b6578063a22cb4651161006f578063a22cb465146104a0578063cb69d874146104c9578063e985e9c5146104f2578063f242432a1461052f578063f2fde38b14610558578063f5298aca146105815761014a565b806352d1902d146103af5780635cf7b616146103da5780635ef935ee1461040a578063715018a6146104475780638129fc1c1461045e5780638da5cb5b146104755761014a565b806326a49e371161010857806326a49e371461028a5780632eb2c2d6146102c75780633659cfe6146102f05780634e1273f4146103195780634f1ef28614610356578063510b5158146103725761014a565b8062fdd58e1461014f57806301ffc9a71461018c57806306fdde03146101c95780630e89341c146101f4578063240bc112146102315780632693ebf21461024d575b600080fd5b34801561015b57600080fd5b5061017660048036038101906101719190612d3a565b6105aa565b6040516101839190612d89565b60405180910390f35b34801561019857600080fd5b506101b360048036038101906101ae9190612dfc565b610673565b6040516101c09190612e44565b60405180910390f35b3480156101d557600080fd5b506101de610685565b6040516101eb9190612eef565b60405180910390f35b34801561020057600080fd5b5061021b60048036038101906102169190612f11565b6106c2565b6040516102289190612eef565b60405180910390f35b61024b600480360381019061024691906130d3565b6106fe565b005b34801561025957600080fd5b50610274600480360381019061026f9190612f11565b61083c565b6040516102819190612d89565b60405180910390f35b34801561029657600080fd5b506102b160048036038101906102ac9190612f11565b610855565b6040516102be9190612d89565b60405180910390f35b3480156102d357600080fd5b506102ee60048036038101906102e9919061324c565b61086e565b005b3480156102fc57600080fd5b506103176004803603810190610312919061331b565b61090f565b005b34801561032557600080fd5b50610340600480360381019061033b919061340b565b610a97565b60405161034d9190613541565b60405180910390f35b610370600480360381019061036b9190613563565b610bb0565b005b34801561037e57600080fd5b5061039960048036038101906103949190612f11565b610cec565b6040516103a691906135ce565b60405180910390f35b3480156103bb57600080fd5b506103c4610d20565b6040516103d19190613602565b60405180910390f35b6103f460048036038101906103ef919061361d565b610dd9565b6040516104019190612eef565b60405180910390f35b34801561041657600080fd5b50610431600480360381019061042c9190612f11565b610ee8565b60405161043e91906135ce565b60405180910390f35b34801561045357600080fd5b5061045c610f1c565b005b34801561046a57600080fd5b50610473610f30565b005b34801561048157600080fd5b5061048a61108e565b60405161049791906135ce565b60405180910390f35b3480156104ac57600080fd5b506104c760048036038101906104c291906136b8565b6110b8565b005b3480156104d557600080fd5b506104f060048036038101906104eb9190613799565b6110ce565b005b3480156104fe57600080fd5b50610519600480360381019061051491906137f5565b6110fc565b6040516105269190612e44565b60405180910390f35b34801561053b57600080fd5b5061055660048036038101906105519190613835565b611190565b005b34801561056457600080fd5b5061057f600480360381019061057a919061331b565b611231565b005b34801561058d57600080fd5b506105a860048036038101906105a391906138cc565b6112b4565b005b60008073ffffffffffffffffffffffffffffffffffffffff168373ffffffffffffffffffffffffffffffffffffffff160361061a576040517f08c379a000000000000000000000000000000000000000000000000000000000815260040161061190613991565b60405180910390fd5b6065600083815260200190815260200160002060008473ffffffffffffffffffffffffffffffffffffffff1673ffffffffffffffffffffffffffffffffffffffff16815260200190815260200160002054905092915050565b600061067e826112c4565b9050919050565b60606040518060400160405280600681526020017f766572736f730000000000000000000000000000000000000000000000000000815250905090565b606061012e60008381526020019081526020016000206040516020016106e89190613ab4565b6040516020818303038152906040529050919050565b61070961012d6113a6565b600061071661012d6113bc565b9050610725828260018a6113ca565b6107738187878080601f016020809104026020016040519081016040528093929190818152602001838380828437600081840152601f19601f8201169050808301925050505050505061157b565b5081610131600083815260200190815260200160002060006101000a81548173ffffffffffffffffffffffffffffffffffffffff021916908373ffffffffffffffffffffffffffffffffffffffff16021790555083610132600083815260200190815260200160002060006101000a81548173ffffffffffffffffffffffffffffffffffffffff021916908373ffffffffffffffffffffffffffffffffffffffff1602179055508261013060008381526020019081526020016000208190555050505050505050565b61012f6020528060005260406000206000915090505481565b6101306020528060005260406000206000915090505481565b6108766116a7565b73ffffffffffffffffffffffffffffffffffffffff168573ffffffffffffffffffffffffffffffffffffffff1614806108bc57506108bb856108b66116a7565b6110fc565b5b6108fb576040517f08c379a00000000000000000000000000000000000000000000000000000000081526004016108f290613b3d565b60405180910390fd5b61090885858585856116af565b5050505050565b7f000000000000000000000000000000000000000000000000000000000000000073ffffffffffffffffffffffffffffffffffffffff163073ffffffffffffffffffffffffffffffffffffffff160361099d576040517f08c379a000000000000000000000000000000000000000000000000000000000815260040161099490613bcf565b60405180910390fd5b7f000000000000000000000000000000000000000000000000000000000000000073ffffffffffffffffffffffffffffffffffffffff166109dc6119d3565b73ffffffffffffffffffffffffffffffffffffffff1614610a32576040517f08c379a0000000000000000000000000000000000000000000000000000000008152600401610a2990613c61565b60405180910390fd5b610a3b81611a2a565b610a9481600067ffffffffffffffff811115610a5a57610a59612f48565b5b6040519080825280601f01601f191660200182016040528015610a8c5781602001600182028036833780820191505090505b506000611a35565b50565b60608151835114610add576040517f08c379a0000000000000000000000000000000000000000000000000000000008152600401610ad490613cf3565b60405180910390fd5b6000835167ffffffffffffffff811115610afa57610af9612f48565b5b604051908082528060200260200182016040528015610b285781602001602082028036833780820191505090505b50905060005b8451811015610ba557610b75858281518110610b4d57610b4c613d13565b5b6020026020010151858381518110610b6857610b67613d13565b5b60200260200101516105aa565b828281518110610b8857610b87613d13565b5b60200260200101818152505080610b9e90613d71565b9050610b2e565b508091505092915050565b7f000000000000000000000000000000000000000000000000000000000000000073ffffffffffffffffffffffffffffffffffffffff163073ffffffffffffffffffffffffffffffffffffffff1603610c3e576040517f08c379a0000000000000000000000000000000000000000000000000000000008152600401610c3590613bcf565b60405180910390fd5b7f000000000000000000000000000000000000000000000000000000000000000073ffffffffffffffffffffffffffffffffffffffff16610c7d6119d3565b73ffffffffffffffffffffffffffffffffffffffff1614610cd3576040517f08c379a0000000000000000000000000000000000000000000000000000000008152600401610cca90613c61565b60405180910390fd5b610cdc82611a2a565b610ce882826001611a35565b5050565b6101316020528060005260406000206000915054906101000a900473ffffffffffffffffffffffffffffffffffffffff1681565b60007f000000000000000000000000000000000000000000000000000000000000000073ffffffffffffffffffffffffffffffffffffffff163073ffffffffffffffffffffffffffffffffffffffff1614610db0576040517f08c379a0000000000000000000000000000000000000000000000000000000008152600401610da790613e2b565b60405180910390fd5b7f360894a13ba1a3210667c828492db98dca3e2076cc3735a920a3ca505d382bbc60001b905090565b60606000610de784866105aa565b14610e27576040517f08c379a0000000000000000000000000000000000000000000000000000000008152600401610e1e90613e97565b60405180910390fd5b610e3433856001856113ca565b610e42338486600186611190565b61012e60008581526020019081526020016000208054610e61906139e0565b80601f0160208091040260200160405190810160405280929190818152602001828054610e8d906139e0565b8015610eda5780601f10610eaf57610100808354040283529160200191610eda565b820191906000526020600020905b815481529060010190602001808311610ebd57829003601f168201915b505050505090509392505050565b6101326020528060005260406000206000915054906101000a900473ffffffffffffffffffffffffffffffffffffffff1681565b610f24611ba3565b610f2e6000611c21565b565b60008060019054906101000a900460ff16159050808015610f615750600160008054906101000a900460ff1660ff16105b80610f8e5750610f7030611ce7565b158015610f8d5750600160008054906101000a900460ff1660ff16145b5b610fcd576040517f08c379a0000000000000000000000000000000000000000000000000000000008152600401610fc490613f29565b60405180910390fd5b60016000806101000a81548160ff021916908360ff160217905550801561100a576001600060016101000a81548160ff0219169083151502179055505b611012611d0a565b61102a60405180602001604052806000815250611d63565b611032611dbe565b801561108b5760008060016101000a81548160ff0219169083151502179055507f7f26b83ff96e1f2b6a682f133852f6798a09c465da95921460cefb384740249860016040516110829190613f9b565b60405180910390a15b50565b6000609760009054906101000a900473ffffffffffffffffffffffffffffffffffffffff16905090565b6110ca6110c36116a7565b8383611e0f565b5050565b6110d6611ba3565b8061012e600084815260200190815260200160002090816110f79190614143565b505050565b6000606660008473ffffffffffffffffffffffffffffffffffffffff1673ffffffffffffffffffffffffffffffffffffffff16815260200190815260200160002060008373ffffffffffffffffffffffffffffffffffffffff1673ffffffffffffffffffffffffffffffffffffffff16815260200190815260200160002060009054906101000a900460ff16905092915050565b6111986116a7565b73ffffffffffffffffffffffffffffffffffffffff168573ffffffffffffffffffffffffffffffffffffffff1614806111de57506111dd856111d86116a7565b6110fc565b5b61121d576040517f08c379a000000000000000000000000000000000000000000000000000000000815260040161121490613b3d565b60405180910390fd5b61122a8585858585611f7b565b5050505050565b611239611ba3565b600073ffffffffffffffffffffffffffffffffffffffff168173ffffffffffffffffffffffffffffffffffffffff16036112a8576040517f08c379a000000000000000000000000000000000000000000000000000000000815260040161129f90614287565b60405180910390fd5b6112b181611c21565b50565b6112bf838383612219565b505050565b60007fd9b67a26000000000000000000000000000000000000000000000000000000007bffffffffffffffffffffffffffffffffffffffffffffffffffffffff1916827bffffffffffffffffffffffffffffffffffffffffffffffffffffffff1916148061138f57507f0e89341c000000000000000000000000000000000000000000000000000000007bffffffffffffffffffffffffffffffffffffffffffffffffffffffff1916827bffffffffffffffffffffffffffffffffffffffffffffffffffffffff1916145b8061139f575061139e82612461565b5b9050919050565b6001816000016000828254019250508190555050565b600081600001549050919050565b600073ffffffffffffffffffffffffffffffffffffffff168473ffffffffffffffffffffffffffffffffffffffff1603611439576040517f08c379a000000000000000000000000000000000000000000000000000000000815260040161143090614319565b60405180910390fd5b60006114436116a7565b90506000611450856124cb565b9050600061145d856124cb565b905061146e83600089858589612545565b846065600088815260200190815260200160002060008973ffffffffffffffffffffffffffffffffffffffff1673ffffffffffffffffffffffffffffffffffffffff16815260200190815260200160002060008282546114ce9190614339565b925050819055508673ffffffffffffffffffffffffffffffffffffffff16600073ffffffffffffffffffffffffffffffffffffffff168473ffffffffffffffffffffffffffffffffffffffff167fc3d58168c5ae7397731d063d5bbf3d657854427343f4c083240f7aacaa2d0f62898960405161154c92919061436d565b60405180910390a46115638360008985858961254d565b61157283600089898989612555565b50505050505050565b6060600061012e6000858152602001908152602001600020805461159e906139e0565b9050146115e0576040517f08c379a00000000000000000000000000000000000000000000000000000000081526004016115d7906143e2565b60405180910390fd5b8161012e600085815260200190815260200160002090816116019190614143565b5061012e60008481526020019081526020016000208054611621906139e0565b80601f016020809104026020016040519081016040528092919081815260200182805461164d906139e0565b801561169a5780601f1061166f5761010080835404028352916020019161169a565b820191906000526020600020905b81548152906001019060200180831161167d57829003601f168201915b5050505050905092915050565b600033905090565b81518351146116f3576040517f08c379a00000000000000000000000000000000000000000000000000000000081526004016116ea90614474565b60405180910390fd5b600073ffffffffffffffffffffffffffffffffffffffff168473ffffffffffffffffffffffffffffffffffffffff1603611762576040517f08c379a000000000000000000000000000000000000000000000000000000000815260040161175990614506565b60405180910390fd5b600061176c6116a7565b905061177c818787878787612545565b60005b845181101561193057600085828151811061179d5761179c613d13565b5b6020026020010151905060008583815181106117bc576117bb613d13565b5b6020026020010151905060006065600084815260200190815260200160002060008b73ffffffffffffffffffffffffffffffffffffffff1673ffffffffffffffffffffffffffffffffffffffff1681526020019081526020016000205490508181101561185e576040517f08c379a000000000000000000000000000000000000000000000000000000000815260040161185590614598565b60405180910390fd5b8181036065600085815260200190815260200160002060008c73ffffffffffffffffffffffffffffffffffffffff1673ffffffffffffffffffffffffffffffffffffffff16815260200190815260200160002081905550816065600085815260200190815260200160002060008b73ffffffffffffffffffffffffffffffffffffffff1673ffffffffffffffffffffffffffffffffffffffff16815260200190815260200160002060008282546119159190614339565b925050819055505050508061192990613d71565b905061177f565b508473ffffffffffffffffffffffffffffffffffffffff168673ffffffffffffffffffffffffffffffffffffffff168273ffffffffffffffffffffffffffffffffffffffff167f4a39dc06d4c0dbc64b70af90fd698a233a518aa5d07e595d983b8c0526c8f7fb87876040516119a79291906145b8565b60405180910390a46119bd81878787878761254d565b6119cb81878787878761272c565b505050505050565b6000611a017f360894a13ba1a3210667c828492db98dca3e2076cc3735a920a3ca505d382bbc60001b612903565b60000160009054906101000a900473ffffffffffffffffffffffffffffffffffffffff16905090565b611a32611ba3565b50565b611a617f4910fdfa16fed3260ed0e7147f7cc6da11a60208b5b9406d12a635614ffd914360001b61290d565b60000160009054906101000a900460ff1615611a8557611a8083612917565b611b9e565b8273ffffffffffffffffffffffffffffffffffffffff166352d1902d6040518163ffffffff1660e01b8152600401602060405180830381865afa925050508015611aed57506040513d601f19601f82011682018060405250810190611aea919061461b565b60015b611b2c576040517f08c379a0000000000000000000000000000000000000000000000000000000008152600401611b23906146ba565b60405180910390fd5b7f360894a13ba1a3210667c828492db98dca3e2076cc3735a920a3ca505d382bbc60001b8114611b91576040517f08c379a0000000000000000000000000000000000000000000000000000000008152600401611b889061474c565b60405180910390fd5b50611b9d8383836129d0565b5b505050565b611bab6116a7565b73ffffffffffffffffffffffffffffffffffffffff16611bc961108e565b73ffffffffffffffffffffffffffffffffffffffff1614611c1f576040517f08c379a0000000000000000000000000000000000000000000000000000000008152600401611c16906147b8565b60405180910390fd5b565b6000609760009054906101000a900473ffffffffffffffffffffffffffffffffffffffff16905081609760006101000a81548173ffffffffffffffffffffffffffffffffffffffff021916908373ffffffffffffffffffffffffffffffffffffffff1602179055508173ffffffffffffffffffffffffffffffffffffffff168173ffffffffffffffffffffffffffffffffffffffff167f8be0079c531659141344cd1fd0a4f28419497f9722a3daafe3b4186f6b6457e060405160405180910390a35050565b6000808273ffffffffffffffffffffffffffffffffffffffff163b119050919050565b600060019054906101000a900460ff16611d59576040517f08c379a0000000000000000000000000000000000000000000000000000000008152600401611d509061484a565b60405180910390fd5b611d616129fc565b565b600060019054906101000a900460ff16611db2576040517f08c379a0000000000000000000000000000000000000000000000000000000008152600401611da99061484a565b60405180910390fd5b611dbb81612a5d565b50565b600060019054906101000a900460ff16611e0d576040517f08c379a0000000000000000000000000000000000000000000000000000000008152600401611e049061484a565b60405180910390fd5b565b8173ffffffffffffffffffffffffffffffffffffffff168373ffffffffffffffffffffffffffffffffffffffff1603611e7d576040517f08c379a0000000000000000000000000000000000000000000000000000000008152600401611e74906148dc565b60405180910390fd5b80606660008573ffffffffffffffffffffffffffffffffffffffff1673ffffffffffffffffffffffffffffffffffffffff16815260200190815260200160002060008473ffffffffffffffffffffffffffffffffffffffff1673ffffffffffffffffffffffffffffffffffffffff16815260200190815260200160002060006101000a81548160ff0219169083151502179055508173ffffffffffffffffffffffffffffffffffffffff168373ffffffffffffffffffffffffffffffffffffffff167f17307eab39ab6107e8899845ad3d59bd9653f200f220920489ca2b5937696c3183604051611f6e9190612e44565b60405180910390a3505050565b600073ffffffffffffffffffffffffffffffffffffffff168473ffffffffffffffffffffffffffffffffffffffff1603611fea576040517f08c379a0000000000000000000000000000000000000000000000000000000008152600401611fe190614506565b60405180910390fd5b6000611ff46116a7565b90506000612001856124cb565b9050600061200e856124cb565b905061201e838989858589612545565b60006065600088815260200190815260200160002060008a73ffffffffffffffffffffffffffffffffffffffff1673ffffffffffffffffffffffffffffffffffffffff168152602001908152602001600020549050858110156120b6576040517f08c379a00000000000000000000000000000000000000000000000000000000081526004016120ad90614598565b60405180910390fd5b8581036065600089815260200190815260200160002060008b73ffffffffffffffffffffffffffffffffffffffff1673ffffffffffffffffffffffffffffffffffffffff16815260200190815260200160002081905550856065600089815260200190815260200160002060008a73ffffffffffffffffffffffffffffffffffffffff1673ffffffffffffffffffffffffffffffffffffffff168152602001908152602001600020600082825461216d9190614339565b925050819055508773ffffffffffffffffffffffffffffffffffffffff168973ffffffffffffffffffffffffffffffffffffffff168573ffffffffffffffffffffffffffffffffffffffff167fc3d58168c5ae7397731d063d5bbf3d657854427343f4c083240f7aacaa2d0f628a8a6040516121ea92919061436d565b60405180910390a4612200848a8a86868a61254d565b61220e848a8a8a8a8a612555565b505050505050505050565b600073ffffffffffffffffffffffffffffffffffffffff168373ffffffffffffffffffffffffffffffffffffffff1603612288576040517f08c379a000000000000000000000000000000000000000000000000000000000815260040161227f9061496e565b60405180910390fd5b60006122926116a7565b9050600061229f846124cb565b905060006122ac846124cb565b90506122cc83876000858560405180602001604052806000815250612545565b60006065600087815260200190815260200160002060008873ffffffffffffffffffffffffffffffffffffffff1673ffffffffffffffffffffffffffffffffffffffff16815260200190815260200160002054905084811015612364576040517f08c379a000000000000000000000000000000000000000000000000000000000815260040161235b90614a00565b60405180910390fd5b8481036065600088815260200190815260200160002060008973ffffffffffffffffffffffffffffffffffffffff1673ffffffffffffffffffffffffffffffffffffffff16815260200190815260200160002081905550600073ffffffffffffffffffffffffffffffffffffffff168773ffffffffffffffffffffffffffffffffffffffff168573ffffffffffffffffffffffffffffffffffffffff167fc3d58168c5ae7397731d063d5bbf3d657854427343f4c083240f7aacaa2d0f62898960405161243292919061436d565b60405180910390a46124588488600086866040518060200160405280600081525061254d565b50505050505050565b60007f01ffc9a7000000000000000000000000000000000000000000000000000000007bffffffffffffffffffffffffffffffffffffffffffffffffffffffff1916827bffffffffffffffffffffffffffffffffffffffffffffffffffffffff1916149050919050565b60606000600167ffffffffffffffff8111156124ea576124e9612f48565b5b6040519080825280602002602001820160405280156125185781602001602082028036833780820191505090505b50905082816000815181106125305761252f613d13565b5b60200260200101818152505080915050919050565b505050505050565b505050505050565b6125748473ffffffffffffffffffffffffffffffffffffffff16611ce7565b15612724578373ffffffffffffffffffffffffffffffffffffffff1663f23a6e6187878686866040518663ffffffff1660e01b81526004016125ba959493929190614a75565b6020604051808303816000875af19250505080156125f657506040513d601f19601f820116820180604052508101906125f39190614ae4565b60015b61269b57612602614b1e565b806308c379a00361265e5750612616614b40565b806126215750612660565b806040517f08c379a00000000000000000000000000000000000000000000000000000000081526004016126559190612eef565b60405180910390fd5b505b6040517f08c379a000000000000000000000000000000000000000000000000000000000815260040161269290614c42565b60405180910390fd5b63f23a6e6160e01b7bffffffffffffffffffffffffffffffffffffffffffffffffffffffff1916817bffffffffffffffffffffffffffffffffffffffffffffffffffffffff191614612722576040517f08c379a000000000000000000000000000000000000000000000000000000000815260040161271990614cd4565b60405180910390fd5b505b505050505050565b61274b8473ffffffffffffffffffffffffffffffffffffffff16611ce7565b156128fb578373ffffffffffffffffffffffffffffffffffffffff1663bc197c8187878686866040518663ffffffff1660e01b8152600401612791959493929190614cf4565b6020604051808303816000875af19250505080156127cd57506040513d601f19601f820116820180604052508101906127ca9190614ae4565b60015b612872576127d9614b1e565b806308c379a00361283557506127ed614b40565b806127f85750612837565b806040517f08c379a000000000000000000000000000000000000000000000000000000000815260040161282c9190612eef565b60405180910390fd5b505b6040517f08c379a000000000000000000000000000000000000000000000000000000000815260040161286990614c42565b60405180910390fd5b63bc197c8160e01b7bffffffffffffffffffffffffffffffffffffffffffffffffffffffff1916817bffffffffffffffffffffffffffffffffffffffffffffffffffffffff1916146128f9576040517f08c379a00000000000000000000000000000000000000000000000000000000081526004016128f090614cd4565b60405180910390fd5b505b505050505050565b6000819050919050565b6000819050919050565b61292081611ce7565b61295f576040517f08c379a000000000000000000000000000000000000000000000000000000000815260040161295690614dce565b60405180910390fd5b8061298c7f360894a13ba1a3210667c828492db98dca3e2076cc3735a920a3ca505d382bbc60001b612903565b60000160006101000a81548173ffffffffffffffffffffffffffffffffffffffff021916908373ffffffffffffffffffffffffffffffffffffffff16021790555050565b6129d983612ab8565b6000825111806129e65750805b156129f7576129f58383612b07565b505b505050565b600060019054906101000a900460ff16612a4b576040517f08c379a0000000000000000000000000000000000000000000000000000000008152600401612a429061484a565b60405180910390fd5b612a5b612a566116a7565b611c21565b565b600060019054906101000a900460ff16612aac576040517f08c379a0000000000000000000000000000000000000000000000000000000008152600401612aa39061484a565b60405180910390fd5b612ab581612b34565b50565b612ac181612917565b8073ffffffffffffffffffffffffffffffffffffffff167fbc7cd75a20ee27fd9adebab32041f755214dbc6bffa90cc0225b39da2e5c2d3b60405160405180910390a250565b6060612b2c8383604051806060016040528060278152602001614eae60279139612b47565b905092915050565b8060679081612b439190614143565b5050565b60606000808573ffffffffffffffffffffffffffffffffffffffff1685604051612b719190614e2a565b600060405180830381855af49150503d8060008114612bac576040519150601f19603f3d011682016040523d82523d6000602084013e612bb1565b606091505b5091509150612bc286838387612bcd565b925050509392505050565b60608315612c2f576000835103612c2757612be785611ce7565b612c26576040517f08c379a0000000000000000000000000000000000000000000000000000000008152600401612c1d90614e8d565b60405180910390fd5b5b829050612c3a565b612c398383612c42565b5b949350505050565b600082511115612c555781518083602001fd5b806040517f08c379a0000000000000000000000000000000000000000000000000000000008152600401612c899190612eef565b60405180910390fd5b6000604051905090565b600080fd5b600080fd5b600073ffffffffffffffffffffffffffffffffffffffff82169050919050565b6000612cd182612ca6565b9050919050565b612ce181612cc6565b8114612cec57600080fd5b50565b600081359050612cfe81612cd8565b92915050565b6000819050919050565b612d1781612d04565b8114612d2257600080fd5b50565b600081359050612d3481612d0e565b92915050565b60008060408385031215612d5157612d50612c9c565b5b6000612d5f85828601612cef565b9250506020612d7085828601612d25565b9150509250929050565b612d8381612d04565b82525050565b6000602082019050612d9e6000830184612d7a565b92915050565b60007fffffffff0000000000000000000000000000000000000000000000000000000082169050919050565b612dd981612da4565b8114612de457600080fd5b50565b600081359050612df681612dd0565b92915050565b600060208284031215612e1257612e11612c9c565b5b6000612e2084828501612de7565b91505092915050565b60008115159050919050565b612e3e81612e29565b82525050565b6000602082019050612e596000830184612e35565b92915050565b600081519050919050565b600082825260208201905092915050565b60005b83811015612e99578082015181840152602081019050612e7e565b60008484015250505050565b6000601f19601f8301169050919050565b6000612ec182612e5f565b612ecb8185612e6a565b9350612edb818560208601612e7b565b612ee481612ea5565b840191505092915050565b60006020820190508181036000830152612f098184612eb6565b905092915050565b600060208284031215612f2757612f26612c9c565b5b6000612f3584828501612d25565b91505092915050565b600080fd5b600080fd5b7f4e487b7100000000000000000000000000000000000000000000000000000000600052604160045260246000fd5b612f8082612ea5565b810181811067ffffffffffffffff82111715612f9f57612f9e612f48565b5b80604052505050565b6000612fb2612c92565b9050612fbe8282612f77565b919050565b600067ffffffffffffffff821115612fde57612fdd612f48565b5b612fe782612ea5565b9050602081019050919050565b82818337600083830152505050565b600061301661301184612fc3565b612fa8565b90508281526020810184848401111561303257613031612f43565b5b61303d848285612ff4565b509392505050565b600082601f83011261305a57613059612f3e565b5b813561306a848260208601613003565b91505092915050565b600080fd5b600080fd5b60008083601f84011261309357613092612f3e565b5b8235905067ffffffffffffffff8111156130b0576130af613073565b5b6020830191508360018202830111156130cc576130cb613078565b5b9250929050565b60008060008060008060a087890312156130f0576130ef612c9c565b5b600087013567ffffffffffffffff81111561310e5761310d612ca1565b5b61311a89828a01613045565b965050602087013567ffffffffffffffff81111561313b5761313a612ca1565b5b61314789828a0161307d565b9550955050604061315a89828a01612cef565b935050606061316b89828a01612d25565b925050608061317c89828a01612cef565b9150509295509295509295565b600067ffffffffffffffff8211156131a4576131a3612f48565b5b602082029050602081019050919050565b60006131c86131c384613189565b612fa8565b905080838252602082019050602084028301858111156131eb576131ea613078565b5b835b8181101561321457806132008882612d25565b8452602084019350506020810190506131ed565b5050509392505050565b600082601f83011261323357613232612f3e565b5b81356132438482602086016131b5565b91505092915050565b600080600080600060a0868803121561326857613267612c9c565b5b600061327688828901612cef565b955050602061328788828901612cef565b945050604086013567ffffffffffffffff8111156132a8576132a7612ca1565b5b6132b48882890161321e565b935050606086013567ffffffffffffffff8111156132d5576132d4612ca1565b5b6132e18882890161321e565b925050608086013567ffffffffffffffff81111561330257613301612ca1565b5b61330e88828901613045565b9150509295509295909350565b60006020828403121561333157613330612c9c565b5b600061333f84828501612cef565b91505092915050565b600067ffffffffffffffff82111561336357613362612f48565b5b602082029050602081019050919050565b600061338761338284613348565b612fa8565b905080838252602082019050602084028301858111156133aa576133a9613078565b5b835b818110156133d357806133bf8882612cef565b8452602084019350506020810190506133ac565b5050509392505050565b600082601f8301126133f2576133f1612f3e565b5b8135613402848260208601613374565b91505092915050565b6000806040838503121561342257613421612c9c565b5b600083013567ffffffffffffffff8111156134405761343f612ca1565b5b61344c858286016133dd565b925050602083013567ffffffffffffffff81111561346d5761346c612ca1565b5b6134798582860161321e565b9150509250929050565b600081519050919050565b600082825260208201905092915050565b6000819050602082019050919050565b6134b881612d04565b82525050565b60006134ca83836134af565b60208301905092915050565b6000602082019050919050565b60006134ee82613483565b6134f8818561348e565b93506135038361349f565b8060005b8381101561353457815161351b88826134be565b9750613526836134d6565b925050600181019050613507565b5085935050505092915050565b6000602082019050818103600083015261355b81846134e3565b905092915050565b6000806040838503121561357a57613579612c9c565b5b600061358885828601612cef565b925050602083013567ffffffffffffffff8111156135a9576135a8612ca1565b5b6135b585828601613045565b9150509250929050565b6135c881612cc6565b82525050565b60006020820190506135e360008301846135bf565b92915050565b6000819050919050565b6135fc816135e9565b82525050565b600060208201905061361760008301846135f3565b92915050565b60008060006060848603121561363657613635612c9c565b5b600061364486828701612d25565b935050602061365586828701612cef565b925050604084013567ffffffffffffffff81111561367657613675612ca1565b5b61368286828701613045565b9150509250925092565b61369581612e29565b81146136a057600080fd5b50565b6000813590506136b28161368c565b92915050565b600080604083850312156136cf576136ce612c9c565b5b60006136dd85828601612cef565b92505060206136ee858286016136a3565b9150509250929050565b600067ffffffffffffffff82111561371357613712612f48565b5b61371c82612ea5565b9050602081019050919050565b600061373c613737846136f8565b612fa8565b90508281526020810184848401111561375857613757612f43565b5b613763848285612ff4565b509392505050565b600082601f8301126137805761377f612f3e565b5b8135613790848260208601613729565b91505092915050565b600080604083850312156137b0576137af612c9c565b5b60006137be85828601612d25565b925050602083013567ffffffffffffffff8111156137df576137de612ca1565b5b6137eb8582860161376b565b9150509250929050565b6000806040838503121561380c5761380b612c9c565b5b600061381a85828601612cef565b925050602061382b85828601612cef565b9150509250929050565b600080600080600060a0868803121561385157613850612c9c565b5b600061385f88828901612cef565b955050602061387088828901612cef565b945050604061388188828901612d25565b935050606061389288828901612d25565b925050608086013567ffffffffffffffff8111156138b3576138b2612ca1565b5b6138bf88828901613045565b9150509295509295909350565b6000806000606084860312156138e5576138e4612c9c565b5b60006138f386828701612cef565b935050602061390486828701612d25565b925050604061391586828701612d25565b9150509250925092565b7f455243313135353a2061646472657373207a65726f206973206e6f742061207660008201527f616c6964206f776e657200000000000000000000000000000000000000000000602082015250565b600061397b602a83612e6a565b91506139868261391f565b604082019050919050565b600060208201905081810360008301526139aa8161396e565b9050919050565b7f4e487b7100000000000000000000000000000000000000000000000000000000600052602260045260246000fd5b600060028204905060018216806139f857607f821691505b602082108103613a0b57613a0a6139b1565b5b50919050565b600081905092915050565b60008190508160005260206000209050919050565b60008154613a3e816139e0565b613a488186613a11565b94506001821660008114613a635760018114613a7857613aab565b60ff1983168652811515820286019350613aab565b613a8185613a1c565b60005b83811015613aa357815481890152600182019150602081019050613a84565b838801955050505b50505092915050565b6000613ac08284613a31565b915081905092915050565b7f455243313135353a2063616c6c6572206973206e6f7420746f6b656e206f776e60008201527f6572206f7220617070726f766564000000000000000000000000000000000000602082015250565b6000613b27602e83612e6a565b9150613b3282613acb565b604082019050919050565b60006020820190508181036000830152613b5681613b1a565b9050919050565b7f46756e6374696f6e206d7573742062652063616c6c6564207468726f7567682060008201527f64656c656761746563616c6c0000000000000000000000000000000000000000602082015250565b6000613bb9602c83612e6a565b9150613bc482613b5d565b604082019050919050565b60006020820190508181036000830152613be881613bac565b9050919050565b7f46756e6374696f6e206d7573742062652063616c6c6564207468726f7567682060008201527f6163746976652070726f78790000000000000000000000000000000000000000602082015250565b6000613c4b602c83612e6a565b9150613c5682613bef565b604082019050919050565b60006020820190508181036000830152613c7a81613c3e565b9050919050565b7f455243313135353a206163636f756e747320616e6420696473206c656e67746860008201527f206d69736d617463680000000000000000000000000000000000000000000000602082015250565b6000613cdd602983612e6a565b9150613ce882613c81565b604082019050919050565b60006020820190508181036000830152613d0c81613cd0565b9050919050565b7f4e487b7100000000000000000000000000000000000000000000000000000000600052603260045260246000fd5b7f4e487b7100000000000000000000000000000000000000000000000000000000600052601160045260246000fd5b6000613d7c82612d04565b91507fffffffffffffffffffffffffffffffffffffffffffffffffffffffffffffffff8203613dae57613dad613d42565b5b600182019050919050565b7f555550535570677261646561626c653a206d757374206e6f742062652063616c60008201527f6c6564207468726f7567682064656c656761746563616c6c0000000000000000602082015250565b6000613e15603883612e6a565b9150613e2082613db9565b604082019050919050565b60006020820190508181036000830152613e4481613e08565b9050919050565b7f4f6e6c79206f6e65207065722075736572000000000000000000000000000000600082015250565b6000613e81601183612e6a565b9150613e8c82613e4b565b602082019050919050565b60006020820190508181036000830152613eb081613e74565b9050919050565b7f496e697469616c697a61626c653a20636f6e747261637420697320616c72656160008201527f647920696e697469616c697a6564000000000000000000000000000000000000602082015250565b6000613f13602e83612e6a565b9150613f1e82613eb7565b604082019050919050565b60006020820190508181036000830152613f4281613f06565b9050919050565b6000819050919050565b600060ff82169050919050565b6000819050919050565b6000613f85613f80613f7b84613f49565b613f60565b613f53565b9050919050565b613f9581613f6a565b82525050565b6000602082019050613fb06000830184613f8c565b92915050565b60006020601f8301049050919050565b600082821b905092915050565b6000600883026140037fffffffffffffffffffffffffffffffffffffffffffffffffffffffffffffffff82613fc6565b61400d8683613fc6565b95508019841693508086168417925050509392505050565b600061404061403b61403684612d04565b613f60565b612d04565b9050919050565b6000819050919050565b61405a83614025565b61406e61406682614047565b848454613fd3565b825550505050565b600090565b614083614076565b61408e818484614051565b505050565b5b818110156140b2576140a760008261407b565b600181019050614094565b5050565b601f8211156140f7576140c881613a1c565b6140d184613fb6565b810160208510156140e0578190505b6140f46140ec85613fb6565b830182614093565b50505b505050565b600082821c905092915050565b600061411a600019846008026140fc565b1980831691505092915050565b60006141338383614109565b9150826002028217905092915050565b61414c82612e5f565b67ffffffffffffffff81111561416557614164612f48565b5b61416f82546139e0565b61417a8282856140b6565b600060209050601f8311600181146141ad576000841561419b578287015190505b6141a58582614127565b86555061420d565b601f1984166141bb86613a1c565b60005b828110156141e3578489015182556001820191506020850194506020810190506141be565b8683101561420057848901516141fc601f891682614109565b8355505b6001600288020188555050505b505050505050565b7f4f776e61626c653a206e6577206f776e657220697320746865207a65726f206160008201527f6464726573730000000000000000000000000000000000000000000000000000602082015250565b6000614271602683612e6a565b915061427c82614215565b604082019050919050565b600060208201905081810360008301526142a081614264565b9050919050565b7f455243313135353a206d696e7420746f20746865207a65726f2061646472657360008201527f7300000000000000000000000000000000000000000000000000000000000000602082015250565b6000614303602183612e6a565b915061430e826142a7565b604082019050919050565b60006020820190508181036000830152614332816142f6565b9050919050565b600061434482612d04565b915061434f83612d04565b925082820190508082111561436757614366613d42565b5b92915050565b60006040820190506143826000830185612d7a565b61438f6020830184612d7a565b9392505050565b7f55524920616c7265616479207365740000000000000000000000000000000000600082015250565b60006143cc600f83612e6a565b91506143d782614396565b602082019050919050565b600060208201905081810360008301526143fb816143bf565b9050919050565b7f455243313135353a2069647320616e6420616d6f756e7473206c656e6774682060008201527f6d69736d61746368000000000000000000000000000000000000000000000000602082015250565b600061445e602883612e6a565b915061446982614402565b604082019050919050565b6000602082019050818103600083015261448d81614451565b9050919050565b7f455243313135353a207472616e7366657220746f20746865207a65726f20616460008201527f6472657373000000000000000000000000000000000000000000000000000000602082015250565b60006144f0602583612e6a565b91506144fb82614494565b604082019050919050565b6000602082019050818103600083015261451f816144e3565b9050919050565b7f455243313135353a20696e73756666696369656e742062616c616e636520666f60008201527f72207472616e7366657200000000000000000000000000000000000000000000602082015250565b6000614582602a83612e6a565b915061458d82614526565b604082019050919050565b600060208201905081810360008301526145b181614575565b9050919050565b600060408201905081810360008301526145d281856134e3565b905081810360208301526145e681846134e3565b90509392505050565b6145f8816135e9565b811461460357600080fd5b50565b600081519050614615816145ef565b92915050565b60006020828403121561463157614630612c9c565b5b600061463f84828501614606565b91505092915050565b7f45524331393637557067726164653a206e657720696d706c656d656e7461746960008201527f6f6e206973206e6f742055555053000000000000000000000000000000000000602082015250565b60006146a4602e83612e6a565b91506146af82614648565b604082019050919050565b600060208201905081810360008301526146d381614697565b9050919050565b7f45524331393637557067726164653a20756e737570706f727465642070726f7860008201527f6961626c65555549440000000000000000000000000000000000000000000000602082015250565b6000614736602983612e6a565b9150614741826146da565b604082019050919050565b6000602082019050818103600083015261476581614729565b9050919050565b7f4f776e61626c653a2063616c6c6572206973206e6f7420746865206f776e6572600082015250565b60006147a2602083612e6a565b91506147ad8261476c565b602082019050919050565b600060208201905081810360008301526147d181614795565b9050919050565b7f496e697469616c697a61626c653a20636f6e7472616374206973206e6f74206960008201527f6e697469616c697a696e67000000000000000000000000000000000000000000602082015250565b6000614834602b83612e6a565b915061483f826147d8565b604082019050919050565b6000602082019050818103600083015261486381614827565b9050919050565b7f455243313135353a2073657474696e6720617070726f76616c2073746174757360008201527f20666f722073656c660000000000000000000000000000000000000000000000602082015250565b60006148c6602983612e6a565b91506148d18261486a565b604082019050919050565b600060208201905081810360008301526148f5816148b9565b9050919050565b7f455243313135353a206275726e2066726f6d20746865207a65726f206164647260008201527f6573730000000000000000000000000000000000000000000000000000000000602082015250565b6000614958602383612e6a565b9150614963826148fc565b604082019050919050565b600060208201905081810360008301526149878161494b565b9050919050565b7f455243313135353a206275726e20616d6f756e7420657863656564732062616c60008201527f616e636500000000000000000000000000000000000000000000000000000000602082015250565b60006149ea602483612e6a565b91506149f58261498e565b604082019050919050565b60006020820190508181036000830152614a19816149dd565b9050919050565b600081519050919050565b600082825260208201905092915050565b6000614a4782614a20565b614a518185614a2b565b9350614a61818560208601612e7b565b614a6a81612ea5565b840191505092915050565b600060a082019050614a8a60008301886135bf565b614a9760208301876135bf565b614aa46040830186612d7a565b614ab16060830185612d7a565b8181036080830152614ac38184614a3c565b90509695505050505050565b600081519050614ade81612dd0565b92915050565b600060208284031215614afa57614af9612c9c565b5b6000614b0884828501614acf565b91505092915050565b60008160e01c9050919050565b600060033d1115614b3d5760046000803e614b3a600051614b11565b90505b90565b600060443d10614bcd57614b52612c92565b60043d036004823e80513d602482011167ffffffffffffffff82111715614b7a575050614bcd565b808201805167ffffffffffffffff811115614b985750505050614bcd565b80602083010160043d038501811115614bb5575050505050614bcd565b614bc482602001850186612f77565b82955050505050505b90565b7f455243313135353a207472616e7366657220746f206e6f6e2d4552433131353560008201527f526563656976657220696d706c656d656e746572000000000000000000000000602082015250565b6000614c2c603483612e6a565b9150614c3782614bd0565b604082019050919050565b60006020820190508181036000830152614c5b81614c1f565b9050919050565b7f455243313135353a204552433131353552656365697665722072656a6563746560008201527f6420746f6b656e73000000000000000000000000000000000000000000000000602082015250565b6000614cbe602883612e6a565b9150614cc982614c62565b604082019050919050565b60006020820190508181036000830152614ced81614cb1565b9050919050565b600060a082019050614d0960008301886135bf565b614d1660208301876135bf565b8181036040830152614d2881866134e3565b90508181036060830152614d3c81856134e3565b90508181036080830152614d508184614a3c565b90509695505050505050565b7f455243313936373a206e657720696d706c656d656e746174696f6e206973206e60008201527f6f74206120636f6e747261637400000000000000000000000000000000000000602082015250565b6000614db8602d83612e6a565b9150614dc382614d5c565b604082019050919050565b60006020820190508181036000830152614de781614dab565b9050919050565b600081905092915050565b6000614e0482614a20565b614e0e8185614dee565b9350614e1e818560208601612e7b565b80840191505092915050565b6000614e368284614df9565b915081905092915050565b7f416464726573733a2063616c6c20746f206e6f6e2d636f6e7472616374000000600082015250565b6000614e77601d83612e6a565b9150614e8282614e41565b602082019050919050565b60006020820190508181036000830152614ea681614e6a565b905091905056fe416464726573733a206c6f772d6c6576656c2064656c65676174652063616c6c206661696c6564a264697066735822122050efcb831ffe8c5276c9a5324bddea1993a8677d15b726af1914ffd8a527e57064736f6c63430008130033",
  "linkReferences": {},
  "deployedLinkReferences": {}
}