{
  "_format": "hh-sol-artifact-1",
  "contractName": "CollectionRegistry",
  "sourceName": "contracts/CollectionsRegistry.sol",
  "abi": [
    {
      "anonymous": false,
      "inputs": [
        {
          "indexed": false,
          "internalType": "address",
          "name": "previousAdmin",
          "type": "address"
        },
        {
          "indexed": false,
          "internalType": "address",
          "name": "newAdmin",
          "type": "address"
        }
      ],
      "name": "AdminChanged",
      "type": "event"
    },
    {
      "anonymous": false,
      "inputs": [
        {
          "indexed": true,
          "internalType": "address",
          "name": "account",
          "type": "address"
        },
        {
          "indexed": true,
          "internalType": "address",
          "name": "operator",
          "type": "address"
        },
        {
          "indexed": false,
          "internalType": "bool",
          "name": "approved",
          "type": "bool"
        }
      ],
      "name": "ApprovalForAll",
      "type": "event"
    },
    {
      "anonymous": false,
      "inputs": [
        {
          "indexed": true,
          "internalType": "address",
          "name": "beacon",
          "type": "address"
        }
      ],
      "name": "BeaconUpgraded",
      "type": "event"
    },
    {
      "anonymous": false,
      "inputs": [
        {
          "indexed": false,
          "internalType": "uint8",
          "name": "version",
          "type": "uint8"
        }
      ],
      "name": "Initialized",
      "type": "event"
    },
    {
      "anonymous": false,
      "inputs": [
        {
          "indexed": true,
          "internalType": "address",
          "name": "previousOwner",
          "type": "address"
        },
        {
          "indexed": true,
          "internalType": "address",
          "name": "newOwner",
          "type": "address"
        }
      ],
      "name": "OwnershipTransferred",
      "type": "event"
    },
    {
      "anonymous": false,
      "inputs": [
        {
          "indexed": true,
          "internalType": "address",
          "name": "operator",
          "type": "address"
        },
        {
          "indexed": true,
          "internalType": "address",
          "name": "from",
          "type": "address"
        },
        {
          "indexed": true,
          "internalType": "address",
          "name": "to",
          "type": "address"
        },
        {
          "indexed": false,
          "internalType": "uint256[]",
          "name": "ids",
          "type": "uint256[]"
        },
        {
          "indexed": false,
          "internalType": "uint256[]",
          "name": "values",
          "type": "uint256[]"
        }
      ],
      "name": "TransferBatch",
      "type": "event"
    },
    {
      "anonymous": false,
      "inputs": [
        {
          "indexed": true,
          "internalType": "address",
          "name": "operator",
          "type": "address"
        },
        {
          "indexed": true,
          "internalType": "address",
          "name": "from",
          "type": "address"
        },
        {
          "indexed": true,
          "internalType": "address",
          "name": "to",
          "type": "address"
        },
        {
          "indexed": false,
          "internalType": "uint256",
          "name": "id",
          "type": "uint256"
        },
        {
          "indexed": false,
          "internalType": "uint256",
          "name": "value",
          "type": "uint256"
        }
      ],
      "name": "TransferSingle",
      "type": "event"
    },
    {
      "anonymous": false,
      "inputs": [
        {
          "indexed": false,
          "internalType": "string",
          "name": "value",
          "type": "string"
        },
        {
          "indexed": true,
          "internalType": "uint256",
          "name": "id",
          "type": "uint256"
        }
      ],
      "name": "URI",
      "type": "event"
    },
    {
      "anonymous": false,
      "inputs": [
        {
          "indexed": true,
          "internalType": "address",
          "name": "implementation",
          "type": "address"
        }
      ],
      "name": "Upgraded",
      "type": "event"
    },
    {
      "inputs": [
        {
          "internalType": "uint256",
          "name": "tokenId",
          "type": "uint256"
        },
        {
          "internalType": "string",
          "name": "url",
          "type": "string"
        }
      ],
      "name": "_setTokenMetadata",
      "outputs": [
        {
          "internalType": "string",
          "name": "",
          "type": "string"
        }
      ],
      "stateMutability": "nonpayable",
      "type": "function"
    },
    {
      "inputs": [
        {
          "internalType": "address",
          "name": "account",
          "type": "address"
        },
        {
          "internalType": "uint256",
          "name": "id",
          "type": "uint256"
        }
      ],
      "name": "balanceOf",
      "outputs": [
        {
          "internalType": "uint256",
          "name": "",
          "type": "uint256"
        }
      ],
      "stateMutability": "view",
      "type": "function"
    },
    {
      "inputs": [
        {
          "internalType": "address[]",
          "name": "accounts",
          "type": "address[]"
        },
        {
          "internalType": "uint256[]",
          "name": "ids",
          "type": "uint256[]"
        }
      ],
      "name": "balanceOfBatch",
      "outputs": [
        {
          "internalType": "uint256[]",
          "name": "",
          "type": "uint256[]"
        }
      ],
      "stateMutability": "view",
      "type": "function"
    },
    {
      "inputs": [
        {
          "internalType": "address",
          "name": "account",
          "type": "address"
        },
        {
          "internalType": "uint256",
          "name": "id",
          "type": "uint256"
        },
        {
          "internalType": "uint256",
          "name": "value",
          "type": "uint256"
        }
      ],
      "name": "burn",
      "outputs": [],
      "stateMutability": "nonpayable",
      "type": "function"
    },
    {
      "inputs": [
        {
          "internalType": "uint256",
          "name": "id",
          "type": "uint256"
        },
        {
          "internalType": "address",
          "name": "recipient",
          "type": "address"
        },
        {
          "internalType": "bytes",
          "name": "data",
          "type": "bytes"
        }
      ],
      "name": "collect",
      "outputs": [
        {
          "internalType": "string",
          "name": "",
          "type": "string"
        }
      ],
      "stateMutability": "payable",
      "type": "function"
    },
    {
      "inputs": [
        {
          "internalType": "uint256",
          "name": "",
          "type": "uint256"
        }
      ],
      "name": "collectionAddress",
      "outputs": [
        {
          "internalType": "address",
          "name": "",
          "type": "address"
        }
      ],
      "stateMutability": "view",
      "type": "function"
    },
    {
      "inputs": [
        {
          "internalType": "bytes",
          "name": "data",
          "type": "bytes"
        },
        {
          "internalType": "uint256",
          "name": "_price",
          "type": "uint256"
        },
        {
          "internalType": "address",
          "name": "_creator",
          "type": "address"
        }
      ],
      "name": "create",
      "outputs": [
        {
          "internalType": "uint256",
          "name": "",
          "type": "uint256"
        }
      ],
      "stateMutability": "payable",
      "type": "function"
    },
    {
      "inputs": [
        {
          "internalType": "uint256",
          "name": "",
          "type": "uint256"
        }
      ],
      "name": "creator",
      "outputs": [
        {
          "internalType": "address",
          "name": "",
          "type": "address"
        }
      ],
      "stateMutability": "view",
      "type": "function"
    },
    {
      "inputs": [],
      "name": "getTokenId",
      "outputs": [
        {
          "internalType": "uint256",
          "name": "",
          "type": "uint256"
        }
      ],
      "stateMutability": "view",
      "type": "function"
    },
    {
      "inputs": [],
      "name": "initialize",
      "outputs": [],
      "stateMutability": "nonpayable",
      "type": "function"
    },
    {
      "inputs": [
        {
          "internalType": "address",
          "name": "account",
          "type": "address"
        },
        {
          "internalType": "address",
          "name": "operator",
          "type": "address"
        }
      ],
      "name": "isApprovedForAll",
      "outputs": [
        {
          "internalType": "bool",
          "name": "",
          "type": "bool"
        }
      ],
      "stateMutability": "view",
      "type": "function"
    },
    {
      "inputs": [],
      "name": "name",
      "outputs": [
        {
          "internalType": "string",
          "name": "",
          "type": "string"
        }
      ],
      "stateMutability": "pure",
      "type": "function"
    },
    {
      "inputs": [
        {
          "internalType": "uint256",
          "name": "tokenId",
          "type": "uint256"
        },
        {
          "internalType": "string",
          "name": "url",
          "type": "string"
        }
      ],
      "name": "overrideTokenMetadata",
      "outputs": [],
      "stateMutability": "nonpayable",
      "type": "function"
    },
    {
      "inputs": [],
      "name": "owner",
      "outputs": [
        {
          "internalType": "address",
          "name": "",
          "type": "address"
        }
      ],
      "stateMutability": "view",
      "type": "function"
    },
    {
      "inputs": [
        {
          "internalType": "uint256",
          "name": "",
          "type": "uint256"
        }
      ],
      "name": "price",
      "outputs": [
        {
          "internalType": "uint256",
          "name": "",
          "type": "uint256"
        }
      ],
      "stateMutability": "view",
      "type": "function"
    },
    {
      "inputs": [],
      "name": "proxiableUUID",
      "outputs": [
        {
          "internalType": "bytes32",
          "name": "",
          "type": "bytes32"
        }
      ],
      "stateMutability": "view",
      "type": "function"
    },
    {
      "inputs": [],
      "name": "renounceOwnership",
      "outputs": [],
      "stateMutability": "nonpayable",
      "type": "function"
    },
    {
      "inputs": [
        {
          "internalType": "address",
          "name": "from",
          "type": "address"
        },
        {
          "internalType": "address",
          "name": "to",
          "type": "address"
        },
        {
          "internalType": "uint256[]",
          "name": "ids",
          "type": "uint256[]"
        },
        {
          "internalType": "uint256[]",
          "name": "amounts",
          "type": "uint256[]"
        },
        {
          "internalType": "bytes",
          "name": "data",
          "type": "bytes"
        }
      ],
      "name": "safeBatchTransferFrom",
      "outputs": [],
      "stateMutability": "nonpayable",
      "type": "function"
    },
    {
      "inputs": [
        {
          "internalType": "address",
          "name": "from",
          "type": "address"
        },
        {
          "internalType": "address",
          "name": "to",
          "type": "address"
        },
        {
          "internalType": "uint256",
          "name": "id",
          "type": "uint256"
        },
        {
          "internalType": "uint256",
          "name": "amount",
          "type": "uint256"
        },
        {
          "internalType": "bytes",
          "name": "data",
          "type": "bytes"
        }
      ],
      "name": "safeTransferFrom",
      "outputs": [],
      "stateMutability": "nonpayable",
      "type": "function"
    },
    {
      "inputs": [
        {
          "internalType": "address",
          "name": "operator",
          "type": "address"
        },
        {
          "internalType": "bool",
          "name": "approved",
          "type": "bool"
        }
      ],
      "name": "setApprovalForAll",
      "outputs": [],
      "stateMutability": "nonpayable",
      "type": "function"
    },
    {
      "inputs": [
        {
          "internalType": "bytes4",
          "name": "interfaceId",
          "type": "bytes4"
        }
      ],
      "name": "supportsInterface",
      "outputs": [
        {
          "internalType": "bool",
          "name": "",
          "type": "bool"
        }
      ],
      "stateMutability": "view",
      "type": "function"
    },
    {
      "inputs": [
        {
          "internalType": "uint256",
          "name": "",
          "type": "uint256"
        }
      ],
      "name": "tokenSupply",
      "outputs": [
        {
          "internalType": "uint256",
          "name": "",
          "type": "uint256"
        }
      ],
      "stateMutability": "view",
      "type": "function"
    },
    {
      "inputs": [
        {
          "internalType": "address",
          "name": "newOwner",
          "type": "address"
        }
      ],
      "name": "transferOwnership",
      "outputs": [],
      "stateMutability": "nonpayable",
      "type": "function"
    },
    {
      "inputs": [
        {
          "internalType": "address",
          "name": "newImplementation",
          "type": "address"
        }
      ],
      "name": "upgradeTo",
      "outputs": [],
      "stateMutability": "nonpayable",
      "type": "function"
    },
    {
      "inputs": [
        {
          "internalType": "address",
          "name": "newImplementation",
          "type": "address"
        },
        {
          "internalType": "bytes",
          "name": "data",
          "type": "bytes"
        }
      ],
      "name": "upgradeToAndCall",
      "outputs": [],
      "stateMutability": "payable",
      "type": "function"
    },
    {
      "inputs": [
        {
          "internalType": "uint256",
          "name": "tokenID",
          "type": "uint256"
        }
      ],
      "name": "uri",
      "outputs": [
        {
          "internalType": "string",
          "name": "",
          "type": "string"
        }
      ],
      "stateMutability": "view",
      "type": "function"
    }
  ],
  "bytecode": "0x60a06040523073ffffffffffffffffffffffffffffffffffffffff1660809073ffffffffffffffffffffffffffffffffffffffff1681525034801561004357600080fd5b50608051614efa61007b600039600081816108970152818161092501528181610b3801528181610bc60152610caa0152614efa6000f3fe6080604052600436106101805760003560e01c80635cf7b616116100d1578063a22cb4651161008a578063f242432a11610064578063f242432a146105b1578063f2fde38b146105da578063f39012b214610603578063f5298aca1461063357610180565b8063a22cb46514610522578063cb69d8741461054b578063e985e9c51461057457610180565b80635cf7b6161461041f5780635ef935ee1461044f578063715018a61461048c5780638129fc1c146104a35780638da5cb5b146104ba5780639f1020a5146104e557610180565b806326a49e371161013e5780634e1273f4116101185780634e1273f41461035e5780634f1ef2861461039b578063510b5158146103b757806352d1902d146103f457610180565b806326a49e37146102cf5780632eb2c2d61461030c5780633659cfe61461033557610180565b8062fdd58e14610185578063010a38f5146101c257806301ffc9a7146101ed57806306fdde031461022a5780630e89341c146102555780632693ebf214610292575b600080fd5b34801561019157600080fd5b506101ac60048036038101906101a79190612dcc565b61065c565b6040516101b99190612e1b565b60405180910390f35b3480156101ce57600080fd5b506101d7610725565b6040516101e49190612e1b565b60405180910390f35b3480156101f957600080fd5b50610214600480360381019061020f9190612e8e565b610737565b6040516102219190612ed6565b60405180910390f35b34801561023657600080fd5b5061023f610749565b60405161024c9190612f81565b60405180910390f35b34801561026157600080fd5b5061027c60048036038101906102779190612fa3565b610786565b6040516102899190612f81565b60405180910390f35b34801561029e57600080fd5b506102b960048036038101906102b49190612fa3565b6107c2565b6040516102c69190612e1b565b60405180910390f35b3480156102db57600080fd5b506102f660048036038101906102f19190612fa3565b6107db565b6040516103039190612e1b565b60405180910390f35b34801561031857600080fd5b50610333600480360381019061032e91906131cd565b6107f4565b005b34801561034157600080fd5b5061035c6004803603810190610357919061329c565b610895565b005b34801561036a57600080fd5b506103856004803603810190610380919061338c565b610a1d565b60405161039291906134c2565b60405180910390f35b6103b560048036038101906103b091906134e4565b610b36565b005b3480156103c357600080fd5b506103de60048036038101906103d99190612fa3565b610c72565b6040516103eb919061354f565b60405180910390f35b34801561040057600080fd5b50610409610ca6565b6040516104169190613583565b60405180910390f35b6104396004803603810190610434919061359e565b610d5f565b6040516104469190612f81565b60405180910390f35b34801561045b57600080fd5b5061047660048036038101906104719190612fa3565b610e6e565b604051610483919061354f565b60405180910390f35b34801561049857600080fd5b506104a1610ea2565b005b3480156104af57600080fd5b506104b8610eb6565b005b3480156104c657600080fd5b506104cf611014565b6040516104dc919061354f565b60405180910390f35b3480156104f157600080fd5b5061050c600480360381019061050791906136ae565b61103e565b6040516105199190612f81565b60405180910390f35b34801561052e57600080fd5b5061054960048036038101906105449190613736565b6111d6565b005b34801561055757600080fd5b50610572600480360381019061056d91906136ae565b6111ec565b005b34801561058057600080fd5b5061059b60048036038101906105969190613776565b61121a565b6040516105a89190612ed6565b60405180910390f35b3480156105bd57600080fd5b506105d860048036038101906105d391906137b6565b6112ae565b005b3480156105e657600080fd5b5061060160048036038101906105fc919061329c565b61134f565b005b61061d6004803603810190610618919061384d565b6113d2565b60405161062a9190612e1b565b60405180910390f35b34801561063f57600080fd5b5061065a600480360381019061065591906138bc565b611472565b005b60008073ffffffffffffffffffffffffffffffffffffffff168373ffffffffffffffffffffffffffffffffffffffff16036106cc576040517f08c379a00000000000000000000000000000000000000000000000000000000081526004016106c390613981565b60405180910390fd5b6065600083815260200190815260200160002060008473ffffffffffffffffffffffffffffffffffffffff1673ffffffffffffffffffffffffffffffffffffffff16815260200190815260200160002054905092915050565b600061073261012d611482565b905090565b600061074282611490565b9050919050565b60606040518060400160405280600681526020017f766572736f730000000000000000000000000000000000000000000000000000815250905090565b606061012e60008381526020019081526020016000206040516020016107ac9190613aa4565b6040516020818303038152906040529050919050565b61012f6020528060005260406000206000915090505481565b6101306020528060005260406000206000915090505481565b6107fc611572565b73ffffffffffffffffffffffffffffffffffffffff168573ffffffffffffffffffffffffffffffffffffffff16148061084257506108418561083c611572565b61121a565b5b610881576040517f08c379a000000000000000000000000000000000000000000000000000000000815260040161087890613b2d565b60405180910390fd5b61088e858585858561157a565b5050505050565b7f000000000000000000000000000000000000000000000000000000000000000073ffffffffffffffffffffffffffffffffffffffff163073ffffffffffffffffffffffffffffffffffffffff1603610923576040517f08c379a000000000000000000000000000000000000000000000000000000000815260040161091a90613bbf565b60405180910390fd5b7f000000000000000000000000000000000000000000000000000000000000000073ffffffffffffffffffffffffffffffffffffffff1661096261189e565b73ffffffffffffffffffffffffffffffffffffffff16146109b8576040517f08c379a00000000000000000000000000000000000000000000000000000000081526004016109af90613c51565b60405180910390fd5b6109c1816118f5565b610a1a81600067ffffffffffffffff8111156109e0576109df612fd5565b5b6040519080825280601f01601f191660200182016040528015610a125781602001600182028036833780820191505090505b506000611900565b50565b60608151835114610a63576040517f08c379a0000000000000000000000000000000000000000000000000000000008152600401610a5a90613ce3565b60405180910390fd5b6000835167ffffffffffffffff811115610a8057610a7f612fd5565b5b604051908082528060200260200182016040528015610aae5781602001602082028036833780820191505090505b50905060005b8451811015610b2b57610afb858281518110610ad357610ad2613d03565b5b6020026020010151858381518110610aee57610aed613d03565b5b602002602001015161065c565b828281518110610b0e57610b0d613d03565b5b60200260200101818152505080610b2490613d61565b9050610ab4565b508091505092915050565b7f000000000000000000000000000000000000000000000000000000000000000073ffffffffffffffffffffffffffffffffffffffff163073ffffffffffffffffffffffffffffffffffffffff1603610bc4576040517f08c379a0000000000000000000000000000000000000000000000000000000008152600401610bbb90613bbf565b60405180910390fd5b7f000000000000000000000000000000000000000000000000000000000000000073ffffffffffffffffffffffffffffffffffffffff16610c0361189e565b73ffffffffffffffffffffffffffffffffffffffff1614610c59576040517f08c379a0000000000000000000000000000000000000000000000000000000008152600401610c5090613c51565b60405180910390fd5b610c62826118f5565b610c6e82826001611900565b5050565b6101316020528060005260406000206000915054906101000a900473ffffffffffffffffffffffffffffffffffffffff1681565b60007f000000000000000000000000000000000000000000000000000000000000000073ffffffffffffffffffffffffffffffffffffffff163073ffffffffffffffffffffffffffffffffffffffff1614610d36576040517f08c379a0000000000000000000000000000000000000000000000000000000008152600401610d2d90613e1b565b60405180910390fd5b7f360894a13ba1a3210667c828492db98dca3e2076cc3735a920a3ca505d382bbc60001b905090565b60606000610d6d848661065c565b14610dad576040517f08c379a0000000000000000000000000000000000000000000000000000000008152600401610da490613e87565b60405180910390fd5b610dba3385600185611a6e565b610dc83384866001866112ae565b61012e60008581526020019081526020016000208054610de7906139d0565b80601f0160208091040260200160405190810160405280929190818152602001828054610e13906139d0565b8015610e605780601f10610e3557610100808354040283529160200191610e60565b820191906000526020600020905b815481529060010190602001808311610e4357829003601f168201915b505050505090509392505050565b6101326020528060005260406000206000915054906101000a900473ffffffffffffffffffffffffffffffffffffffff1681565b610eaa611c1f565b610eb46000611c9d565b565b60008060019054906101000a900460ff16159050808015610ee75750600160008054906101000a900460ff1660ff16105b80610f145750610ef630611d63565b158015610f135750600160008054906101000a900460ff1660ff16145b5b610f53576040517f08c379a0000000000000000000000000000000000000000000000000000000008152600401610f4a90613f19565b60405180910390fd5b60016000806101000a81548160ff021916908360ff1602179055508015610f90576001600060016101000a81548160ff0219169083151502179055505b610f98611d86565b610fb060405180602001604052806000815250611ddf565b610fb8611e3a565b80156110115760008060016101000a81548160ff0219169083151502179055507f7f26b83ff96e1f2b6a682f133852f6798a09c465da95921460cefb384740249860016040516110089190613f8b565b60405180910390a15b50565b6000609760009054906101000a900473ffffffffffffffffffffffffffffffffffffffff16905090565b6060610131600084815260200190815260200160002060009054906101000a900473ffffffffffffffffffffffffffffffffffffffff1673ffffffffffffffffffffffffffffffffffffffff163373ffffffffffffffffffffffffffffffffffffffff16146110ac57600080fd5b600061012e600085815260200190815260200160002080546110cd906139d0565b90501461110f576040517f08c379a000000000000000000000000000000000000000000000000000000000815260040161110690613ff2565b60405180910390fd5b8161012e60008581526020019081526020016000209081611130919061419f565b5061012e60008481526020019081526020016000208054611150906139d0565b80601f016020809104026020016040519081016040528092919081815260200182805461117c906139d0565b80156111c95780601f1061119e576101008083540402835291602001916111c9565b820191906000526020600020905b8154815290600101906020018083116111ac57829003601f168201915b5050505050905092915050565b6111e86111e1611572565b8383611e8b565b5050565b6111f4611c1f565b8061012e60008481526020019081526020016000209081611215919061419f565b505050565b6000606660008473ffffffffffffffffffffffffffffffffffffffff1673ffffffffffffffffffffffffffffffffffffffff16815260200190815260200160002060008373ffffffffffffffffffffffffffffffffffffffff1673ffffffffffffffffffffffffffffffffffffffff16815260200190815260200160002060009054906101000a900460ff16905092915050565b6112b6611572565b73ffffffffffffffffffffffffffffffffffffffff168573ffffffffffffffffffffffffffffffffffffffff1614806112fc57506112fb856112f6611572565b61121a565b5b61133b576040517f08c379a000000000000000000000000000000000000000000000000000000000815260040161133290613b2d565b60405180910390fd5b6113488585858585611ff7565b5050505050565b611357611c1f565b600073ffffffffffffffffffffffffffffffffffffffff168173ffffffffffffffffffffffffffffffffffffffff16036113c6576040517f08c379a00000000000000000000000000000000000000000000000000000000081526004016113bd906142e3565b60405180910390fd5b6113cf81611c9d565b50565b60006113df61012d612295565b60006113ec61012d611482565b90506113fb8382600188611a6e565b82610131600083815260200190815260200160002060006101000a81548173ffffffffffffffffffffffffffffffffffffffff021916908373ffffffffffffffffffffffffffffffffffffffff16021790555083610130600083815260200190815260200160002081905550809150509392505050565b61147d8383836122ab565b505050565b600081600001549050919050565b60007fd9b67a26000000000000000000000000000000000000000000000000000000007bffffffffffffffffffffffffffffffffffffffffffffffffffffffff1916827bffffffffffffffffffffffffffffffffffffffffffffffffffffffff1916148061155b57507f0e89341c000000000000000000000000000000000000000000000000000000007bffffffffffffffffffffffffffffffffffffffffffffffffffffffff1916827bffffffffffffffffffffffffffffffffffffffffffffffffffffffff1916145b8061156b575061156a826124f3565b5b9050919050565b600033905090565b81518351146115be576040517f08c379a00000000000000000000000000000000000000000000000000000000081526004016115b590614375565b60405180910390fd5b600073ffffffffffffffffffffffffffffffffffffffff168473ffffffffffffffffffffffffffffffffffffffff160361162d576040517f08c379a000000000000000000000000000000000000000000000000000000000815260040161162490614407565b60405180910390fd5b6000611637611572565b905061164781878787878761255d565b60005b84518110156117fb57600085828151811061166857611667613d03565b5b60200260200101519050600085838151811061168757611686613d03565b5b6020026020010151905060006065600084815260200190815260200160002060008b73ffffffffffffffffffffffffffffffffffffffff1673ffffffffffffffffffffffffffffffffffffffff16815260200190815260200160002054905081811015611729576040517f08c379a000000000000000000000000000000000000000000000000000000000815260040161172090614499565b60405180910390fd5b8181036065600085815260200190815260200160002060008c73ffffffffffffffffffffffffffffffffffffffff1673ffffffffffffffffffffffffffffffffffffffff16815260200190815260200160002081905550816065600085815260200190815260200160002060008b73ffffffffffffffffffffffffffffffffffffffff1673ffffffffffffffffffffffffffffffffffffffff16815260200190815260200160002060008282546117e091906144b9565b92505081905550505050806117f490613d61565b905061164a565b508473ffffffffffffffffffffffffffffffffffffffff168673ffffffffffffffffffffffffffffffffffffffff168273ffffffffffffffffffffffffffffffffffffffff167f4a39dc06d4c0dbc64b70af90fd698a233a518aa5d07e595d983b8c0526c8f7fb87876040516118729291906144ed565b60405180910390a4611888818787878787612565565b61189681878787878761256d565b505050505050565b60006118cc7f360894a13ba1a3210667c828492db98dca3e2076cc3735a920a3ca505d382bbc60001b612744565b60000160009054906101000a900473ffffffffffffffffffffffffffffffffffffffff16905090565b6118fd611c1f565b50565b61192c7f4910fdfa16fed3260ed0e7147f7cc6da11a60208b5b9406d12a635614ffd914360001b61274e565b60000160009054906101000a900460ff16156119505761194b83612758565b611a69565b8273ffffffffffffffffffffffffffffffffffffffff166352d1902d6040518163ffffffff1660e01b8152600401602060405180830381865afa9250505080156119b857506040513d601f19601f820116820180604052508101906119b59190614550565b60015b6119f7576040517f08c379a00000000000000000000000000000000000000000000000000000000081526004016119ee906145ef565b60405180910390fd5b7f360894a13ba1a3210667c828492db98dca3e2076cc3735a920a3ca505d382bbc60001b8114611a5c576040517f08c379a0000000000000000000000000000000000000000000000000000000008152600401611a5390614681565b60405180910390fd5b50611a68838383612811565b5b505050565b600073ffffffffffffffffffffffffffffffffffffffff168473ffffffffffffffffffffffffffffffffffffffff1603611add576040517f08c379a0000000000000000000000000000000000000000000000000000000008152600401611ad490614713565b60405180910390fd5b6000611ae7611572565b90506000611af48561283d565b90506000611b018561283d565b9050611b128360008985858961255d565b846065600088815260200190815260200160002060008973ffffffffffffffffffffffffffffffffffffffff1673ffffffffffffffffffffffffffffffffffffffff1681526020019081526020016000206000828254611b7291906144b9565b925050819055508673ffffffffffffffffffffffffffffffffffffffff16600073ffffffffffffffffffffffffffffffffffffffff168473ffffffffffffffffffffffffffffffffffffffff167fc3d58168c5ae7397731d063d5bbf3d657854427343f4c083240f7aacaa2d0f628989604051611bf0929190614733565b60405180910390a4611c0783600089858589612565565b611c16836000898989896128b7565b50505050505050565b611c27611572565b73ffffffffffffffffffffffffffffffffffffffff16611c45611014565b73ffffffffffffffffffffffffffffffffffffffff1614611c9b576040517f08c379a0000000000000000000000000000000000000000000000000000000008152600401611c92906147a8565b60405180910390fd5b565b6000609760009054906101000a900473ffffffffffffffffffffffffffffffffffffffff16905081609760006101000a81548173ffffffffffffffffffffffffffffffffffffffff021916908373ffffffffffffffffffffffffffffffffffffffff1602179055508173ffffffffffffffffffffffffffffffffffffffff168173ffffffffffffffffffffffffffffffffffffffff167f8be0079c531659141344cd1fd0a4f28419497f9722a3daafe3b4186f6b6457e060405160405180910390a35050565b6000808273ffffffffffffffffffffffffffffffffffffffff163b119050919050565b600060019054906101000a900460ff16611dd5576040517f08c379a0000000000000000000000000000000000000000000000000000000008152600401611dcc9061483a565b60405180910390fd5b611ddd612a8e565b565b600060019054906101000a900460ff16611e2e576040517f08c379a0000000000000000000000000000000000000000000000000000000008152600401611e259061483a565b60405180910390fd5b611e3781612aef565b50565b600060019054906101000a900460ff16611e89576040517f08c379a0000000000000000000000000000000000000000000000000000000008152600401611e809061483a565b60405180910390fd5b565b8173ffffffffffffffffffffffffffffffffffffffff168373ffffffffffffffffffffffffffffffffffffffff1603611ef9576040517f08c379a0000000000000000000000000000000000000000000000000000000008152600401611ef0906148cc565b60405180910390fd5b80606660008573ffffffffffffffffffffffffffffffffffffffff1673ffffffffffffffffffffffffffffffffffffffff16815260200190815260200160002060008473ffffffffffffffffffffffffffffffffffffffff1673ffffffffffffffffffffffffffffffffffffffff16815260200190815260200160002060006101000a81548160ff0219169083151502179055508173ffffffffffffffffffffffffffffffffffffffff168373ffffffffffffffffffffffffffffffffffffffff167f17307eab39ab6107e8899845ad3d59bd9653f200f220920489ca2b5937696c3183604051611fea9190612ed6565b60405180910390a3505050565b600073ffffffffffffffffffffffffffffffffffffffff168473ffffffffffffffffffffffffffffffffffffffff1603612066576040517f08c379a000000000000000000000000000000000000000000000000000000000815260040161205d90614407565b60405180910390fd5b6000612070611572565b9050600061207d8561283d565b9050600061208a8561283d565b905061209a83898985858961255d565b60006065600088815260200190815260200160002060008a73ffffffffffffffffffffffffffffffffffffffff1673ffffffffffffffffffffffffffffffffffffffff16815260200190815260200160002054905085811015612132576040517f08c379a000000000000000000000000000000000000000000000000000000000815260040161212990614499565b60405180910390fd5b8581036065600089815260200190815260200160002060008b73ffffffffffffffffffffffffffffffffffffffff1673ffffffffffffffffffffffffffffffffffffffff16815260200190815260200160002081905550856065600089815260200190815260200160002060008a73ffffffffffffffffffffffffffffffffffffffff1673ffffffffffffffffffffffffffffffffffffffff16815260200190815260200160002060008282546121e991906144b9565b925050819055508773ffffffffffffffffffffffffffffffffffffffff168973ffffffffffffffffffffffffffffffffffffffff168573ffffffffffffffffffffffffffffffffffffffff167fc3d58168c5ae7397731d063d5bbf3d657854427343f4c083240f7aacaa2d0f628a8a604051612266929190614733565b60405180910390a461227c848a8a86868a612565565b61228a848a8a8a8a8a6128b7565b505050505050505050565b6001816000016000828254019250508190555050565b600073ffffffffffffffffffffffffffffffffffffffff168373ffffffffffffffffffffffffffffffffffffffff160361231a576040517f08c379a00000000000000000000000000000000000000000000000000000000081526004016123119061495e565b60405180910390fd5b6000612324611572565b905060006123318461283d565b9050600061233e8461283d565b905061235e8387600085856040518060200160405280600081525061255d565b60006065600087815260200190815260200160002060008873ffffffffffffffffffffffffffffffffffffffff1673ffffffffffffffffffffffffffffffffffffffff168152602001908152602001600020549050848110156123f6576040517f08c379a00000000000000000000000000000000000000000000000000000000081526004016123ed906149f0565b60405180910390fd5b8481036065600088815260200190815260200160002060008973ffffffffffffffffffffffffffffffffffffffff1673ffffffffffffffffffffffffffffffffffffffff16815260200190815260200160002081905550600073ffffffffffffffffffffffffffffffffffffffff168773ffffffffffffffffffffffffffffffffffffffff168573ffffffffffffffffffffffffffffffffffffffff167fc3d58168c5ae7397731d063d5bbf3d657854427343f4c083240f7aacaa2d0f6289896040516124c4929190614733565b60405180910390a46124ea84886000868660405180602001604052806000815250612565565b50505050505050565b60007f01ffc9a7000000000000000000000000000000000000000000000000000000007bffffffffffffffffffffffffffffffffffffffffffffffffffffffff1916827bffffffffffffffffffffffffffffffffffffffffffffffffffffffff1916149050919050565b505050505050565b505050505050565b61258c8473ffffffffffffffffffffffffffffffffffffffff16611d63565b1561273c578373ffffffffffffffffffffffffffffffffffffffff1663bc197c8187878686866040518663ffffffff1660e01b81526004016125d2959493929190614a65565b6020604051808303816000875af192505050801561260e57506040513d601f19601f8201168201806040525081019061260b9190614ae2565b60015b6126b35761261a614b1c565b806308c379a003612676575061262e614b3e565b806126395750612678565b806040517f08c379a000000000000000000000000000000000000000000000000000000000815260040161266d9190612f81565b60405180910390fd5b505b6040517f08c379a00000000000000000000000000000000000000000000000000000000081526004016126aa90614c40565b60405180910390fd5b63bc197c8160e01b7bffffffffffffffffffffffffffffffffffffffffffffffffffffffff1916817bffffffffffffffffffffffffffffffffffffffffffffffffffffffff19161461273a576040517f08c379a000000000000000000000000000000000000000000000000000000000815260040161273190614cd2565b60405180910390fd5b505b505050505050565b6000819050919050565b6000819050919050565b61276181611d63565b6127a0576040517f08c379a000000000000000000000000000000000000000000000000000000000815260040161279790614d64565b60405180910390fd5b806127cd7f360894a13ba1a3210667c828492db98dca3e2076cc3735a920a3ca505d382bbc60001b612744565b60000160006101000a81548173ffffffffffffffffffffffffffffffffffffffff021916908373ffffffffffffffffffffffffffffffffffffffff16021790555050565b61281a83612b4a565b6000825111806128275750805b15612838576128368383612b99565b505b505050565b60606000600167ffffffffffffffff81111561285c5761285b612fd5565b5b60405190808252806020026020018201604052801561288a5781602001602082028036833780820191505090505b50905082816000815181106128a2576128a1613d03565b5b60200260200101818152505080915050919050565b6128d68473ffffffffffffffffffffffffffffffffffffffff16611d63565b15612a86578373ffffffffffffffffffffffffffffffffffffffff1663f23a6e6187878686866040518663ffffffff1660e01b815260040161291c959493929190614d84565b6020604051808303816000875af192505050801561295857506040513d601f19601f820116820180604052508101906129559190614ae2565b60015b6129fd57612964614b1c565b806308c379a0036129c05750612978614b3e565b8061298357506129c2565b806040517f08c379a00000000000000000000000000000000000000000000000000000000081526004016129b79190612f81565b60405180910390fd5b505b6040517f08c379a00000000000000000000000000000000000000000000000000000000081526004016129f490614c40565b60405180910390fd5b63f23a6e6160e01b7bffffffffffffffffffffffffffffffffffffffffffffffffffffffff1916817bffffffffffffffffffffffffffffffffffffffffffffffffffffffff191614612a84576040517f08c379a0000000000000000000000000000000000000000000000000000000008152600401612a7b90614cd2565b60405180910390fd5b505b505050505050565b600060019054906101000a900460ff16612add576040517f08c379a0000000000000000000000000000000000000000000000000000000008152600401612ad49061483a565b60405180910390fd5b612aed612ae8611572565b611c9d565b565b600060019054906101000a900460ff16612b3e576040517f08c379a0000000000000000000000000000000000000000000000000000000008152600401612b359061483a565b60405180910390fd5b612b4781612bc6565b50565b612b5381612758565b8073ffffffffffffffffffffffffffffffffffffffff167fbc7cd75a20ee27fd9adebab32041f755214dbc6bffa90cc0225b39da2e5c2d3b60405160405180910390a250565b6060612bbe8383604051806060016040528060278152602001614e9e60279139612bd9565b905092915050565b8060679081612bd5919061419f565b5050565b60606000808573ffffffffffffffffffffffffffffffffffffffff1685604051612c039190614e1a565b600060405180830381855af49150503d8060008114612c3e576040519150601f19603f3d011682016040523d82523d6000602084013e612c43565b606091505b5091509150612c5486838387612c5f565b925050509392505050565b60608315612cc1576000835103612cb957612c7985611d63565b612cb8576040517f08c379a0000000000000000000000000000000000000000000000000000000008152600401612caf90614e7d565b60405180910390fd5b5b829050612ccc565b612ccb8383612cd4565b5b949350505050565b600082511115612ce75781518083602001fd5b806040517f08c379a0000000000000000000000000000000000000000000000000000000008152600401612d1b9190612f81565b60405180910390fd5b6000604051905090565b600080fd5b600080fd5b600073ffffffffffffffffffffffffffffffffffffffff82169050919050565b6000612d6382612d38565b9050919050565b612d7381612d58565b8114612d7e57600080fd5b50565b600081359050612d9081612d6a565b92915050565b6000819050919050565b612da981612d96565b8114612db457600080fd5b50565b600081359050612dc681612da0565b92915050565b60008060408385031215612de357612de2612d2e565b5b6000612df185828601612d81565b9250506020612e0285828601612db7565b9150509250929050565b612e1581612d96565b82525050565b6000602082019050612e306000830184612e0c565b92915050565b60007fffffffff0000000000000000000000000000000000000000000000000000000082169050919050565b612e6b81612e36565b8114612e7657600080fd5b50565b600081359050612e8881612e62565b92915050565b600060208284031215612ea457612ea3612d2e565b5b6000612eb284828501612e79565b91505092915050565b60008115159050919050565b612ed081612ebb565b82525050565b6000602082019050612eeb6000830184612ec7565b92915050565b600081519050919050565b600082825260208201905092915050565b60005b83811015612f2b578082015181840152602081019050612f10565b60008484015250505050565b6000601f19601f8301169050919050565b6000612f5382612ef1565b612f5d8185612efc565b9350612f6d818560208601612f0d565b612f7681612f37565b840191505092915050565b60006020820190508181036000830152612f9b8184612f48565b905092915050565b600060208284031215612fb957612fb8612d2e565b5b6000612fc784828501612db7565b91505092915050565b600080fd5b7f4e487b7100000000000000000000000000000000000000000000000000000000600052604160045260246000fd5b61300d82612f37565b810181811067ffffffffffffffff8211171561302c5761302b612fd5565b5b80604052505050565b600061303f612d24565b905061304b8282613004565b919050565b600067ffffffffffffffff82111561306b5761306a612fd5565b5b602082029050602081019050919050565b600080fd5b600061309461308f84613050565b613035565b905080838252602082019050602084028301858111156130b7576130b661307c565b5b835b818110156130e057806130cc8882612db7565b8452602084019350506020810190506130b9565b5050509392505050565b600082601f8301126130ff576130fe612fd0565b5b813561310f848260208601613081565b91505092915050565b600080fd5b600067ffffffffffffffff82111561313857613137612fd5565b5b61314182612f37565b9050602081019050919050565b82818337600083830152505050565b600061317061316b8461311d565b613035565b90508281526020810184848401111561318c5761318b613118565b5b61319784828561314e565b509392505050565b600082601f8301126131b4576131b3612fd0565b5b81356131c484826020860161315d565b91505092915050565b600080600080600060a086880312156131e9576131e8612d2e565b5b60006131f788828901612d81565b955050602061320888828901612d81565b945050604086013567ffffffffffffffff81111561322957613228612d33565b5b613235888289016130ea565b935050606086013567ffffffffffffffff81111561325657613255612d33565b5b613262888289016130ea565b925050608086013567ffffffffffffffff81111561328357613282612d33565b5b61328f8882890161319f565b9150509295509295909350565b6000602082840312156132b2576132b1612d2e565b5b60006132c084828501612d81565b91505092915050565b600067ffffffffffffffff8211156132e4576132e3612fd5565b5b602082029050602081019050919050565b6000613308613303846132c9565b613035565b9050808382526020820190506020840283018581111561332b5761332a61307c565b5b835b8181101561335457806133408882612d81565b84526020840193505060208101905061332d565b5050509392505050565b600082601f83011261337357613372612fd0565b5b81356133838482602086016132f5565b91505092915050565b600080604083850312156133a3576133a2612d2e565b5b600083013567ffffffffffffffff8111156133c1576133c0612d33565b5b6133cd8582860161335e565b925050602083013567ffffffffffffffff8111156133ee576133ed612d33565b5b6133fa858286016130ea565b9150509250929050565b600081519050919050565b600082825260208201905092915050565b6000819050602082019050919050565b61343981612d96565b82525050565b600061344b8383613430565b60208301905092915050565b6000602082019050919050565b600061346f82613404565b613479818561340f565b935061348483613420565b8060005b838110156134b557815161349c888261343f565b97506134a783613457565b925050600181019050613488565b5085935050505092915050565b600060208201905081810360008301526134dc8184613464565b905092915050565b600080604083850312156134fb576134fa612d2e565b5b600061350985828601612d81565b925050602083013567ffffffffffffffff81111561352a57613529612d33565b5b6135368582860161319f565b9150509250929050565b61354981612d58565b82525050565b60006020820190506135646000830184613540565b92915050565b6000819050919050565b61357d8161356a565b82525050565b60006020820190506135986000830184613574565b92915050565b6000806000606084860312156135b7576135b6612d2e565b5b60006135c586828701612db7565b93505060206135d686828701612d81565b925050604084013567ffffffffffffffff8111156135f7576135f6612d33565b5b6136038682870161319f565b9150509250925092565b600067ffffffffffffffff82111561362857613627612fd5565b5b61363182612f37565b9050602081019050919050565b600061365161364c8461360d565b613035565b90508281526020810184848401111561366d5761366c613118565b5b61367884828561314e565b509392505050565b600082601f83011261369557613694612fd0565b5b81356136a584826020860161363e565b91505092915050565b600080604083850312156136c5576136c4612d2e565b5b60006136d385828601612db7565b925050602083013567ffffffffffffffff8111156136f4576136f3612d33565b5b61370085828601613680565b9150509250929050565b61371381612ebb565b811461371e57600080fd5b50565b6000813590506137308161370a565b92915050565b6000806040838503121561374d5761374c612d2e565b5b600061375b85828601612d81565b925050602061376c85828601613721565b9150509250929050565b6000806040838503121561378d5761378c612d2e565b5b600061379b85828601612d81565b92505060206137ac85828601612d81565b9150509250929050565b600080600080600060a086880312156137d2576137d1612d2e565b5b60006137e088828901612d81565b95505060206137f188828901612d81565b945050604061380288828901612db7565b935050606061381388828901612db7565b925050608086013567ffffffffffffffff81111561383457613833612d33565b5b6138408882890161319f565b9150509295509295909350565b60008060006060848603121561386657613865612d2e565b5b600084013567ffffffffffffffff81111561388457613883612d33565b5b6138908682870161319f565b93505060206138a186828701612db7565b92505060406138b286828701612d81565b9150509250925092565b6000806000606084860312156138d5576138d4612d2e565b5b60006138e386828701612d81565b93505060206138f486828701612db7565b925050604061390586828701612db7565b9150509250925092565b7f455243313135353a2061646472657373207a65726f206973206e6f742061207660008201527f616c6964206f776e657200000000000000000000000000000000000000000000602082015250565b600061396b602a83612efc565b91506139768261390f565b604082019050919050565b6000602082019050818103600083015261399a8161395e565b9050919050565b7f4e487b7100000000000000000000000000000000000000000000000000000000600052602260045260246000fd5b600060028204905060018216806139e857607f821691505b6020821081036139fb576139fa6139a1565b5b50919050565b600081905092915050565b60008190508160005260206000209050919050565b60008154613a2e816139d0565b613a388186613a01565b94506001821660008114613a535760018114613a6857613a9b565b60ff1983168652811515820286019350613a9b565b613a7185613a0c565b60005b83811015613a9357815481890152600182019150602081019050613a74565b838801955050505b50505092915050565b6000613ab08284613a21565b915081905092915050565b7f455243313135353a2063616c6c6572206973206e6f7420746f6b656e206f776e60008201527f6572206f7220617070726f766564000000000000000000000000000000000000602082015250565b6000613b17602e83612efc565b9150613b2282613abb565b604082019050919050565b60006020820190508181036000830152613b4681613b0a565b9050919050565b7f46756e6374696f6e206d7573742062652063616c6c6564207468726f7567682060008201527f64656c656761746563616c6c0000000000000000000000000000000000000000602082015250565b6000613ba9602c83612efc565b9150613bb482613b4d565b604082019050919050565b60006020820190508181036000830152613bd881613b9c565b9050919050565b7f46756e6374696f6e206d7573742062652063616c6c6564207468726f7567682060008201527f6163746976652070726f78790000000000000000000000000000000000000000602082015250565b6000613c3b602c83612efc565b9150613c4682613bdf565b604082019050919050565b60006020820190508181036000830152613c6a81613c2e565b9050919050565b7f455243313135353a206163636f756e747320616e6420696473206c656e67746860008201527f206d69736d617463680000000000000000000000000000000000000000000000602082015250565b6000613ccd602983612efc565b9150613cd882613c71565b604082019050919050565b60006020820190508181036000830152613cfc81613cc0565b9050919050565b7f4e487b7100000000000000000000000000000000000000000000000000000000600052603260045260246000fd5b7f4e487b7100000000000000000000000000000000000000000000000000000000600052601160045260246000fd5b6000613d6c82612d96565b91507fffffffffffffffffffffffffffffffffffffffffffffffffffffffffffffffff8203613d9e57613d9d613d32565b5b600182019050919050565b7f555550535570677261646561626c653a206d757374206e6f742062652063616c60008201527f6c6564207468726f7567682064656c656761746563616c6c0000000000000000602082015250565b6000613e05603883612efc565b9150613e1082613da9565b604082019050919050565b60006020820190508181036000830152613e3481613df8565b9050919050565b7f4f6e6c79206f6e65207065722075736572000000000000000000000000000000600082015250565b6000613e71601183612efc565b9150613e7c82613e3b565b602082019050919050565b60006020820190508181036000830152613ea081613e64565b9050919050565b7f496e697469616c697a61626c653a20636f6e747261637420697320616c72656160008201527f647920696e697469616c697a6564000000000000000000000000000000000000602082015250565b6000613f03602e83612efc565b9150613f0e82613ea7565b604082019050919050565b60006020820190508181036000830152613f3281613ef6565b9050919050565b6000819050919050565b600060ff82169050919050565b6000819050919050565b6000613f75613f70613f6b84613f39565b613f50565b613f43565b9050919050565b613f8581613f5a565b82525050565b6000602082019050613fa06000830184613f7c565b92915050565b7f55524920616c7265616479207365740000000000000000000000000000000000600082015250565b6000613fdc600f83612efc565b9150613fe782613fa6565b602082019050919050565b6000602082019050818103600083015261400b81613fcf565b9050919050565b60006020601f8301049050919050565b600082821b905092915050565b60006008830261405f7fffffffffffffffffffffffffffffffffffffffffffffffffffffffffffffffff82614022565b6140698683614022565b95508019841693508086168417925050509392505050565b600061409c61409761409284612d96565b613f50565b612d96565b9050919050565b6000819050919050565b6140b683614081565b6140ca6140c2826140a3565b84845461402f565b825550505050565b600090565b6140df6140d2565b6140ea8184846140ad565b505050565b5b8181101561410e576141036000826140d7565b6001810190506140f0565b5050565b601f8211156141535761412481613a0c565b61412d84614012565b8101602085101561413c578190505b61415061414885614012565b8301826140ef565b50505b505050565b600082821c905092915050565b600061417660001984600802614158565b1980831691505092915050565b600061418f8383614165565b9150826002028217905092915050565b6141a882612ef1565b67ffffffffffffffff8111156141c1576141c0612fd5565b5b6141cb82546139d0565b6141d6828285614112565b600060209050601f83116001811461420957600084156141f7578287015190505b6142018582614183565b865550614269565b601f19841661421786613a0c565b60005b8281101561423f5784890151825560018201915060208501945060208101905061421a565b8683101561425c5784890151614258601f891682614165565b8355505b6001600288020188555050505b505050505050565b7f4f776e61626c653a206e6577206f776e657220697320746865207a65726f206160008201527f6464726573730000000000000000000000000000000000000000000000000000602082015250565b60006142cd602683612efc565b91506142d882614271565b604082019050919050565b600060208201905081810360008301526142fc816142c0565b9050919050565b7f455243313135353a2069647320616e6420616d6f756e7473206c656e6774682060008201527f6d69736d61746368000000000000000000000000000000000000000000000000602082015250565b600061435f602883612efc565b915061436a82614303565b604082019050919050565b6000602082019050818103600083015261438e81614352565b9050919050565b7f455243313135353a207472616e7366657220746f20746865207a65726f20616460008201527f6472657373000000000000000000000000000000000000000000000000000000602082015250565b60006143f1602583612efc565b91506143fc82614395565b604082019050919050565b60006020820190508181036000830152614420816143e4565b9050919050565b7f455243313135353a20696e73756666696369656e742062616c616e636520666f60008201527f72207472616e7366657200000000000000000000000000000000000000000000602082015250565b6000614483602a83612efc565b915061448e82614427565b604082019050919050565b600060208201905081810360008301526144b281614476565b9050919050565b60006144c482612d96565b91506144cf83612d96565b92508282019050808211156144e7576144e6613d32565b5b92915050565b600060408201905081810360008301526145078185613464565b9050818103602083015261451b8184613464565b90509392505050565b61452d8161356a565b811461453857600080fd5b50565b60008151905061454a81614524565b92915050565b60006020828403121561456657614565612d2e565b5b60006145748482850161453b565b91505092915050565b7f45524331393637557067726164653a206e657720696d706c656d656e7461746960008201527f6f6e206973206e6f742055555053000000000000000000000000000000000000602082015250565b60006145d9602e83612efc565b91506145e48261457d565b604082019050919050565b60006020820190508181036000830152614608816145cc565b9050919050565b7f45524331393637557067726164653a20756e737570706f727465642070726f7860008201527f6961626c65555549440000000000000000000000000000000000000000000000602082015250565b600061466b602983612efc565b91506146768261460f565b604082019050919050565b6000602082019050818103600083015261469a8161465e565b9050919050565b7f455243313135353a206d696e7420746f20746865207a65726f2061646472657360008201527f7300000000000000000000000000000000000000000000000000000000000000602082015250565b60006146fd602183612efc565b9150614708826146a1565b604082019050919050565b6000602082019050818103600083015261472c816146f0565b9050919050565b60006040820190506147486000830185612e0c565b6147556020830184612e0c565b9392505050565b7f4f776e61626c653a2063616c6c6572206973206e6f7420746865206f776e6572600082015250565b6000614792602083612efc565b915061479d8261475c565b602082019050919050565b600060208201905081810360008301526147c181614785565b9050919050565b7f496e697469616c697a61626c653a20636f6e7472616374206973206e6f74206960008201527f6e697469616c697a696e67000000000000000000000000000000000000000000602082015250565b6000614824602b83612efc565b915061482f826147c8565b604082019050919050565b6000602082019050818103600083015261485381614817565b9050919050565b7f455243313135353a2073657474696e6720617070726f76616c2073746174757360008201527f20666f722073656c660000000000000000000000000000000000000000000000602082015250565b60006148b6602983612efc565b91506148c18261485a565b604082019050919050565b600060208201905081810360008301526148e5816148a9565b9050919050565b7f455243313135353a206275726e2066726f6d20746865207a65726f206164647260008201527f6573730000000000000000000000000000000000000000000000000000000000602082015250565b6000614948602383612efc565b9150614953826148ec565b604082019050919050565b600060208201905081810360008301526149778161493b565b9050919050565b7f455243313135353a206275726e20616d6f756e7420657863656564732062616c60008201527f616e636500000000000000000000000000000000000000000000000000000000602082015250565b60006149da602483612efc565b91506149e58261497e565b604082019050919050565b60006020820190508181036000830152614a09816149cd565b9050919050565b600081519050919050565b600082825260208201905092915050565b6000614a3782614a10565b614a418185614a1b565b9350614a51818560208601612f0d565b614a5a81612f37565b840191505092915050565b600060a082019050614a7a6000830188613540565b614a876020830187613540565b8181036040830152614a998186613464565b90508181036060830152614aad8185613464565b90508181036080830152614ac18184614a2c565b90509695505050505050565b600081519050614adc81612e62565b92915050565b600060208284031215614af857614af7612d2e565b5b6000614b0684828501614acd565b91505092915050565b60008160e01c9050919050565b600060033d1115614b3b5760046000803e614b38600051614b0f565b90505b90565b600060443d10614bcb57614b50612d24565b60043d036004823e80513d602482011167ffffffffffffffff82111715614b78575050614bcb565b808201805167ffffffffffffffff811115614b965750505050614bcb565b80602083010160043d038501811115614bb3575050505050614bcb565b614bc282602001850186613004565b82955050505050505b90565b7f455243313135353a207472616e7366657220746f206e6f6e2d4552433131353560008201527f526563656976657220696d706c656d656e746572000000000000000000000000602082015250565b6000614c2a603483612efc565b9150614c3582614bce565b604082019050919050565b60006020820190508181036000830152614c5981614c1d565b9050919050565b7f455243313135353a204552433131353552656365697665722072656a6563746560008201527f6420746f6b656e73000000000000000000000000000000000000000000000000602082015250565b6000614cbc602883612efc565b9150614cc782614c60565b604082019050919050565b60006020820190508181036000830152614ceb81614caf565b9050919050565b7f455243313936373a206e657720696d706c656d656e746174696f6e206973206e60008201527f6f74206120636f6e747261637400000000000000000000000000000000000000602082015250565b6000614d4e602d83612efc565b9150614d5982614cf2565b604082019050919050565b60006020820190508181036000830152614d7d81614d41565b9050919050565b600060a082019050614d996000830188613540565b614da66020830187613540565b614db36040830186612e0c565b614dc06060830185612e0c565b8181036080830152614dd28184614a2c565b90509695505050505050565b600081905092915050565b6000614df482614a10565b614dfe8185614dde565b9350614e0e818560208601612f0d565b80840191505092915050565b6000614e268284614de9565b915081905092915050565b7f416464726573733a2063616c6c20746f206e6f6e2d636f6e7472616374000000600082015250565b6000614e67601d83612efc565b9150614e7282614e31565b602082019050919050565b60006020820190508181036000830152614e9681614e5a565b905091905056fe416464726573733a206c6f772d6c6576656c2064656c65676174652063616c6c206661696c6564a2646970667358221220850c3337dd35451e9445aa9ded71defe8728ad3b62596ad83323939308b28fae64736f6c63430008130033",
  "linkReferences": {},
  "deployedLinkReferences": {}
}