{
  "_format": "hh-sol-artifact-1",
  "contractName": "CollectionFactory",
  "sourceName": "contracts/PrivateCollectionsFactory.sol",
  "abi": [
    {
      "inputs": [
        {
          "internalType": "address",
          "name": "collectionRegistry",
          "type": "address"
        }
      ],
      "stateMutability": "nonpayable",
      "type": "constructor"
    },
    {
      "anonymous": false,
      "inputs": [
        {
          "indexed": false,
          "internalType": "address",
          "name": "newCollectionAddress",
          "type": "address"
        }
      ],
      "name": "CollectionCreated",
      "type": "event"
    },
    {
      "anonymous": false,
      "inputs": [
        {
          "indexed": true,
          "internalType": "address",
          "name": "previousOwner",
          "type": "address"
        },
        {
          "indexed": true,
          "internalType": "address",
          "name": "newOwner",
          "type": "address"
        }
      ],
      "name": "OwnershipTransferred",
      "type": "event"
    },
    {
      "inputs": [],
      "name": "_collectionRegistryAddress",
      "outputs": [
        {
          "internalType": "address",
          "name": "",
          "type": "address"
        }
      ],
      "stateMutability": "view",
      "type": "function"
    },
    {
      "inputs": [
        {
          "internalType": "string",
          "name": "collectionMetadataURI",
          "type": "string"
        },
        {
          "internalType": "uint256",
          "name": "_price",
          "type": "uint256"
        }
      ],
      "name": "createCollection",
      "outputs": [
        {
          "internalType": "address",
          "name": "",
          "type": "address"
        }
      ],
      "stateMutability": "nonpayable",
      "type": "function"
    },
    {
      "inputs": [],
      "name": "owner",
      "outputs": [
        {
          "internalType": "address",
          "name": "",
          "type": "address"
        }
      ],
      "stateMutability": "view",
      "type": "function"
    },
    {
      "inputs": [],
      "name": "renounceOwnership",
      "outputs": [],
      "stateMutability": "nonpayable",
      "type": "function"
    },
    {
      "inputs": [
        {
          "internalType": "address",
          "name": "newOwner",
          "type": "address"
        }
      ],
      "name": "transferOwnership",
      "outputs": [],
      "stateMutability": "nonpayable",
      "type": "function"
    }
  ],
  "bytecode": "0x608060405234801561001057600080fd5b506040516200428e3803806200428e833981810160405281019061003491906101c6565b61005061004561009760201b60201c565b61009f60201b60201c565b80600160006101000a81548173ffffffffffffffffffffffffffffffffffffffff021916908373ffffffffffffffffffffffffffffffffffffffff160217905550506101f3565b600033905090565b60008060009054906101000a900473ffffffffffffffffffffffffffffffffffffffff169050816000806101000a81548173ffffffffffffffffffffffffffffffffffffffff021916908373ffffffffffffffffffffffffffffffffffffffff1602179055508173ffffffffffffffffffffffffffffffffffffffff168173ffffffffffffffffffffffffffffffffffffffff167f8be0079c531659141344cd1fd0a4f28419497f9722a3daafe3b4186f6b6457e060405160405180910390a35050565b600080fd5b600073ffffffffffffffffffffffffffffffffffffffff82169050919050565b600061019382610168565b9050919050565b6101a381610188565b81146101ae57600080fd5b50565b6000815190506101c08161019a565b92915050565b6000602082840312156101dc576101db610163565b5b60006101ea848285016101b1565b91505092915050565b61408b80620002036000396000f3fe608060405234801561001057600080fd5b50600436106100575760003560e01c806364d541511461005c578063715018a61461008c5780638da5cb5b14610096578063e064e2d9146100b4578063f2fde38b146100d2575b600080fd5b61007660048036038101906100719190610694565b6100ee565b6040516100839190610731565b60405180910390f35b61009461025d565b005b61009e6102e5565b6040516100ab9190610731565b60405180910390f35b6100bc61030e565b6040516100c99190610731565b60405180910390f35b6100ec60048036038101906100e79190610778565b610334565b005b6000806040516100fd906104f7565b604051809103906000f080158015610119573d6000803e3d6000fd5b5090508073ffffffffffffffffffffffffffffffffffffffff16637ab4339d85336040518363ffffffff1660e01b8152600401610157929190610824565b600060405180830381600087803b15801561017157600080fd5b505af1158015610185573d6000803e3d6000fd5b50505050600160009054906101000a900473ffffffffffffffffffffffffffffffffffffffff1673ffffffffffffffffffffffffffffffffffffffff1663240bc112858386336040518563ffffffff1660e01b81526004016101ea94939291906108c0565b600060405180830381600087803b15801561020457600080fd5b505af1158015610218573d6000803e3d6000fd5b505050507f75432e2e509efcaf947efcc7a5a6b6b3562425b29e9725c7a4a5c652291ac35d8160405161024b9190610731565b60405180910390a18091505092915050565b61026561042b565b73ffffffffffffffffffffffffffffffffffffffff166102836102e5565b73ffffffffffffffffffffffffffffffffffffffff16146102d9576040517f08c379a00000000000000000000000000000000000000000000000000000000081526004016102d09061096b565b60405180910390fd5b6102e36000610433565b565b60008060009054906101000a900473ffffffffffffffffffffffffffffffffffffffff16905090565b600160009054906101000a900473ffffffffffffffffffffffffffffffffffffffff1681565b61033c61042b565b73ffffffffffffffffffffffffffffffffffffffff1661035a6102e5565b73ffffffffffffffffffffffffffffffffffffffff16146103b0576040517f08c379a00000000000000000000000000000000000000000000000000000000081526004016103a79061096b565b60405180910390fd5b600073ffffffffffffffffffffffffffffffffffffffff168173ffffffffffffffffffffffffffffffffffffffff160361041f576040517f08c379a0000000000000000000000000000000000000000000000000000000008152600401610416906109fd565b60405180910390fd5b61042881610433565b50565b600033905090565b60008060009054906101000a900473ffffffffffffffffffffffffffffffffffffffff169050816000806101000a81548173ffffffffffffffffffffffffffffffffffffffff021916908373ffffffffffffffffffffffffffffffffffffffff1602179055508173ffffffffffffffffffffffffffffffffffffffff168173ffffffffffffffffffffffffffffffffffffffff167f8be0079c531659141344cd1fd0a4f28419497f9722a3daafe3b4186f6b6457e060405160405180910390a35050565b61363880610a1e83390190565b6000604051905090565b600080fd5b600080fd5b600080fd5b600080fd5b6000601f19601f8301169050919050565b7f4e487b7100000000000000000000000000000000000000000000000000000000600052604160045260246000fd5b61056b82610522565b810181811067ffffffffffffffff8211171561058a57610589610533565b5b80604052505050565b600061059d610504565b90506105a98282610562565b919050565b600067ffffffffffffffff8211156105c9576105c8610533565b5b6105d282610522565b9050602081019050919050565b82818337600083830152505050565b60006106016105fc846105ae565b610593565b90508281526020810184848401111561061d5761061c61051d565b5b6106288482856105df565b509392505050565b600082601f83011261064557610644610518565b5b81356106558482602086016105ee565b91505092915050565b6000819050919050565b6106718161065e565b811461067c57600080fd5b50565b60008135905061068e81610668565b92915050565b600080604083850312156106ab576106aa61050e565b5b600083013567ffffffffffffffff8111156106c9576106c8610513565b5b6106d585828601610630565b92505060206106e68582860161067f565b9150509250929050565b600073ffffffffffffffffffffffffffffffffffffffff82169050919050565b600061071b826106f0565b9050919050565b61072b81610710565b82525050565b60006020820190506107466000830184610722565b92915050565b61075581610710565b811461076057600080fd5b50565b6000813590506107728161074c565b92915050565b60006020828403121561078e5761078d61050e565b5b600061079c84828501610763565b91505092915050565b600081519050919050565b600082825260208201905092915050565b60005b838110156107df5780820151818401526020810190506107c4565b60008484015250505050565b60006107f6826107a5565b61080081856107b0565b93506108108185602086016107c1565b61081981610522565b840191505092915050565b6000604082019050818103600083015261083e81856107eb565b905061084d6020830184610722565b9392505050565b600082825260208201905092915050565b7f3078000000000000000000000000000000000000000000000000000000000000600082015250565b600061089b600283610854565b91506108a682610865565b602082019050919050565b6108ba8161065e565b82525050565b600060a08201905081810360008301526108d98161088e565b905081810360208301526108ed81876107eb565b90506108fc6040830186610722565b61090960608301856108b1565b6109166080830184610722565b95945050505050565b7f4f776e61626c653a2063616c6c6572206973206e6f7420746865206f776e6572600082015250565b60006109556020836107b0565b91506109608261091f565b602082019050919050565b6000602082019050818103600083015261098481610948565b9050919050565b7f4f776e61626c653a206e6577206f776e657220697320746865207a65726f206160008201527f6464726573730000000000000000000000000000000000000000000000000000602082015250565b60006109e76026836107b0565b91506109f28261098b565b604082019050919050565b60006020820190508181036000830152610a16816109da565b905091905056fe608060405234801561001057600080fd5b50613618806100206000396000f3fe608060405234801561001057600080fd5b50600436106100f45760003560e01c80637ab4339d11610097578063e985e9c511610066578063e985e9c51461026f578063ebc349ee1461029f578063f242432a146102bb578063f2fde38b146102d7576100f4565b80637ab4339d146101fb5780638da5cb5b146102175780639051306814610235578063a22cb46514610253576100f4565b80632eb2c2d6116100d35780632eb2c2d6146101895780634e1273f4146101a557806351cff8d9146101d5578063715018a6146101f1576100f4565b8062fdd58e146100f957806301ffc9a7146101295780630e89341c14610159575b600080fd5b610113600480360381019061010e9190611bb8565b6102f3565b6040516101209190611c07565b60405180910390f35b610143600480360381019061013e9190611c7a565b6103bc565b6040516101509190611cc2565b60405180910390f35b610173600480360381019061016e9190611cdd565b6103ce565b6040516101809190611d9a565b60405180910390f35b6101a3600480360381019061019e9190611fb9565b6104b3565b005b6101bf60048036038101906101ba919061214b565b610554565b6040516101cc9190612281565b60405180910390f35b6101ef60048036038101906101ea91906122e1565b61066d565b005b6101f96106b7565b005b610215600480360381019061021091906123af565b6106cb565b005b61021f61083c565b60405161022c919061241a565b60405180910390f35b61023d610866565b60405161024a9190611d9a565b60405180910390f35b61026d60048036038101906102689190612461565b6108f4565b005b610289600480360381019061028491906124a1565b61090a565b6040516102969190611cc2565b60405180910390f35b6102b960048036038101906102b4919061253c565b61099e565b005b6102d560048036038101906102d09190612589565b6109b4565b005b6102f160048036038101906102ec9190612620565b610a55565b005b60008073ffffffffffffffffffffffffffffffffffffffff168373ffffffffffffffffffffffffffffffffffffffff1603610363576040517f08c379a000000000000000000000000000000000000000000000000000000000815260040161035a906126bf565b60405180910390fd5b6065600083815260200190815260200160002060008473ffffffffffffffffffffffffffffffffffffffff1673ffffffffffffffffffffffffffffffffffffffff16815260200190815260200160002054905092915050565b60006103c782610ad8565b9050919050565b606060006098600084815260200190815260200160002080546103f09061270e565b80601f016020809104026020016040519081016040528092919081815260200182805461041c9061270e565b80156104695780601f1061043e57610100808354040283529160200191610469565b820191906000526020600020905b81548152906001019060200180831161044c57829003601f168201915b5050505050905060008151116104875761048283610bba565b6104ab565b60978160405160200161049b929190612813565b6040516020818303038152906040525b915050919050565b6104bb610c4e565b73ffffffffffffffffffffffffffffffffffffffff168573ffffffffffffffffffffffffffffffffffffffff1614806105015750610500856104fb610c4e565b61090a565b5b610540576040517f08c379a0000000000000000000000000000000000000000000000000000000008152600401610537906128a9565b60405180910390fd5b61054d8585858585610c56565b5050505050565b6060815183511461059a576040517f08c379a00000000000000000000000000000000000000000000000000000000081526004016105919061293b565b60405180910390fd5b6000835167ffffffffffffffff8111156105b7576105b6611dc1565b5b6040519080825280602002602001820160405280156105e55781602001602082028036833780820191505090505b50905060005b84518110156106625761063285828151811061060a5761060961295b565b5b60200260200101518583815181106106255761062461295b565b5b60200260200101516102f3565b8282815181106106455761064461295b565b5b6020026020010181815250508061065b906129b9565b90506105eb565b508091505092915050565b8073ffffffffffffffffffffffffffffffffffffffff166108fc479081150290604051600060405180830381858888f193505050501580156106b3573d6000803e3d6000fd5b5050565b6106bf610f7a565b6106c96000610ff8565b565b60008060019054906101000a900460ff161590508080156106fc5750600160008054906101000a900460ff1660ff16105b80610729575061070b306110be565b1580156107285750600160008054906101000a900460ff1660ff16145b5b610768576040517f08c379a000000000000000000000000000000000000000000000000000000000815260040161075f90612a73565b60405180910390fd5b60016000806101000a81548160ff021916908360ff16021790555080156107a5576001600060016101000a81548160ff0219169083151502179055505b8260fc90816107b49190612c2a565b506107cd604051806020016040528060008152506110e1565b6107d561113c565b6107de82610a55565b80156108375760008060016101000a81548160ff0219169083151502179055507f7f26b83ff96e1f2b6a682f133852f6798a09c465da95921460cefb3847402498600160405161082e9190612d44565b60405180910390a15b505050565b600060c960009054906101000a900473ffffffffffffffffffffffffffffffffffffffff16905090565b60fc80546108739061270e565b80601f016020809104026020016040519081016040528092919081815260200182805461089f9061270e565b80156108ec5780601f106108c1576101008083540402835291602001916108ec565b820191906000526020600020905b8154815290600101906020018083116108cf57829003601f168201915b505050505081565b6109066108ff610c4e565b8383611195565b5050565b6000606660008473ffffffffffffffffffffffffffffffffffffffff1673ffffffffffffffffffffffffffffffffffffffff16815260200190815260200160002060008373ffffffffffffffffffffffffffffffffffffffff1673ffffffffffffffffffffffffffffffffffffffff16815260200190815260200160002060009054906101000a900460ff16905092915050565b818160fc91826109af929190612d6a565b505050565b6109bc610c4e565b73ffffffffffffffffffffffffffffffffffffffff168573ffffffffffffffffffffffffffffffffffffffff161480610a025750610a01856109fc610c4e565b61090a565b5b610a41576040517f08c379a0000000000000000000000000000000000000000000000000000000008152600401610a38906128a9565b60405180910390fd5b610a4e8585858585611301565b5050505050565b610a5d610f7a565b600073ffffffffffffffffffffffffffffffffffffffff168173ffffffffffffffffffffffffffffffffffffffff1603610acc576040517f08c379a0000000000000000000000000000000000000000000000000000000008152600401610ac390612eac565b60405180910390fd5b610ad581610ff8565b50565b60007fd9b67a26000000000000000000000000000000000000000000000000000000007bffffffffffffffffffffffffffffffffffffffffffffffffffffffff1916827bffffffffffffffffffffffffffffffffffffffffffffffffffffffff19161480610ba357507f0e89341c000000000000000000000000000000000000000000000000000000007bffffffffffffffffffffffffffffffffffffffffffffffffffffffff1916827bffffffffffffffffffffffffffffffffffffffffffffffffffffffff1916145b80610bb35750610bb28261159f565b5b9050919050565b606060678054610bc99061270e565b80601f0160208091040260200160405190810160405280929190818152602001828054610bf59061270e565b8015610c425780601f10610c1757610100808354040283529160200191610c42565b820191906000526020600020905b815481529060010190602001808311610c2557829003601f168201915b50505050509050919050565b600033905090565b8151835114610c9a576040517f08c379a0000000000000000000000000000000000000000000000000000000008152600401610c9190612f3e565b60405180910390fd5b600073ffffffffffffffffffffffffffffffffffffffff168473ffffffffffffffffffffffffffffffffffffffff1603610d09576040517f08c379a0000000000000000000000000000000000000000000000000000000008152600401610d0090612fd0565b60405180910390fd5b6000610d13610c4e565b9050610d23818787878787611609565b60005b8451811015610ed7576000858281518110610d4457610d4361295b565b5b602002602001015190506000858381518110610d6357610d6261295b565b5b6020026020010151905060006065600084815260200190815260200160002060008b73ffffffffffffffffffffffffffffffffffffffff1673ffffffffffffffffffffffffffffffffffffffff16815260200190815260200160002054905081811015610e05576040517f08c379a0000000000000000000000000000000000000000000000000000000008152600401610dfc90613062565b60405180910390fd5b8181036065600085815260200190815260200160002060008c73ffffffffffffffffffffffffffffffffffffffff1673ffffffffffffffffffffffffffffffffffffffff16815260200190815260200160002081905550816065600085815260200190815260200160002060008b73ffffffffffffffffffffffffffffffffffffffff1673ffffffffffffffffffffffffffffffffffffffff1681526020019081526020016000206000828254610ebc9190613082565b9250508190555050505080610ed0906129b9565b9050610d26565b508473ffffffffffffffffffffffffffffffffffffffff168673ffffffffffffffffffffffffffffffffffffffff168273ffffffffffffffffffffffffffffffffffffffff167f4a39dc06d4c0dbc64b70af90fd698a233a518aa5d07e595d983b8c0526c8f7fb8787604051610f4e9291906130b6565b60405180910390a4610f64818787878787611611565b610f72818787878787611619565b505050505050565b610f82610c4e565b73ffffffffffffffffffffffffffffffffffffffff16610fa061083c565b73ffffffffffffffffffffffffffffffffffffffff1614610ff6576040517f08c379a0000000000000000000000000000000000000000000000000000000008152600401610fed90613139565b60405180910390fd5b565b600060c960009054906101000a900473ffffffffffffffffffffffffffffffffffffffff1690508160c960006101000a81548173ffffffffffffffffffffffffffffffffffffffff021916908373ffffffffffffffffffffffffffffffffffffffff1602179055508173ffffffffffffffffffffffffffffffffffffffff168173ffffffffffffffffffffffffffffffffffffffff167f8be0079c531659141344cd1fd0a4f28419497f9722a3daafe3b4186f6b6457e060405160405180910390a35050565b6000808273ffffffffffffffffffffffffffffffffffffffff163b119050919050565b600060019054906101000a900460ff16611130576040517f08c379a0000000000000000000000000000000000000000000000000000000008152600401611127906131cb565b60405180910390fd5b611139816117f0565b50565b600060019054906101000a900460ff1661118b576040517f08c379a0000000000000000000000000000000000000000000000000000000008152600401611182906131cb565b60405180910390fd5b61119361184b565b565b8173ffffffffffffffffffffffffffffffffffffffff168373ffffffffffffffffffffffffffffffffffffffff1603611203576040517f08c379a00000000000000000000000000000000000000000000000000000000081526004016111fa9061325d565b60405180910390fd5b80606660008573ffffffffffffffffffffffffffffffffffffffff1673ffffffffffffffffffffffffffffffffffffffff16815260200190815260200160002060008473ffffffffffffffffffffffffffffffffffffffff1673ffffffffffffffffffffffffffffffffffffffff16815260200190815260200160002060006101000a81548160ff0219169083151502179055508173ffffffffffffffffffffffffffffffffffffffff168373ffffffffffffffffffffffffffffffffffffffff167f17307eab39ab6107e8899845ad3d59bd9653f200f220920489ca2b5937696c31836040516112f49190611cc2565b60405180910390a3505050565b600073ffffffffffffffffffffffffffffffffffffffff168473ffffffffffffffffffffffffffffffffffffffff1603611370576040517f08c379a000000000000000000000000000000000000000000000000000000000815260040161136790612fd0565b60405180910390fd5b600061137a610c4e565b90506000611387856118ac565b90506000611394856118ac565b90506113a4838989858589611609565b60006065600088815260200190815260200160002060008a73ffffffffffffffffffffffffffffffffffffffff1673ffffffffffffffffffffffffffffffffffffffff1681526020019081526020016000205490508581101561143c576040517f08c379a000000000000000000000000000000000000000000000000000000000815260040161143390613062565b60405180910390fd5b8581036065600089815260200190815260200160002060008b73ffffffffffffffffffffffffffffffffffffffff1673ffffffffffffffffffffffffffffffffffffffff16815260200190815260200160002081905550856065600089815260200190815260200160002060008a73ffffffffffffffffffffffffffffffffffffffff1673ffffffffffffffffffffffffffffffffffffffff16815260200190815260200160002060008282546114f39190613082565b925050819055508773ffffffffffffffffffffffffffffffffffffffff168973ffffffffffffffffffffffffffffffffffffffff168573ffffffffffffffffffffffffffffffffffffffff167fc3d58168c5ae7397731d063d5bbf3d657854427343f4c083240f7aacaa2d0f628a8a60405161157092919061327d565b60405180910390a4611586848a8a86868a611611565b611594848a8a8a8a8a611926565b505050505050505050565b60007f01ffc9a7000000000000000000000000000000000000000000000000000000007bffffffffffffffffffffffffffffffffffffffffffffffffffffffff1916827bffffffffffffffffffffffffffffffffffffffffffffffffffffffff1916149050919050565b505050505050565b505050505050565b6116388473ffffffffffffffffffffffffffffffffffffffff166110be565b156117e8578373ffffffffffffffffffffffffffffffffffffffff1663bc197c8187878686866040518663ffffffff1660e01b815260040161167e9594939291906132fb565b6020604051808303816000875af19250505080156116ba57506040513d601f19601f820116820180604052508101906116b79190613378565b60015b61175f576116c66133b2565b806308c379a00361172257506116da6133d4565b806116e55750611724565b806040517f08c379a00000000000000000000000000000000000000000000000000000000081526004016117199190611d9a565b60405180910390fd5b505b6040517f08c379a0000000000000000000000000000000000000000000000000000000008152600401611756906134d6565b60405180910390fd5b63bc197c8160e01b7bffffffffffffffffffffffffffffffffffffffffffffffffffffffff1916817bffffffffffffffffffffffffffffffffffffffffffffffffffffffff1916146117e6576040517f08c379a00000000000000000000000000000000000000000000000000000000081526004016117dd90613568565b60405180910390fd5b505b505050505050565b600060019054906101000a900460ff1661183f576040517f08c379a0000000000000000000000000000000000000000000000000000000008152600401611836906131cb565b60405180910390fd5b61184881611afd565b50565b600060019054906101000a900460ff1661189a576040517f08c379a0000000000000000000000000000000000000000000000000000000008152600401611891906131cb565b60405180910390fd5b6118aa6118a5610c4e565b610ff8565b565b60606000600167ffffffffffffffff8111156118cb576118ca611dc1565b5b6040519080825280602002602001820160405280156118f95781602001602082028036833780820191505090505b50905082816000815181106119115761191061295b565b5b60200260200101818152505080915050919050565b6119458473ffffffffffffffffffffffffffffffffffffffff166110be565b15611af5578373ffffffffffffffffffffffffffffffffffffffff1663f23a6e6187878686866040518663ffffffff1660e01b815260040161198b959493929190613588565b6020604051808303816000875af19250505080156119c757506040513d601f19601f820116820180604052508101906119c49190613378565b60015b611a6c576119d36133b2565b806308c379a003611a2f57506119e76133d4565b806119f25750611a31565b806040517f08c379a0000000000000000000000000000000000000000000000000000000008152600401611a269190611d9a565b60405180910390fd5b505b6040517f08c379a0000000000000000000000000000000000000000000000000000000008152600401611a63906134d6565b60405180910390fd5b63f23a6e6160e01b7bffffffffffffffffffffffffffffffffffffffffffffffffffffffff1916817bffffffffffffffffffffffffffffffffffffffffffffffffffffffff191614611af3576040517f08c379a0000000000000000000000000000000000000000000000000000000008152600401611aea90613568565b60405180910390fd5b505b505050505050565b8060679081611b0c9190612c2a565b5050565b6000604051905090565b600080fd5b600080fd5b600073ffffffffffffffffffffffffffffffffffffffff82169050919050565b6000611b4f82611b24565b9050919050565b611b5f81611b44565b8114611b6a57600080fd5b50565b600081359050611b7c81611b56565b92915050565b6000819050919050565b611b9581611b82565b8114611ba057600080fd5b50565b600081359050611bb281611b8c565b92915050565b60008060408385031215611bcf57611bce611b1a565b5b6000611bdd85828601611b6d565b9250506020611bee85828601611ba3565b9150509250929050565b611c0181611b82565b82525050565b6000602082019050611c1c6000830184611bf8565b92915050565b60007fffffffff0000000000000000000000000000000000000000000000000000000082169050919050565b611c5781611c22565b8114611c6257600080fd5b50565b600081359050611c7481611c4e565b92915050565b600060208284031215611c9057611c8f611b1a565b5b6000611c9e84828501611c65565b91505092915050565b60008115159050919050565b611cbc81611ca7565b82525050565b6000602082019050611cd76000830184611cb3565b92915050565b600060208284031215611cf357611cf2611b1a565b5b6000611d0184828501611ba3565b91505092915050565b600081519050919050565b600082825260208201905092915050565b60005b83811015611d44578082015181840152602081019050611d29565b60008484015250505050565b6000601f19601f8301169050919050565b6000611d6c82611d0a565b611d768185611d15565b9350611d86818560208601611d26565b611d8f81611d50565b840191505092915050565b60006020820190508181036000830152611db48184611d61565b905092915050565b600080fd5b7f4e487b7100000000000000000000000000000000000000000000000000000000600052604160045260246000fd5b611df982611d50565b810181811067ffffffffffffffff82111715611e1857611e17611dc1565b5b80604052505050565b6000611e2b611b10565b9050611e378282611df0565b919050565b600067ffffffffffffffff821115611e5757611e56611dc1565b5b602082029050602081019050919050565b600080fd5b6000611e80611e7b84611e3c565b611e21565b90508083825260208201905060208402830185811115611ea357611ea2611e68565b5b835b81811015611ecc5780611eb88882611ba3565b845260208401935050602081019050611ea5565b5050509392505050565b600082601f830112611eeb57611eea611dbc565b5b8135611efb848260208601611e6d565b91505092915050565b600080fd5b600067ffffffffffffffff821115611f2457611f23611dc1565b5b611f2d82611d50565b9050602081019050919050565b82818337600083830152505050565b6000611f5c611f5784611f09565b611e21565b905082815260208101848484011115611f7857611f77611f04565b5b611f83848285611f3a565b509392505050565b600082601f830112611fa057611f9f611dbc565b5b8135611fb0848260208601611f49565b91505092915050565b600080600080600060a08688031215611fd557611fd4611b1a565b5b6000611fe388828901611b6d565b9550506020611ff488828901611b6d565b945050604086013567ffffffffffffffff81111561201557612014611b1f565b5b61202188828901611ed6565b935050606086013567ffffffffffffffff81111561204257612041611b1f565b5b61204e88828901611ed6565b925050608086013567ffffffffffffffff81111561206f5761206e611b1f565b5b61207b88828901611f8b565b9150509295509295909350565b600067ffffffffffffffff8211156120a3576120a2611dc1565b5b602082029050602081019050919050565b60006120c76120c284612088565b611e21565b905080838252602082019050602084028301858111156120ea576120e9611e68565b5b835b8181101561211357806120ff8882611b6d565b8452602084019350506020810190506120ec565b5050509392505050565b600082601f83011261213257612131611dbc565b5b81356121428482602086016120b4565b91505092915050565b6000806040838503121561216257612161611b1a565b5b600083013567ffffffffffffffff8111156121805761217f611b1f565b5b61218c8582860161211d565b925050602083013567ffffffffffffffff8111156121ad576121ac611b1f565b5b6121b985828601611ed6565b9150509250929050565b600081519050919050565b600082825260208201905092915050565b6000819050602082019050919050565b6121f881611b82565b82525050565b600061220a83836121ef565b60208301905092915050565b6000602082019050919050565b600061222e826121c3565b61223881856121ce565b9350612243836121df565b8060005b8381101561227457815161225b88826121fe565b975061226683612216565b925050600181019050612247565b5085935050505092915050565b6000602082019050818103600083015261229b8184612223565b905092915050565b60006122ae82611b24565b9050919050565b6122be816122a3565b81146122c957600080fd5b50565b6000813590506122db816122b5565b92915050565b6000602082840312156122f7576122f6611b1a565b5b6000612305848285016122cc565b91505092915050565b600067ffffffffffffffff82111561232957612328611dc1565b5b61233282611d50565b9050602081019050919050565b600061235261234d8461230e565b611e21565b90508281526020810184848401111561236e5761236d611f04565b5b612379848285611f3a565b509392505050565b600082601f83011261239657612395611dbc565b5b81356123a684826020860161233f565b91505092915050565b600080604083850312156123c6576123c5611b1a565b5b600083013567ffffffffffffffff8111156123e4576123e3611b1f565b5b6123f085828601612381565b925050602061240185828601611b6d565b9150509250929050565b61241481611b44565b82525050565b600060208201905061242f600083018461240b565b92915050565b61243e81611ca7565b811461244957600080fd5b50565b60008135905061245b81612435565b92915050565b6000806040838503121561247857612477611b1a565b5b600061248685828601611b6d565b92505060206124978582860161244c565b9150509250929050565b600080604083850312156124b8576124b7611b1a565b5b60006124c685828601611b6d565b92505060206124d785828601611b6d565b9150509250929050565b600080fd5b60008083601f8401126124fc576124fb611dbc565b5b8235905067ffffffffffffffff811115612519576125186124e1565b5b60208301915083600182028301111561253557612534611e68565b5b9250929050565b6000806020838503121561255357612552611b1a565b5b600083013567ffffffffffffffff81111561257157612570611b1f565b5b61257d858286016124e6565b92509250509250929050565b600080600080600060a086880312156125a5576125a4611b1a565b5b60006125b388828901611b6d565b95505060206125c488828901611b6d565b94505060406125d588828901611ba3565b93505060606125e688828901611ba3565b925050608086013567ffffffffffffffff81111561260757612606611b1f565b5b61261388828901611f8b565b9150509295509295909350565b60006020828403121561263657612635611b1a565b5b600061264484828501611b6d565b91505092915050565b7f455243313135353a2061646472657373207a65726f206973206e6f742061207660008201527f616c6964206f776e657200000000000000000000000000000000000000000000602082015250565b60006126a9602a83611d15565b91506126b48261264d565b604082019050919050565b600060208201905081810360008301526126d88161269c565b9050919050565b7f4e487b7100000000000000000000000000000000000000000000000000000000600052602260045260246000fd5b6000600282049050600182168061272657607f821691505b602082108103612739576127386126df565b5b50919050565b600081905092915050565b60008190508160005260206000209050919050565b6000815461276c8161270e565b612776818661273f565b9450600182166000811461279157600181146127a6576127d9565b60ff19831686528115158202860193506127d9565b6127af8561274a565b60005b838110156127d1578154818901526001820191506020810190506127b2565b838801955050505b50505092915050565b60006127ed82611d0a565b6127f7818561273f565b9350612807818560208601611d26565b80840191505092915050565b600061281f828561275f565b915061282b82846127e2565b91508190509392505050565b7f455243313135353a2063616c6c6572206973206e6f7420746f6b656e206f776e60008201527f6572206f7220617070726f766564000000000000000000000000000000000000602082015250565b6000612893602e83611d15565b915061289e82612837565b604082019050919050565b600060208201905081810360008301526128c281612886565b9050919050565b7f455243313135353a206163636f756e747320616e6420696473206c656e67746860008201527f206d69736d617463680000000000000000000000000000000000000000000000602082015250565b6000612925602983611d15565b9150612930826128c9565b604082019050919050565b6000602082019050818103600083015261295481612918565b9050919050565b7f4e487b7100000000000000000000000000000000000000000000000000000000600052603260045260246000fd5b7f4e487b7100000000000000000000000000000000000000000000000000000000600052601160045260246000fd5b60006129c482611b82565b91507fffffffffffffffffffffffffffffffffffffffffffffffffffffffffffffffff82036129f6576129f561298a565b5b600182019050919050565b7f496e697469616c697a61626c653a20636f6e747261637420697320616c72656160008201527f647920696e697469616c697a6564000000000000000000000000000000000000602082015250565b6000612a5d602e83611d15565b9150612a6882612a01565b604082019050919050565b60006020820190508181036000830152612a8c81612a50565b9050919050565b60006020601f8301049050919050565b600082821b905092915050565b600060088302612ae07fffffffffffffffffffffffffffffffffffffffffffffffffffffffffffffffff82612aa3565b612aea8683612aa3565b95508019841693508086168417925050509392505050565b6000819050919050565b6000612b27612b22612b1d84611b82565b612b02565b611b82565b9050919050565b6000819050919050565b612b4183612b0c565b612b55612b4d82612b2e565b848454612ab0565b825550505050565b600090565b612b6a612b5d565b612b75818484612b38565b505050565b5b81811015612b9957612b8e600082612b62565b600181019050612b7b565b5050565b601f821115612bde57612baf8161274a565b612bb884612a93565b81016020851015612bc7578190505b612bdb612bd385612a93565b830182612b7a565b50505b505050565b600082821c905092915050565b6000612c0160001984600802612be3565b1980831691505092915050565b6000612c1a8383612bf0565b9150826002028217905092915050565b612c3382611d0a565b67ffffffffffffffff811115612c4c57612c4b611dc1565b5b612c56825461270e565b612c61828285612b9d565b600060209050601f831160018114612c945760008415612c82578287015190505b612c8c8582612c0e565b865550612cf4565b601f198416612ca28661274a565b60005b82811015612cca57848901518255600182019150602085019450602081019050612ca5565b86831015612ce75784890151612ce3601f891682612bf0565b8355505b6001600288020188555050505b505050505050565b6000819050919050565b600060ff82169050919050565b6000612d2e612d29612d2484612cfc565b612b02565b612d06565b9050919050565b612d3e81612d13565b82525050565b6000602082019050612d596000830184612d35565b92915050565b600082905092915050565b612d748383612d5f565b67ffffffffffffffff811115612d8d57612d8c611dc1565b5b612d97825461270e565b612da2828285612b9d565b6000601f831160018114612dd15760008415612dbf578287013590505b612dc98582612c0e565b865550612e31565b601f198416612ddf8661274a565b60005b82811015612e0757848901358255600182019150602085019450602081019050612de2565b86831015612e245784890135612e20601f891682612bf0565b8355505b6001600288020188555050505b50505050505050565b7f4f776e61626c653a206e6577206f776e657220697320746865207a65726f206160008201527f6464726573730000000000000000000000000000000000000000000000000000602082015250565b6000612e96602683611d15565b9150612ea182612e3a565b604082019050919050565b60006020820190508181036000830152612ec581612e89565b9050919050565b7f455243313135353a2069647320616e6420616d6f756e7473206c656e6774682060008201527f6d69736d61746368000000000000000000000000000000000000000000000000602082015250565b6000612f28602883611d15565b9150612f3382612ecc565b604082019050919050565b60006020820190508181036000830152612f5781612f1b565b9050919050565b7f455243313135353a207472616e7366657220746f20746865207a65726f20616460008201527f6472657373000000000000000000000000000000000000000000000000000000602082015250565b6000612fba602583611d15565b9150612fc582612f5e565b604082019050919050565b60006020820190508181036000830152612fe981612fad565b9050919050565b7f455243313135353a20696e73756666696369656e742062616c616e636520666f60008201527f72207472616e7366657200000000000000000000000000000000000000000000602082015250565b600061304c602a83611d15565b915061305782612ff0565b604082019050919050565b6000602082019050818103600083015261307b8161303f565b9050919050565b600061308d82611b82565b915061309883611b82565b92508282019050808211156130b0576130af61298a565b5b92915050565b600060408201905081810360008301526130d08185612223565b905081810360208301526130e48184612223565b90509392505050565b7f4f776e61626c653a2063616c6c6572206973206e6f7420746865206f776e6572600082015250565b6000613123602083611d15565b915061312e826130ed565b602082019050919050565b6000602082019050818103600083015261315281613116565b9050919050565b7f496e697469616c697a61626c653a20636f6e7472616374206973206e6f74206960008201527f6e697469616c697a696e67000000000000000000000000000000000000000000602082015250565b60006131b5602b83611d15565b91506131c082613159565b604082019050919050565b600060208201905081810360008301526131e4816131a8565b9050919050565b7f455243313135353a2073657474696e6720617070726f76616c2073746174757360008201527f20666f722073656c660000000000000000000000000000000000000000000000602082015250565b6000613247602983611d15565b9150613252826131eb565b604082019050919050565b600060208201905081810360008301526132768161323a565b9050919050565b60006040820190506132926000830185611bf8565b61329f6020830184611bf8565b9392505050565b600081519050919050565b600082825260208201905092915050565b60006132cd826132a6565b6132d781856132b1565b93506132e7818560208601611d26565b6132f081611d50565b840191505092915050565b600060a082019050613310600083018861240b565b61331d602083018761240b565b818103604083015261332f8186612223565b905081810360608301526133438185612223565b9050818103608083015261335781846132c2565b90509695505050505050565b60008151905061337281611c4e565b92915050565b60006020828403121561338e5761338d611b1a565b5b600061339c84828501613363565b91505092915050565b60008160e01c9050919050565b600060033d11156133d15760046000803e6133ce6000516133a5565b90505b90565b600060443d10613461576133e6611b10565b60043d036004823e80513d602482011167ffffffffffffffff8211171561340e575050613461565b808201805167ffffffffffffffff81111561342c5750505050613461565b80602083010160043d038501811115613449575050505050613461565b61345882602001850186611df0565b82955050505050505b90565b7f455243313135353a207472616e7366657220746f206e6f6e2d4552433131353560008201527f526563656976657220696d706c656d656e746572000000000000000000000000602082015250565b60006134c0603483611d15565b91506134cb82613464565b604082019050919050565b600060208201905081810360008301526134ef816134b3565b9050919050565b7f455243313135353a204552433131353552656365697665722072656a6563746560008201527f6420746f6b656e73000000000000000000000000000000000000000000000000602082015250565b6000613552602883611d15565b915061355d826134f6565b604082019050919050565b6000602082019050818103600083015261358181613545565b9050919050565b600060a08201905061359d600083018861240b565b6135aa602083018761240b565b6135b76040830186611bf8565b6135c46060830185611bf8565b81810360808301526135d681846132c2565b9050969550505050505056fea264697066735822122035869bd14860d9ec105af19856c5c89ffde2ceea4ffa4d0290a9f4a8438690ff64736f6c63430008130033a2646970667358221220381a3a969fc6b805e2e680f762687db525fea234d8797186737ed3a09e901b5364736f6c63430008130033",
  "linkReferences": {},
  "deployedLinkReferences": {}
}